{
  "_format": "hh-sol-artifact-1",
  "contractName": "ReflectionDistributor",
  "sourceName": "contracts/tokens/ReflectionDistributor.sol",
  "abi": [
    {
      "anonymous": false,
      "inputs": [
        {
          "indexed": true,
          "internalType": "address",
          "name": "allowable",
          "type": "address"
        },
        {
          "indexed": false,
          "internalType": "bool",
          "name": "enabled",
          "type": "bool"
        }
      ],
      "name": "AllowableChanged",
      "type": "event"
    },
    {
      "anonymous": false,
      "inputs": [
        {
          "indexed": false,
          "internalType": "address",
          "name": "account",
          "type": "address"
        },
        {
          "indexed": false,
          "internalType": "uint256",
          "name": "amount",
          "type": "uint256"
        }
      ],
      "name": "DividendendsDistributed",
      "type": "event"
    },
    {
      "anonymous": false,
      "inputs": [
        {
          "indexed": true,
          "internalType": "address",
          "name": "previousOwner",
          "type": "address"
        },
        {
          "indexed": true,
          "internalType": "address",
          "name": "newOwner",
          "type": "address"
        }
      ],
      "name": "OwnershipTransferred",
      "type": "event"
    },
    {
      "inputs": [],
      "name": "_dividendsPerShareAccuracyFactor",
      "outputs": [
        {
          "internalType": "uint256",
          "name": "",
          "type": "uint256"
        }
      ],
      "stateMutability": "view",
      "type": "function"
    },
    {
      "inputs": [],
      "name": "_minDistribution",
      "outputs": [
        {
          "internalType": "uint256",
          "name": "",
          "type": "uint256"
        }
      ],
      "stateMutability": "view",
      "type": "function"
    },
    {
      "inputs": [],
      "name": "_minPeriod",
      "outputs": [
        {
          "internalType": "uint256",
          "name": "",
          "type": "uint256"
        }
      ],
      "stateMutability": "view",
      "type": "function"
    },
    {
      "inputs": [],
      "name": "_minTokenToHold",
      "outputs": [
        {
          "internalType": "uint256",
          "name": "",
          "type": "uint256"
        }
      ],
      "stateMutability": "view",
      "type": "function"
    },
    {
      "inputs": [
        {
          "internalType": "uint256",
          "name": "",
          "type": "uint256"
        }
      ],
      "name": "_shareholders",
      "outputs": [
        {
          "internalType": "address",
          "name": "",
          "type": "address"
        }
      ],
      "stateMutability": "view",
      "type": "function"
    },
    {
      "inputs": [
        {
          "internalType": "address",
          "name": "",
          "type": "address"
        }
      ],
      "name": "_shares",
      "outputs": [
        {
          "internalType": "bool",
          "name": "initialized",
          "type": "bool"
        },
        {
          "internalType": "uint256",
          "name": "amount",
          "type": "uint256"
        },
        {
          "internalType": "uint256",
          "name": "totalExcluded",
          "type": "uint256"
        },
        {
          "internalType": "uint256",
          "name": "lastClaim",
          "type": "uint256"
        }
      ],
      "stateMutability": "view",
      "type": "function"
    },
    {
      "inputs": [
        {
          "internalType": "address",
          "name": "allowable",
          "type": "address"
        },
        {
          "internalType": "bool",
          "name": "enabled",
          "type": "bool"
        }
      ],
      "name": "allow",
      "outputs": [],
      "stateMutability": "nonpayable",
      "type": "function"
    },
    {
      "inputs": [
        {
          "internalType": "address",
          "name": "shareholder",
          "type": "address"
        }
      ],
      "name": "claimableDividends",
      "outputs": [
        {
          "internalType": "uint256",
          "name": "",
          "type": "uint256"
        }
      ],
      "stateMutability": "view",
      "type": "function"
    },
    {
      "inputs": [],
      "name": "dividendsPerShare",
      "outputs": [
        {
          "internalType": "uint256",
          "name": "",
          "type": "uint256"
        }
      ],
      "stateMutability": "view",
      "type": "function"
    },
    {
      "inputs": [
        {
          "internalType": "address",
          "name": "account",
          "type": "address"
        },
        {
          "internalType": "bool",
          "name": "excluded",
          "type": "bool"
        }
      ],
      "name": "excludeFromDistribution",
      "outputs": [],
      "stateMutability": "nonpayable",
      "type": "function"
    },
    {
      "inputs": [
        {
          "internalType": "address",
          "name": "allowable",
          "type": "address"
        }
      ],
      "name": "isAllowed",
      "outputs": [
        {
          "internalType": "bool",
          "name": "",
          "type": "bool"
        }
      ],
      "stateMutability": "view",
      "type": "function"
    },
    {
      "inputs": [
        {
          "internalType": "address",
          "name": "account",
          "type": "address"
        }
      ],
      "name": "isExcludedFromDistribution",
      "outputs": [
        {
          "internalType": "bool",
          "name": "",
          "type": "bool"
        }
      ],
      "stateMutability": "view",
      "type": "function"
    },
    {
      "inputs": [],
      "name": "owner",
      "outputs": [
        {
          "internalType": "address",
          "name": "",
          "type": "address"
        }
      ],
      "stateMutability": "view",
      "type": "function"
    },
    {
      "inputs": [
        {
          "internalType": "uint256",
          "name": "gas",
          "type": "uint256"
        }
      ],
      "name": "process",
      "outputs": [],
      "stateMutability": "payable",
      "type": "function"
    },
    {
      "inputs": [],
      "name": "renounceOwnership",
      "outputs": [],
      "stateMutability": "nonpayable",
      "type": "function"
    },
    {
      "inputs": [
        {
          "internalType": "uint256",
          "name": "minDistribution",
          "type": "uint256"
        }
      ],
      "name": "setMinDistribution",
      "outputs": [],
      "stateMutability": "nonpayable",
      "type": "function"
    },
    {
      "inputs": [
        {
          "internalType": "uint256",
          "name": "minPeriod",
          "type": "uint256"
        }
      ],
      "name": "setMinPeriod",
      "outputs": [],
      "stateMutability": "nonpayable",
      "type": "function"
    },
    {
      "inputs": [
        {
          "internalType": "uint256",
          "name": "minTokenToHold",
          "type": "uint256"
        }
      ],
      "name": "setMinTokenToHold",
      "outputs": [],
      "stateMutability": "nonpayable",
      "type": "function"
    },
    {
      "inputs": [
        {
          "internalType": "address",
          "name": "shareholder",
          "type": "address"
        },
        {
          "internalType": "uint256",
          "name": "amount",
          "type": "uint256"
        }
      ],
      "name": "setShare",
      "outputs": [],
      "stateMutability": "nonpayable",
      "type": "function"
    },
    {
      "inputs": [
        {
          "internalType": "address",
          "name": "shareholder",
          "type": "address"
        }
      ],
      "name": "shareholderShares",
      "outputs": [
        {
          "internalType": "uint256",
          "name": "",
          "type": "uint256"
        }
      ],
      "stateMutability": "view",
      "type": "function"
    },
    {
      "inputs": [],
      "name": "totalAmount",
      "outputs": [
        {
          "internalType": "uint256",
          "name": "",
          "type": "uint256"
        }
      ],
      "stateMutability": "view",
      "type": "function"
    },
    {
      "inputs": [],
      "name": "totalEthDistributed",
      "outputs": [
        {
          "internalType": "uint256",
          "name": "",
          "type": "uint256"
        }
      ],
      "stateMutability": "view",
      "type": "function"
    },
    {
      "inputs": [],
      "name": "totalEthReceived",
      "outputs": [
        {
          "internalType": "uint256",
          "name": "",
          "type": "uint256"
        }
      ],
      "stateMutability": "view",
      "type": "function"
    },
    {
      "inputs": [],
      "name": "totalShares",
      "outputs": [
        {
          "internalType": "uint256",
          "name": "",
          "type": "uint256"
        }
      ],
      "stateMutability": "view",
      "type": "function"
    },
    {
      "inputs": [
        {
          "internalType": "address",
          "name": "newOwner",
          "type": "address"
        }
      ],
      "name": "transferOwnership",
      "outputs": [],
      "stateMutability": "nonpayable",
      "type": "function"
    },
    {
      "stateMutability": "payable",
      "type": "receive"
    }
  ],
  "bytecode": "0x608060405261a8c06002556a52b7d2dcc80cd2e400000060035566038d7ea4c68000600455683635c9adc5dea00000600a5534801561003d57600080fd5b5061004733610057565b610052336001610078565b610127565b610062336000610078565b610075816100d760201b6109a61760201c565b50565b6001600160a01b038216600081815260016020908152604091829020805460ff191685151590811790915591519182527f8a716d1607fc3af79ce3a5bb04d28855303161c12e84b5aa0a71f8e3ebde75b6910160405180910390a25050565b600080546001600160a01b038381166001600160a01b0319831681178455604051919092169283917f8be0079c531659141344cd1fd0a4f28419497f9722a3daafe3b4186f6b6457e09190a35050565b610f4c806101366000396000f3fe60806040526004361061016a5760003560e01c806366eff770116100d1578063b3eb9fa31161008a578063f2fde38b11610064578063f2fde38b1461045b578063f47d05721461047b578063f8210769146104b4578063ffb2c479146104d457600080fd5b8063b3eb9fa3146103e7578063babcc539146103fd578063e2d2e2191461044657600080fd5b806366eff770146103015780636b492b7d14610321578063715018a6146103375780638da5cb5b1461034c578063a9a18dda1461036a578063b34c8caf1461037f57600080fd5b8063204efbb911610123578063204efbb91461024857806325e0bd371461025e57806331ffc5df146102745780633a98ef391461029457806348a134d7146102a957806351171961146102e157600080fd5b806302a71bde1461018d578063062c1746146101b1578063110496e5146101d157806314b6ca96146101f35780631a09fb8c146102135780631a39d8ef1461023357600080fd5b366101885734600860008282546101819190610d35565b9091555050005b600080fd5b34801561019957600080fd5b506009545b6040519081526020015b60405180910390f35b3480156101bd57600080fd5b5061019e6101cc366004610d69565b6104e7565b3480156101dd57600080fd5b506101f16101ec366004610d8b565b61050a565b005b3480156101ff57600080fd5b506101f161020e366004610dc7565b610550565b34801561021f57600080fd5b506101f161022e366004610df1565b610589565b34801561023f57600080fd5b5060075461019e565b34801561025457600080fd5b5061019e60045481565b34801561026a57600080fd5b5061019e600a5481565b34801561028057600080fd5b5061019e61028f366004610d69565b6105d0565b3480156102a057600080fd5b5061019e6105fa565b3480156102b557600080fd5b506102c96102c4366004610df1565b610611565b6040516001600160a01b0390911681526020016101a8565b3480156102ed57600080fd5b506101f16102fc366004610df1565b61063b565b34801561030d57600080fd5b506101f161031c366004610d8b565b61067e565b34801561032d57600080fd5b5061019e60025481565b34801561034357600080fd5b506101f16106d3565b34801561035857600080fd5b506000546001600160a01b03166102c9565b34801561037657600080fd5b5060085461019e565b34801561038b57600080fd5b506103c561039a366004610d69565b600660205260009081526040902080546001820154600283015460039093015460ff90921692909184565b60408051941515855260208501939093529183015260608201526080016101a8565b3480156103f357600080fd5b5061019e60035481565b34801561040957600080fd5b50610436610418366004610d69565b6001600160a01b031660009081526001602052604090205460ff1690565b60405190151581526020016101a8565b34801561045257600080fd5b5061019e610709565b34801561046757600080fd5b506101f1610476366004610d69565b610731565b34801561048757600080fd5b50610436610496366004610d69565b6001600160a01b03166000908152600b602052604090205460ff1690565b3480156104c057600080fd5b506101f16104cf366004610df1565b6107cc565b6101f16104e2366004610df1565b610800565b60006104f1610709565b6104fa836105d0565b6105049190610e0a565b92915050565b3360009081526001602052604090205460ff166105425760405162461bcd60e51b815260040161053990610e29565b60405180910390fd5b61054c82826109f6565b5050565b3360009081526001602052604090205460ff1661057f5760405162461bcd60e51b815260040161053990610e29565b61054c8282610a55565b3360009081526001602052604090205460ff166105b85760405162461bcd60e51b815260040161053990610e29565b6105ca81670de0b6b3a7640000610e0a565b60035550565b600a546001600160a01b038216600090815260066020526040812060010154909161050491610e5e565b6000600a5460075461060c9190610e5e565b905090565b6005818154811061062157600080fd5b6000918252602090912001546001600160a01b0316905081565b3360009081526001602052604090205460ff1661066a5760405162461bcd60e51b815260040161053990610e29565b61067881633b9aca00610e0a565b60045550565b6000546001600160a01b031633146106a85760405162461bcd60e51b815260040161053990610e80565b6001600160a01b03919091166000908152600b60205260409020805460ff1916911515919091179055565b6000546001600160a01b031633146106fd5760405162461bcd60e51b815260040161053990610e80565b6107076000610b5a565b565b6000806107146105fa565b1161071f5750600090565b6107276105fa565b61060c9047610e5e565b6000546001600160a01b0316331461075b5760405162461bcd60e51b815260040161053990610e80565b6001600160a01b0381166107c05760405162461bcd60e51b815260206004820152602660248201527f4f776e61626c653a206e6577206f776e657220697320746865207a65726f206160448201526564647265737360d01b6064820152608401610539565b6107c981610b5a565b50565b3360009081526001602052604090205460ff166107fb5760405162461bcd60e51b815260040161053990610e29565b600255565b3360009081526001602052604090205460ff1661082f5760405162461bcd60e51b815260040161053990610e29565b6000805a6005549091506000905b808210801561084b57508484105b1561099f5780600c541061085f576000600c555b60006005600c548154811061087657610876610eb5565b60009182526020808320909101546001600160a01b0316808352600b90915260409091205490915060ff1661095c576000336040516370a0823160e01b81526001600160a01b03848116600483015291909116906370a0823190602401602060405180830381865afa1580156108f0573d6000803e3d6000fd5b505050506040513d601f19601f820116820180604052508101906109149190610ecb565b6001600160a01b0383166000908152600660205260409020600101549091508114610943576109438282610a55565b61094c82610b6e565b1561095a5761095a82610bc9565b505b5a6109679085610ee4565b6109719086610d35565b94505a600c8054919550600061098683610efb565b9190505550828061099690610efb565b9350505061083d565b5050505050565b600080546001600160a01b038381166001600160a01b0319831681178455604051919092169283917f8be0079c531659141344cd1fd0a4f28419497f9722a3daafe3b4186f6b6457e09190a35050565b6001600160a01b038216600081815260016020908152604091829020805460ff191685151590811790915591519182527f8a716d1607fc3af79ce3a5bb04d28855303161c12e84b5aa0a71f8e3ebde75b6910160405180910390a25050565b6001600160a01b03821660009081526006602052604090205460ff16610ae0576005805460018082019092557f036b6384b5eca791c62761152d0c79bb0604c104a5fb6f4eb0703f3154bb3db00180546001600160a01b0319166001600160a01b0385169081179091556000908152600660205260409020805460ff19169091178155426003909101555b6003548110610b2c576001600160a01b03821660009081526006602052604090206001018054908290556007548290610b1a908390610ee4565b610b249190610d35565b600755505050565b6001600160a01b03821660009081526006602052604081206001018054919055600754610b24908290610ee4565b610b653360006109f6565b6107c9816109a6565b6002546001600160a01b0382166000908152600660205260408120600301549091610b9891610d35565b421015801561050457506004546001600160a01b038316600090815260066020526040902060010154101592915050565b6000610bd4826104e7565b9050801561054c576000826001600160a01b03168261753090604051600060405180830381858888f193505050503d8060008114610c2e576040519150601f19603f3d011682016040523d82523d6000602084013e610c33565b606091505b5050905080610caa5760405162461bcd60e51b815260206004820152603e60248201527f5265666c656374696f6e4469737472696275746f723a2050726f76696465722060448201527f72656365697665722072656a656374656420455448207472616e7366657200006064820152608401610539565b604080516001600160a01b0385168152602081018490527f1ded3851b9d58b595d2cfa5e06a0900fb9d8165de54102acf43d94ad07b28a4e910160405180910390a181600954610cfa9190610d35565b60095550506001600160a01b0316600090815260066020526040902042600390910155565b634e487b7160e01b600052601160045260246000fd5b60008219821115610d4857610d48610d1f565b500190565b80356001600160a01b0381168114610d6457600080fd5b919050565b600060208284031215610d7b57600080fd5b610d8482610d4d565b9392505050565b60008060408385031215610d9e57600080fd5b610da783610d4d565b915060208301358015158114610dbc57600080fd5b809150509250929050565b60008060408385031215610dda57600080fd5b610de383610d4d565b946020939093013593505050565b600060208284031215610e0357600080fd5b5035919050565b6000816000190483118215151615610e2457610e24610d1f565b500290565b6020808252818101527f416c6c6f7761626c653a2063616c6c6572206973206e6f7420616c6c6f776564604082015260600190565b600082610e7b57634e487b7160e01b600052601260045260246000fd5b500490565b6020808252818101527f4f776e61626c653a2063616c6c6572206973206e6f7420746865206f776e6572604082015260600190565b634e487b7160e01b600052603260045260246000fd5b600060208284031215610edd57600080fd5b5051919050565b600082821015610ef657610ef6610d1f565b500390565b6000600019821415610f0f57610f0f610d1f565b506001019056fea264697066735822122022976e2e05d04b80456386bce4de722b48c76547c3dda8401410c22dcc9a305564736f6c634300080b0033",
  "linkReferences": {},
  "deployedLinkReferences": {}
}