{
  "_format": "hh-sol-artifact-1",
  "contractName": "TokenHolderRegister",
  "sourceName": "contracts/migration/TokenHolderRegister.sol",
  "abi": [
    {
      "anonymous": false,
      "inputs": [
        {
          "indexed": true,
          "internalType": "address",
          "name": "allowable",
          "type": "address"
        },
        {
          "indexed": false,
          "internalType": "bool",
          "name": "enabled",
          "type": "bool"
        }
      ],
      "name": "AllowableChanged",
      "type": "event"
    },
    {
      "anonymous": false,
      "inputs": [
        {
          "indexed": true,
          "internalType": "address",
          "name": "previousOwner",
          "type": "address"
        },
        {
          "indexed": true,
          "internalType": "address",
          "name": "newOwner",
          "type": "address"
        }
      ],
      "name": "OwnershipTransferred",
      "type": "event"
    },
    {
      "inputs": [
        {
          "internalType": "address",
          "name": "holder",
          "type": "address"
        },
        {
          "internalType": "uint256",
          "name": "amount",
          "type": "uint256"
        }
      ],
      "name": "addTokens",
      "outputs": [],
      "stateMutability": "nonpayable",
      "type": "function"
    },
    {
      "inputs": [
        {
          "internalType": "address",
          "name": "allowable",
          "type": "address"
        },
        {
          "internalType": "bool",
          "name": "enabled",
          "type": "bool"
        }
      ],
      "name": "allow",
      "outputs": [],
      "stateMutability": "nonpayable",
      "type": "function"
    },
    {
      "inputs": [
        {
          "internalType": "address",
          "name": "holder",
          "type": "address"
        }
      ],
      "name": "getTokens",
      "outputs": [
        {
          "internalType": "uint256",
          "name": "",
          "type": "uint256"
        }
      ],
      "stateMutability": "view",
      "type": "function"
    },
    {
      "inputs": [],
      "name": "getTotalTokens",
      "outputs": [
        {
          "internalType": "uint256",
          "name": "",
          "type": "uint256"
        }
      ],
      "stateMutability": "view",
      "type": "function"
    },
    {
      "inputs": [
        {
          "internalType": "address",
          "name": "allowable",
          "type": "address"
        }
      ],
      "name": "isAllowed",
      "outputs": [
        {
          "internalType": "bool",
          "name": "",
          "type": "bool"
        }
      ],
      "stateMutability": "view",
      "type": "function"
    },
    {
      "inputs": [],
      "name": "owner",
      "outputs": [
        {
          "internalType": "address",
          "name": "",
          "type": "address"
        }
      ],
      "stateMutability": "view",
      "type": "function"
    },
    {
      "inputs": [
        {
          "internalType": "address",
          "name": "holder",
          "type": "address"
        }
      ],
      "name": "removeTokens",
      "outputs": [],
      "stateMutability": "nonpayable",
      "type": "function"
    },
    {
      "inputs": [],
      "name": "renounceOwnership",
      "outputs": [],
      "stateMutability": "nonpayable",
      "type": "function"
    },
    {
      "inputs": [
        {
          "internalType": "address",
          "name": "newOwner",
          "type": "address"
        }
      ],
      "name": "transferOwnership",
      "outputs": [],
      "stateMutability": "nonpayable",
      "type": "function"
    }
  ],
  "bytecode": "0x608060405234801561001057600080fd5b5061001a3361002a565b61002533600161004b565b6100fa565b61003533600061004b565b610048816100aa60201b6104481760201c565b50565b6001600160a01b038216600081815260016020908152604091829020805460ff191685151590811790915591519182527f8a716d1607fc3af79ce3a5bb04d28855303161c12e84b5aa0a71f8e3ebde75b6910160405180910390a25050565b600080546001600160a01b038381166001600160a01b0319831681178455604051919092169283917f8be0079c531659141344cd1fd0a4f28419497f9722a3daafe3b4186f6b6457e09190a35050565b6106b2806101096000396000f3fe608060405234801561001057600080fd5b50600436106100935760003560e01c80638da5cb5b116100665780638da5cb5b14610104578063babcc5391461011f578063f08b82e61461015b578063f2fde38b14610163578063fc50baf51461017657600080fd5b8063110496e514610098578063450efe21146100ad5780636039fbdb146100e9578063715018a6146100fc575b600080fd5b6100ab6100a6366004610527565b610189565b005b6100d66100bb366004610563565b6001600160a01b031660009081526002602052604090205490565b6040519081526020015b60405180910390f35b6100ab6100f7366004610585565b6101cf565b6100ab610268565b6000546040516001600160a01b0390911681526020016100e0565b61014b61012d366004610563565b6001600160a01b031660009081526001602052604090205460ff1690565b60405190151581526020016100e0565b6003546100d6565b6100ab610171366004610563565b6102ce565b6100ab610184366004610563565b610399565b3360009081526001602052604090205460ff166101c15760405162461bcd60e51b81526004016101b8906105af565b60405180910390fd5b6101cb8282610498565b5050565b3360009081526001602052604090205460ff166101fe5760405162461bcd60e51b81526004016101b8906105af565b6000811161021e5760405162461bcd60e51b81526004016101b8906105e4565b6001600160a01b0382166000908152600260205260408120805483929061024690849061064d565b92505081905550806003600082825461025f919061064d565b90915550505050565b6000546001600160a01b031633146102c25760405162461bcd60e51b815260206004820181905260248201527f4f776e61626c653a2063616c6c6572206973206e6f7420746865206f776e657260448201526064016101b8565b6102cc60006104f7565b565b6000546001600160a01b031633146103285760405162461bcd60e51b815260206004820181905260248201527f4f776e61626c653a2063616c6c6572206973206e6f7420746865206f776e657260448201526064016101b8565b6001600160a01b03811661038d5760405162461bcd60e51b815260206004820152602660248201527f4f776e61626c653a206e6577206f776e657220697320746865207a65726f206160448201526564647265737360d01b60648201526084016101b8565b610396816104f7565b50565b3360009081526001602052604090205460ff166103c85760405162461bcd60e51b81526004016101b8906105af565b6001600160a01b0381166000908152600260205260409020546103fd5760405162461bcd60e51b81526004016101b8906105e4565b6001600160a01b0381166000908152600260205260408120546003805491929091610429908490610665565b90915550506001600160a01b0316600090815260026020526040812055565b600080546001600160a01b038381166001600160a01b0319831681178455604051919092169283917f8be0079c531659141344cd1fd0a4f28419497f9722a3daafe3b4186f6b6457e09190a35050565b6001600160a01b038216600081815260016020908152604091829020805460ff191685151590811790915591519182527f8a716d1607fc3af79ce3a5bb04d28855303161c12e84b5aa0a71f8e3ebde75b6910160405180910390a25050565b610502336000610498565b61039681610448565b80356001600160a01b038116811461052257600080fd5b919050565b6000806040838503121561053a57600080fd5b6105438361050b565b91506020830135801515811461055857600080fd5b809150509250929050565b60006020828403121561057557600080fd5b61057e8261050b565b9392505050565b6000806040838503121561059857600080fd5b6105a18361050b565b946020939093013593505050565b6020808252818101527f416c6c6f7761626c653a2063616c6c6572206973206e6f7420616c6c6f776564604082015260600190565b60208082526033908201527f546f6b656e486f6c64657252656769737465723a20486f6c6465722073686f756040820152726c64206861766520736f6d6520746f6b656e7360681b606082015260800190565b634e487b7160e01b600052601160045260246000fd5b6000821982111561066057610660610637565b500190565b60008282101561067757610677610637565b50039056fea2646970667358221220c2a58affb64470879ad0bced921a83a2ceca7ee491ea1933493b00cb589fde6864736f6c634300080b0033",
  "linkReferences": {},
  "deployedLinkReferences": {}
}