{
  "_format": "hh-sol-artifact-1",
  "contractName": "LiquidityLocker",
  "sourceName": "contracts/liquidity/LiquidityLocker.sol",
  "abi": [
    {
      "anonymous": false,
      "inputs": [
        {
          "indexed": false,
          "internalType": "address",
          "name": "previousAdmin",
          "type": "address"
        },
        {
          "indexed": false,
          "internalType": "address",
          "name": "newAdmin",
          "type": "address"
        }
      ],
      "name": "AdminChanged",
      "type": "event"
    },
    {
      "anonymous": false,
      "inputs": [
        {
          "indexed": true,
          "internalType": "address",
          "name": "beacon",
          "type": "address"
        }
      ],
      "name": "BeaconUpgraded",
      "type": "event"
    },
    {
      "anonymous": false,
      "inputs": [
        {
          "indexed": true,
          "internalType": "uint256",
          "name": "id",
          "type": "uint256"
        },
        {
          "indexed": false,
          "internalType": "address",
          "name": "token",
          "type": "address"
        },
        {
          "indexed": false,
          "internalType": "address",
          "name": "owner",
          "type": "address"
        },
        {
          "indexed": false,
          "internalType": "uint256",
          "name": "amount",
          "type": "uint256"
        },
        {
          "indexed": false,
          "internalType": "uint256",
          "name": "unlockDate",
          "type": "uint256"
        }
      ],
      "name": "LockAdded",
      "type": "event"
    },
    {
      "anonymous": false,
      "inputs": [
        {
          "indexed": true,
          "internalType": "uint256",
          "name": "id",
          "type": "uint256"
        },
        {
          "indexed": false,
          "internalType": "address",
          "name": "token",
          "type": "address"
        },
        {
          "indexed": false,
          "internalType": "address",
          "name": "owner",
          "type": "address"
        },
        {
          "indexed": false,
          "internalType": "uint256",
          "name": "amount",
          "type": "uint256"
        },
        {
          "indexed": false,
          "internalType": "uint256",
          "name": "unlockedAt",
          "type": "uint256"
        }
      ],
      "name": "LockRemoved",
      "type": "event"
    },
    {
      "anonymous": false,
      "inputs": [
        {
          "indexed": true,
          "internalType": "uint256",
          "name": "id",
          "type": "uint256"
        },
        {
          "indexed": false,
          "internalType": "address",
          "name": "token",
          "type": "address"
        },
        {
          "indexed": false,
          "internalType": "address",
          "name": "owner",
          "type": "address"
        },
        {
          "indexed": false,
          "internalType": "uint256",
          "name": "newAmount",
          "type": "uint256"
        },
        {
          "indexed": false,
          "internalType": "uint256",
          "name": "newUnlockDate",
          "type": "uint256"
        }
      ],
      "name": "LockUpdated",
      "type": "event"
    },
    {
      "anonymous": false,
      "inputs": [
        {
          "indexed": true,
          "internalType": "address",
          "name": "previousOwner",
          "type": "address"
        },
        {
          "indexed": true,
          "internalType": "address",
          "name": "newOwner",
          "type": "address"
        }
      ],
      "name": "OwnershipTransferred",
      "type": "event"
    },
    {
      "anonymous": false,
      "inputs": [
        {
          "indexed": true,
          "internalType": "address",
          "name": "implementation",
          "type": "address"
        }
      ],
      "name": "Upgraded",
      "type": "event"
    },
    {
      "inputs": [],
      "name": "allLocks",
      "outputs": [
        {
          "components": [
            {
              "internalType": "uint256",
              "name": "id",
              "type": "uint256"
            },
            {
              "internalType": "address",
              "name": "token",
              "type": "address"
            },
            {
              "internalType": "address",
              "name": "owner",
              "type": "address"
            },
            {
              "internalType": "uint256",
              "name": "amount",
              "type": "uint256"
            },
            {
              "internalType": "uint256",
              "name": "lockDate",
              "type": "uint256"
            },
            {
              "internalType": "uint256",
              "name": "unlockDate",
              "type": "uint256"
            }
          ],
          "internalType": "struct LiquidityLocker.Lock[]",
          "name": "",
          "type": "tuple[]"
        }
      ],
      "stateMutability": "view",
      "type": "function"
    },
    {
      "inputs": [],
      "name": "allLpTokenLockedCount",
      "outputs": [
        {
          "internalType": "uint256",
          "name": "",
          "type": "uint256"
        }
      ],
      "stateMutability": "view",
      "type": "function"
    },
    {
      "inputs": [],
      "name": "allNormalTokenLockedCount",
      "outputs": [
        {
          "internalType": "uint256",
          "name": "",
          "type": "uint256"
        }
      ],
      "stateMutability": "view",
      "type": "function"
    },
    {
      "inputs": [
        {
          "internalType": "address",
          "name": "",
          "type": "address"
        }
      ],
      "name": "cumulativeLockInfo",
      "outputs": [
        {
          "internalType": "address",
          "name": "token",
          "type": "address"
        },
        {
          "internalType": "address",
          "name": "factory",
          "type": "address"
        },
        {
          "internalType": "uint256",
          "name": "amount",
          "type": "uint256"
        }
      ],
      "stateMutability": "view",
      "type": "function"
    },
    {
      "inputs": [
        {
          "internalType": "uint256",
          "name": "lockId",
          "type": "uint256"
        },
        {
          "internalType": "uint256",
          "name": "newAmount",
          "type": "uint256"
        },
        {
          "internalType": "uint256",
          "name": "newUnlockDate",
          "type": "uint256"
        }
      ],
      "name": "editLock",
      "outputs": [],
      "stateMutability": "payable",
      "type": "function"
    },
    {
      "inputs": [
        {
          "internalType": "uint256",
          "name": "start",
          "type": "uint256"
        },
        {
          "internalType": "uint256",
          "name": "end",
          "type": "uint256"
        }
      ],
      "name": "getCumulativeLpTokenLockInfo",
      "outputs": [
        {
          "components": [
            {
              "internalType": "address",
              "name": "token",
              "type": "address"
            },
            {
              "internalType": "address",
              "name": "factory",
              "type": "address"
            },
            {
              "internalType": "uint256",
              "name": "amount",
              "type": "uint256"
            }
          ],
          "internalType": "struct LiquidityLocker.CumulativeLockInfo[]",
          "name": "",
          "type": "tuple[]"
        }
      ],
      "stateMutability": "view",
      "type": "function"
    },
    {
      "inputs": [
        {
          "internalType": "uint256",
          "name": "index",
          "type": "uint256"
        }
      ],
      "name": "getCumulativeLpTokenLockInfoAt",
      "outputs": [
        {
          "components": [
            {
              "internalType": "address",
              "name": "token",
              "type": "address"
            },
            {
              "internalType": "address",
              "name": "factory",
              "type": "address"
            },
            {
              "internalType": "uint256",
              "name": "amount",
              "type": "uint256"
            }
          ],
          "internalType": "struct LiquidityLocker.CumulativeLockInfo",
          "name": "",
          "type": "tuple"
        }
      ],
      "stateMutability": "view",
      "type": "function"
    },
    {
      "inputs": [
        {
          "internalType": "uint256",
          "name": "start",
          "type": "uint256"
        },
        {
          "internalType": "uint256",
          "name": "end",
          "type": "uint256"
        }
      ],
      "name": "getCumulativeNormalTokenLockInfo",
      "outputs": [
        {
          "components": [
            {
              "internalType": "address",
              "name": "token",
              "type": "address"
            },
            {
              "internalType": "address",
              "name": "factory",
              "type": "address"
            },
            {
              "internalType": "uint256",
              "name": "amount",
              "type": "uint256"
            }
          ],
          "internalType": "struct LiquidityLocker.CumulativeLockInfo[]",
          "name": "",
          "type": "tuple[]"
        }
      ],
      "stateMutability": "view",
      "type": "function"
    },
    {
      "inputs": [
        {
          "internalType": "uint256",
          "name": "index",
          "type": "uint256"
        }
      ],
      "name": "getCumulativeNormalTokenLockInfoAt",
      "outputs": [
        {
          "components": [
            {
              "internalType": "address",
              "name": "token",
              "type": "address"
            },
            {
              "internalType": "address",
              "name": "factory",
              "type": "address"
            },
            {
              "internalType": "uint256",
              "name": "amount",
              "type": "uint256"
            }
          ],
          "internalType": "struct LiquidityLocker.CumulativeLockInfo",
          "name": "",
          "type": "tuple"
        }
      ],
      "stateMutability": "view",
      "type": "function"
    },
    {
      "inputs": [
        {
          "internalType": "uint256",
          "name": "index",
          "type": "uint256"
        }
      ],
      "name": "getLock",
      "outputs": [
        {
          "components": [
            {
              "internalType": "uint256",
              "name": "id",
              "type": "uint256"
            },
            {
              "internalType": "address",
              "name": "token",
              "type": "address"
            },
            {
              "internalType": "address",
              "name": "owner",
              "type": "address"
            },
            {
              "internalType": "uint256",
              "name": "amount",
              "type": "uint256"
            },
            {
              "internalType": "uint256",
              "name": "lockDate",
              "type": "uint256"
            },
            {
              "internalType": "uint256",
              "name": "unlockDate",
              "type": "uint256"
            }
          ],
          "internalType": "struct LiquidityLocker.Lock",
          "name": "",
          "type": "tuple"
        }
      ],
      "stateMutability": "view",
      "type": "function"
    },
    {
      "inputs": [
        {
          "internalType": "address",
          "name": "token",
          "type": "address"
        },
        {
          "internalType": "uint256",
          "name": "start",
          "type": "uint256"
        },
        {
          "internalType": "uint256",
          "name": "end",
          "type": "uint256"
        }
      ],
      "name": "getLocksForToken",
      "outputs": [
        {
          "components": [
            {
              "internalType": "uint256",
              "name": "id",
              "type": "uint256"
            },
            {
              "internalType": "address",
              "name": "token",
              "type": "address"
            },
            {
              "internalType": "address",
              "name": "owner",
              "type": "address"
            },
            {
              "internalType": "uint256",
              "name": "amount",
              "type": "uint256"
            },
            {
              "internalType": "uint256",
              "name": "lockDate",
              "type": "uint256"
            },
            {
              "internalType": "uint256",
              "name": "unlockDate",
              "type": "uint256"
            }
          ],
          "internalType": "struct LiquidityLocker.Lock[]",
          "name": "",
          "type": "tuple[]"
        }
      ],
      "stateMutability": "view",
      "type": "function"
    },
    {
      "inputs": [],
      "name": "getTotalLockCount",
      "outputs": [
        {
          "internalType": "uint256",
          "name": "",
          "type": "uint256"
        }
      ],
      "stateMutability": "view",
      "type": "function"
    },
    {
      "inputs": [],
      "name": "initialize",
      "outputs": [],
      "stateMutability": "nonpayable",
      "type": "function"
    },
    {
      "inputs": [
        {
          "internalType": "address",
          "name": "owner",
          "type": "address"
        },
        {
          "internalType": "address",
          "name": "token",
          "type": "address"
        },
        {
          "internalType": "bool",
          "name": "isLpToken",
          "type": "bool"
        },
        {
          "internalType": "uint256",
          "name": "amount",
          "type": "uint256"
        },
        {
          "internalType": "uint256",
          "name": "unlockDate",
          "type": "uint256"
        }
      ],
      "name": "lock",
      "outputs": [
        {
          "internalType": "uint256",
          "name": "id",
          "type": "uint256"
        }
      ],
      "stateMutability": "payable",
      "type": "function"
    },
    {
      "inputs": [
        {
          "internalType": "address",
          "name": "user",
          "type": "address"
        }
      ],
      "name": "lpLockCountForUser",
      "outputs": [
        {
          "internalType": "uint256",
          "name": "",
          "type": "uint256"
        }
      ],
      "stateMutability": "view",
      "type": "function"
    },
    {
      "inputs": [
        {
          "internalType": "address",
          "name": "user",
          "type": "address"
        },
        {
          "internalType": "uint256",
          "name": "index",
          "type": "uint256"
        }
      ],
      "name": "lpLockForUserAtIndex",
      "outputs": [
        {
          "components": [
            {
              "internalType": "uint256",
              "name": "id",
              "type": "uint256"
            },
            {
              "internalType": "address",
              "name": "token",
              "type": "address"
            },
            {
              "internalType": "address",
              "name": "owner",
              "type": "address"
            },
            {
              "internalType": "uint256",
              "name": "amount",
              "type": "uint256"
            },
            {
              "internalType": "uint256",
              "name": "lockDate",
              "type": "uint256"
            },
            {
              "internalType": "uint256",
              "name": "unlockDate",
              "type": "uint256"
            }
          ],
          "internalType": "struct LiquidityLocker.Lock",
          "name": "",
          "type": "tuple"
        }
      ],
      "stateMutability": "view",
      "type": "function"
    },
    {
      "inputs": [
        {
          "internalType": "address",
          "name": "user",
          "type": "address"
        }
      ],
      "name": "lpLocksForUser",
      "outputs": [
        {
          "components": [
            {
              "internalType": "uint256",
              "name": "id",
              "type": "uint256"
            },
            {
              "internalType": "address",
              "name": "token",
              "type": "address"
            },
            {
              "internalType": "address",
              "name": "owner",
              "type": "address"
            },
            {
              "internalType": "uint256",
              "name": "amount",
              "type": "uint256"
            },
            {
              "internalType": "uint256",
              "name": "lockDate",
              "type": "uint256"
            },
            {
              "internalType": "uint256",
              "name": "unlockDate",
              "type": "uint256"
            }
          ],
          "internalType": "struct LiquidityLocker.Lock[]",
          "name": "",
          "type": "tuple[]"
        }
      ],
      "stateMutability": "view",
      "type": "function"
    },
    {
      "inputs": [
        {
          "internalType": "address",
          "name": "user",
          "type": "address"
        }
      ],
      "name": "normalLockCountForUser",
      "outputs": [
        {
          "internalType": "uint256",
          "name": "",
          "type": "uint256"
        }
      ],
      "stateMutability": "view",
      "type": "function"
    },
    {
      "inputs": [
        {
          "internalType": "address",
          "name": "user",
          "type": "address"
        },
        {
          "internalType": "uint256",
          "name": "index",
          "type": "uint256"
        }
      ],
      "name": "normalLockForUserAtIndex",
      "outputs": [
        {
          "components": [
            {
              "internalType": "uint256",
              "name": "id",
              "type": "uint256"
            },
            {
              "internalType": "address",
              "name": "token",
              "type": "address"
            },
            {
              "internalType": "address",
              "name": "owner",
              "type": "address"
            },
            {
              "internalType": "uint256",
              "name": "amount",
              "type": "uint256"
            },
            {
              "internalType": "uint256",
              "name": "lockDate",
              "type": "uint256"
            },
            {
              "internalType": "uint256",
              "name": "unlockDate",
              "type": "uint256"
            }
          ],
          "internalType": "struct LiquidityLocker.Lock",
          "name": "",
          "type": "tuple"
        }
      ],
      "stateMutability": "view",
      "type": "function"
    },
    {
      "inputs": [
        {
          "internalType": "address",
          "name": "user",
          "type": "address"
        }
      ],
      "name": "normalLocksForUser",
      "outputs": [
        {
          "components": [
            {
              "internalType": "uint256",
              "name": "id",
              "type": "uint256"
            },
            {
              "internalType": "address",
              "name": "token",
              "type": "address"
            },
            {
              "internalType": "address",
              "name": "owner",
              "type": "address"
            },
            {
              "internalType": "uint256",
              "name": "amount",
              "type": "uint256"
            },
            {
              "internalType": "uint256",
              "name": "lockDate",
              "type": "uint256"
            },
            {
              "internalType": "uint256",
              "name": "unlockDate",
              "type": "uint256"
            }
          ],
          "internalType": "struct LiquidityLocker.Lock[]",
          "name": "",
          "type": "tuple[]"
        }
      ],
      "stateMutability": "view",
      "type": "function"
    },
    {
      "inputs": [],
      "name": "owner",
      "outputs": [
        {
          "internalType": "address",
          "name": "",
          "type": "address"
        }
      ],
      "stateMutability": "view",
      "type": "function"
    },
    {
      "inputs": [],
      "name": "renounceOwnership",
      "outputs": [],
      "stateMutability": "nonpayable",
      "type": "function"
    },
    {
      "inputs": [
        {
          "internalType": "address",
          "name": "token",
          "type": "address"
        }
      ],
      "name": "totalLockCountForToken",
      "outputs": [
        {
          "internalType": "uint256",
          "name": "",
          "type": "uint256"
        }
      ],
      "stateMutability": "view",
      "type": "function"
    },
    {
      "inputs": [
        {
          "internalType": "address",
          "name": "user",
          "type": "address"
        }
      ],
      "name": "totalLockCountForUser",
      "outputs": [
        {
          "internalType": "uint256",
          "name": "",
          "type": "uint256"
        }
      ],
      "stateMutability": "view",
      "type": "function"
    },
    {
      "inputs": [],
      "name": "totalTokenLockedCount",
      "outputs": [
        {
          "internalType": "uint256",
          "name": "",
          "type": "uint256"
        }
      ],
      "stateMutability": "view",
      "type": "function"
    },
    {
      "inputs": [
        {
          "internalType": "address",
          "name": "newOwner",
          "type": "address"
        }
      ],
      "name": "transferOwnership",
      "outputs": [],
      "stateMutability": "nonpayable",
      "type": "function"
    },
    {
      "inputs": [
        {
          "internalType": "uint256",
          "name": "lockId",
          "type": "uint256"
        }
      ],
      "name": "unlock",
      "outputs": [],
      "stateMutability": "nonpayable",
      "type": "function"
    },
    {
      "inputs": [
        {
          "internalType": "address",
          "name": "newImplementation",
          "type": "address"
        }
      ],
      "name": "upgradeTo",
      "outputs": [],
      "stateMutability": "nonpayable",
      "type": "function"
    },
    {
      "inputs": [
        {
          "internalType": "address",
          "name": "newImplementation",
          "type": "address"
        },
        {
          "internalType": "bytes",
          "name": "data",
          "type": "bytes"
        }
      ],
      "name": "upgradeToAndCall",
      "outputs": [],
      "stateMutability": "payable",
      "type": "function"
    },
    {
      "inputs": [],
      "name": "withdrawFee",
      "outputs": [],
      "stateMutability": "nonpayable",
      "type": "function"
    }
  ],
  "bytecode": "0x60a06040523060805234801561001457600080fd5b5060805161329e610045600039600081816107c20152818161080b015281816108a001526108e0015261329e6000f3fe6080604052600436106101cd5760003560e01c8063a20b8c18116100f7578063da1d8cff11610095578063eb80bdae11610064578063eb80bdae1461053e578063eeacf7861461055e578063f2fde38b1461057e578063fd981c661461059e57600080fd5b8063da1d8cff1461047a578063e1444fd61461049a578063e3676f8814610509578063e941fa781461052957600080fd5b8063b3b9aa48116100d1578063b3b9aa4814610412578063b982922e14610425578063cd83eadc1461043a578063d68f4dd11461045a57600080fd5b8063a20b8c18146103b2578063aec640c6146103d2578063aef0e540146103f257600080fd5b8063618df7a31161016f57806376c128221161013e57806376c128221461031b5780637e6706d3146103485780638129fc1c146103755780638da5cb5b1461038a57600080fd5b8063618df7a3146102a65780636198e339146102d357806364be5b39146102f3578063715018a61461030657600080fd5b80633659cfe6116101ab5780633659cfe614610247578063475831c8146102695780634f1ef2861461027e5780635fbdf7391461029157600080fd5b806307873ef1146101d25780631982242c14610205578063332f26d71461021a575b600080fd5b3480156101de57600080fd5b506101f26101ed366004612c05565b6105b3565b6040519081526020015b60405180910390f35b34801561021157600080fd5b506101f26105da565b34801561022657600080fd5b5061023a610235366004612c22565b6105fb565b6040516101fc9190612c9f565b34801561025357600080fd5b50610267610262366004612c05565b6107b7565b005b34801561027557600080fd5b506101f2610889565b61026761028c366004612d03565b610895565b34801561029d57600080fd5b5061023a61094f565b3480156102b257600080fd5b506102c66102c1366004612dc7565b6109f0565b6040516101fc9190612df3565b3480156102df57600080fd5b506102676102ee366004612e01565b610adf565b6101f2610301366004612e28565b610d97565b34801561031257600080fd5b50610267610fd9565b34801561032757600080fd5b5061033b610336366004612e83565b61100f565b6040516101fc9190612ea5565b34801561035457600080fd5b50610368610363366004612e01565b611166565b6040516101fc9190612f09565b34801561038157600080fd5b506102676111dd565b34801561039657600080fd5b506033546040516001600160a01b0390911681526020016101fc565b3480156103be57600080fd5b506103686103cd366004612e01565b61129d565b3480156103de57600080fd5b5061033b6103ed366004612e83565b6112c9565b3480156103fe57600080fd5b5061023a61040d366004612c05565b611415565b610267610420366004612f38565b611570565b34801561043157600080fd5b506101f261183b565b34801561044657600080fd5b506101f2610455366004612c05565b611847565b34801561046657600080fd5b506102c6610475366004612e01565b611865565b34801561048657600080fd5b5061023a610495366004612c05565b6118e9565b3480156104a657600080fd5b506104e36104b5366004612c05565b60d0602052600090815260409020805460018201546002909201546001600160a01b03918216929091169083565b604080516001600160a01b039485168152939092166020840152908201526060016101fc565b34801561051557600080fd5b506101f2610524366004612c05565b611a3c565b34801561053557600080fd5b50610267611a5d565b34801561054a57600080fd5b506101f2610559366004612c05565b611aac565b34801561056a57600080fd5b506102c6610579366004612dc7565b611acd565b34801561058a57600080fd5b50610267610599366004612c05565b611b41565b3480156105aa57600080fd5b5060c9546101f2565b6001600160a01b038116600090815260ca602052604081206105d490611bd9565b92915050565b60006105e4610889565b6105ec61183b565b6105f69190612f7a565b905090565b6001600160a01b038316600090815260d16020526040902060609061061f90611bd9565b8210610656576001600160a01b038416600090815260d16020526040902060019061064990611bd9565b6106539190612f92565b91505b60006106628484612f92565b61066d906001612f7a565b905060008167ffffffffffffffff81111561068a5761068a612ced565b6040519080825280602002602001820160405280156106c357816020015b6106b0612ba8565b8152602001906001900390816106a85790505b5090506000855b8581116107a9576001600160a01b038816600090815260d16020526040902060c9906106f69083611be3565b8154811061070657610706612fa9565b60009182526020918290206040805160c08101825260069093029091018054835260018101546001600160a01b0390811694840194909452600281015490931690820152600382015460608201526004820154608082015260059091015460a0820152835184908490811061077d5761077d612fa9565b6020026020010181905250818061079390612fbf565b92505080806107a190612fbf565b9150506106ca565b5090925050505b9392505050565b306001600160a01b037f00000000000000000000000000000000000000000000000000000000000000001614156108095760405162461bcd60e51b815260040161080090612fda565b60405180910390fd5b7f00000000000000000000000000000000000000000000000000000000000000006001600160a01b031661083b611bef565b6001600160a01b0316146108615760405162461bcd60e51b815260040161080090613026565b61086a81611c1d565b6040805160008082526020820190925261088691839190611c47565b50565b60006105f660ce611bd9565b306001600160a01b037f00000000000000000000000000000000000000000000000000000000000000001614156108de5760405162461bcd60e51b815260040161080090612fda565b7f00000000000000000000000000000000000000000000000000000000000000006001600160a01b0316610910611bef565b6001600160a01b0316146109365760405162461bcd60e51b815260040161080090613026565b61093f82611c1d565b61094b82826001611c47565b5050565b606060c9805480602002602001604051908101604052809291908181526020016000905b828210156109e75760008481526020908190206040805160c08101825260068602909201805483526001808201546001600160a01b03908116858701526002830154169284019290925260038101546060840152600481015460808401526005015460a08301529083529092019101610973565b50505050905090565b6109f8612ba8565b81610a0284611aac565b11610a3f5760405162461bcd60e51b815260206004820152600d60248201526c092dcecc2d8d2c840d2dcc8caf609b1b6044820152606401610800565b6001600160a01b038316600090815260cb6020526040902060c990610a649084611be3565b81548110610a7457610a74612fa9565b60009182526020918290206040805160c08101825260069093029091018054835260018101546001600160a01b0390811694840194909452600281015490931690820152600382015460608201526004820154608082015260059091015460a0820152905092915050565b60c95481908110610b245760405162461bcd60e51b815260206004820152600f60248201526e125b9d985b1a59081b1bd8dac81a59608a1b6044820152606401610800565b600060c98381548110610b3957610b39612fa9565b600091825260209091206002600690920201908101549091506001600160a01b03163314610b795760405162461bcd60e51b815260040161080090613072565b8060050154421015610bcd5760405162461bcd60e51b815260206004820152601860248201527f4974206973206e6f742074696d6520746f20756e6c6f636b00000000000000006044820152606401610800565b6000816003015411610c155760405162461bcd60e51b81526020600482015260116024820152704e6f7468696e6720746f20756e6c6f636b60781b6044820152606401610800565b6001808201546001600160a01b03908116600090815260d060205260409020918201541615801590610c605733600090815260ca60205260409020610c5a9086611d92565b50610c7b565b33600090815260cb60205260409020610c799086611d92565b505b600383015460028301548110610c975760006002840155610cad565b808360020154610ca79190612f92565b60028401555b6002830154610cf8578115610cdc576001840154610cd69060cc906001600160a01b0316611d9e565b50610cf8565b6001840154610cf69060ce906001600160a01b0316611d9e565b505b600060038501819055845460018601546001600160a01b0316825260d16020526040909120610d2691611d92565b506001840154610d40906001600160a01b03163383611db3565b835460018501546040517fc6532367992b32e42a62dd89fc3574876d97d081a263aa6e030f34b79b7e6e8b91610d87916001600160a01b03909116903390869042906130b4565b60405180910390a2505050505050565b6000428211610df95760405162461bcd60e51b815260206004820152602860248201527f556e6c6f636b20646174652073686f756c642062652061667465722063757272604482015267656e742074696d6560c01b6064820152608401610800565b60008311610e495760405162461bcd60e51b815260206004820152601f60248201527f416d6f756e742073686f756c642062652067726561746572207468616e2030006044820152606401610800565b8315610f77576000856001600160a01b031663c45a01556040518163ffffffff1660e01b8152600401602060405180830381865afa925050508015610eab575060408051601f3d908101601f19168201909252610ea8918101906130dd565b60015b610ef75760405162461bcd60e51b815260206004820152601c60248201527f5468697320746f6b656e206973206e6f742061204c5020746f6b656e000000006044820152606401610800565b90506001600160a01b03811615801590610f165750610f168682611e1b565b610f625760405162461bcd60e51b815260206004820152601d60248201527f5468697320746f6b656e206973206e6f742061204c5020746f6b656e2e0000006044820152606401610800565b610f6f8787838787611f7e565b915050610f86565b610f838686858561204f565b90505b610f9285333086612119565b807f694af1cc8727cdd0afbdd53d9b87b69248bd490224e9dd090e788546506e076f86888686604051610fc894939291906130b4565b60405180910390a295945050505050565b6033546001600160a01b031633146110035760405162461bcd60e51b8152600401610800906130fa565b61100d600061226e565b565b606061101b60ce611bd9565b821061103a57600161102d60ce611bd9565b6110379190612f92565b91505b60006110468484612f92565b611051906001612f7a565b905060008167ffffffffffffffff81111561106e5761106e612ced565b6040519080825280602002602001820160405280156110b957816020015b604080516060810182526000808252602080830182905292820152825260001990920191018161108c5790505b5090506000855b85811161115b5760d060006110d660ce84611be3565b6001600160a01b0390811682526020808301939093526040918201600020825160608101845281548316815260018201549092169382019390935260029092015490820152835184908490811061112f5761112f612fa9565b6020026020010181905250818061114590612fbf565b925050808061115390612fbf565b9150506110c0565b509095945050505050565b604080516060810182526000808252602082018190529181019190915260d0600061119260ce85611be3565b6001600160a01b039081168252602080830193909352604091820160002082516060810184528154831681526001820154909216938201939093526002909201549082015292915050565b600054610100900460ff166111f85760005460ff16156111fc565b303b155b61125f5760405162461bcd60e51b815260206004820152602e60248201527f496e697469616c697a61626c653a20636f6e747261637420697320616c72656160448201526d191e481a5b9a5d1a585b1a5e995960921b6064820152608401610800565b600054610100900460ff16158015611281576000805461ffff19166101011790555b6112896122c0565b8015610886576000805461ff001916905550565b604080516060810182526000808252602082018190529181019190915260d0600061119260cc85611be3565b60606112d560cc611bd9565b82106112f45760016112e760cc611bd9565b6112f19190612f92565b91505b60006113008484612f92565b61130b906001612f7a565b905060008167ffffffffffffffff81111561132857611328612ced565b60405190808252806020026020018201604052801561137357816020015b60408051606081018252600080825260208083018290529282015282526000199092019101816113465790505b5090506000855b85811161115b5760d0600061139060cc84611be3565b6001600160a01b039081168252602080830193909352604091820160002082516060810184528154831681526001820154909216938201939093526002909201549082015283518490849081106113e9576113e9612fa9565b602002602001018190525081806113ff90612fbf565b925050808061140d90612fbf565b91505061137a565b6001600160a01b038116600090815260ca602052604081206060919061143a90611bd9565b905060008167ffffffffffffffff81111561145757611457612ced565b60405190808252806020026020018201604052801561149057816020015b61147d612ba8565b8152602001906001900390816114755790505b50905060005b82811015611568576001600160a01b038516600090815260ca6020526040902060c9906114c39083611be3565b815481106114d3576114d3612fa9565b60009182526020918290206040805160c08101825260069093029091018054835260018101546001600160a01b0390811694840194909452600281015490931690820152600382015460608201526004820154608082015260059091015460a0820152825183908390811061154a5761154a612fa9565b6020026020010181905250808061156090612fbf565b915050611496565b509392505050565b60c954839081106115b55760405162461bcd60e51b815260206004820152600f60248201526e125b9d985b1a59081b1bd8dac81a59608a1b6044820152606401610800565b600060c985815481106115ca576115ca612fa9565b600091825260209091206002600690920201908101549091506001600160a01b0316331461160a5760405162461bcd60e51b815260040161080090613072565b60008160030154116116525760405162461bcd60e51b8152602060048201526011602482015270131bd8dac81dd85cc81d5b9b1bd8dad959607a1b6044820152606401610800565b82156116f3578060050154831015801561166b57504283115b6116eb5760405162461bcd60e51b8152602060048201526044602482018190527f4e657720756e6c6f636b2074696d652073686f756c64206e6f74206265206265908201527f666f7265206f6c6420756e6c6f636b2074696d65206f722063757272656e742060648201526374696d6560e01b608482015260a401610800565b600581018390555b83156117d75780600301548410156117675760405162461bcd60e51b815260206004820152603160248201527f4e657720616d6f756e742073686f756c64206e6f74206265206c657373207468604482015270185b8818dd5c9c995b9d08185b5bdd5b9d607a1b6064820152608401610800565b60008160030154856117799190612f92565b905080156117d557600182015461179b906001600160a01b0316333084612119565b6003820185905560018201546001600160a01b0316600090815260d06020526040902060028101546117ce908390612f7a565b6002909101555b505b805460018201546002830154600384015460058501546040517fa8b26360df8d5e154ffa5a8a7e894e85f781acfbbef0b744fb9551d8fd0fd36c9461182c946001600160a01b039182169491169290916130b4565b60405180910390a25050505050565b60006105f660cc611bd9565b6000611852826105b3565b61185b83611aac565b6105d49190612f7a565b61186d612ba8565b60c9828154811061188057611880612fa9565b60009182526020918290206040805160c08101825260069093029091018054835260018101546001600160a01b0390811694840194909452600281015490931690820152600382015460608201526004820154608082015260059091015460a082015292915050565b6001600160a01b038116600090815260cb602052604081206060919061190e90611bd9565b905060008167ffffffffffffffff81111561192b5761192b612ced565b60405190808252806020026020018201604052801561196457816020015b611951612ba8565b8152602001906001900390816119495790505b50905060005b82811015611568576001600160a01b038516600090815260cb6020526040902060c9906119979083611be3565b815481106119a7576119a7612fa9565b60009182526020918290206040805160c08101825260069093029091018054835260018101546001600160a01b0390811694840194909452600281015490931690820152600382015460608201526004820154608082015260059091015460a08201528251839083908110611a1e57611a1e612fa9565b60200260200101819052508080611a3490612fbf565b91505061196a565b6001600160a01b038116600090815260d1602052604081206105d490611bd9565b6033546001600160a01b03163314611a875760405162461bcd60e51b8152600401610800906130fa565b61100d47611a9d6033546001600160a01b031690565b6001600160a01b0316906122f7565b6001600160a01b038116600090815260cb602052604081206105d490611bd9565b611ad5612ba8565b81611adf846105b3565b11611b1c5760405162461bcd60e51b815260206004820152600d60248201526c092dcecc2d8d2c840d2dcc8caf609b1b6044820152606401610800565b6001600160a01b038316600090815260ca6020526040902060c990610a649084611be3565b6033546001600160a01b03163314611b6b5760405162461bcd60e51b8152600401610800906130fa565b6001600160a01b038116611bd05760405162461bcd60e51b815260206004820152602660248201527f4f776e61626c653a206e6577206f776e657220697320746865207a65726f206160448201526564647265737360d01b6064820152608401610800565b6108868161226e565b60006105d4825490565b60006107b08383612410565b7f360894a13ba1a3210667c828492db98dca3e2076cc3735a920a3ca505d382bbc546001600160a01b031690565b6033546001600160a01b031633146108865760405162461bcd60e51b8152600401610800906130fa565b6000611c51611bef565b9050611c5c8461243a565b600083511180611c695750815b15611c7a57611c7884846124df565b505b7f4910fdfa16fed3260ed0e7147f7cc6da11a60208b5b9406d12a635614ffd9143805460ff16611d8b57805460ff191660011781556040516001600160a01b0383166024820152611cf990869060440160408051601f198184030181529190526020810180516001600160e01b0316631b2ce7f360e11b1790526124df565b50805460ff19168155611d0a611bef565b6001600160a01b0316826001600160a01b031614611d825760405162461bcd60e51b815260206004820152602f60248201527f45524331393637557067726164653a207570677261646520627265616b73206660448201526e75727468657220757067726164657360881b6064820152608401610800565b611d8b856125ca565b5050505050565b60006107b0838361260a565b60006107b0836001600160a01b03841661260a565b6040516001600160a01b038316602482015260448101829052611e1690849063a9059cbb60e01b906064015b60408051601f198184030181529190526020810180516001600160e01b03166001600160e01b0319909316929092179091526126fd565b505050565b6000808390506000836001600160a01b031663e6a43905836001600160a01b0316630dfe16816040518163ffffffff1660e01b8152600401602060405180830381865afa158015611e70573d6000803e3d6000fd5b505050506040513d601f19601f82011682018060405250810190611e9491906130dd565b846001600160a01b031663d21220a76040518163ffffffff1660e01b8152600401602060405180830381865afa158015611ed2573d6000803e3d6000fd5b505050506040513d601f19601f82011682018060405250810190611ef691906130dd565b6040516001600160e01b031960e085901b1681526001600160a01b03928316600482015291166024820152604401602060405180830381865afa158015611f41573d6000803e3d6000fd5b505050506040513d601f19601f82011682018060405250810190611f6591906130dd565b6001600160a01b03908116908616149250505092915050565b6000611f8c868685856127cf565b6001600160a01b038716600090815260ca60205260409020909150611fb1908261292b565b50611fbd60cc86612937565b506001600160a01b03808616600090815260d060205260409020805490911661200d5780546001600160a01b038088166001600160a01b0319928316178355600183018054918816919092161790555b83816002015461201d9190612f7a565b60028201556001600160a01b038616600090815260d160205260409020612044908361292b565b505095945050505050565b600061205d858585856127cf565b6001600160a01b038616600090815260cb60205260409020909150612082908261292b565b5061208e60ce85612937565b506001600160a01b03808516600090815260d06020526040902080549091166120d85780546001600160a01b0386166001600160a01b031991821617825560018201805490911690555b8381600201546120e89190612f7a565b60028201556001600160a01b038516600090815260d16020526040902061210f908361292b565b5050949350505050565b6040516370a0823160e01b81526001600160a01b038381166004830152600091908616906370a0823190602401602060405180830381865afa158015612163573d6000803e3d6000fd5b505050506040513d601f19601f82011682018060405250810190612187919061312f565b905061219e6001600160a01b03861685858561294c565b6040516370a0823160e01b81526001600160a01b038481166004830152600091908716906370a0823190602401602060405180830381865afa1580156121e8573d6000803e3d6000fd5b505050506040513d601f19601f8201168201806040525081019061220c919061312f565b9050826122198383612f92565b146122665760405162461bcd60e51b815260206004820152601f60248201527f4e6f7420656e6f75676820746f6b656e20776173207472616e736665726564006044820152606401610800565b505050505050565b603380546001600160a01b038381166001600160a01b0319831681179093556040519116919082907f8be0079c531659141344cd1fd0a4f28419497f9722a3daafe3b4186f6b6457e090600090a35050565b600054610100900460ff166122e75760405162461bcd60e51b815260040161080090613148565b6122ef61298a565b61100d6129b1565b804710156123475760405162461bcd60e51b815260206004820152601d60248201527f416464726573733a20696e73756666696369656e742062616c616e63650000006044820152606401610800565b6000826001600160a01b03168260405160006040518083038185875af1925050503d8060008114612394576040519150601f19603f3d011682016040523d82523d6000602084013e612399565b606091505b5050905080611e165760405162461bcd60e51b815260206004820152603a60248201527f416464726573733a20756e61626c6520746f2073656e642076616c75652c207260448201527f6563697069656e74206d617920686176652072657665727465640000000000006064820152608401610800565b600082600001828154811061242757612427612fa9565b9060005260206000200154905092915050565b803b61249e5760405162461bcd60e51b815260206004820152602d60248201527f455243313936373a206e657720696d706c656d656e746174696f6e206973206e60448201526c1bdd08184818dbdb9d1c9858dd609a1b6064820152608401610800565b7f360894a13ba1a3210667c828492db98dca3e2076cc3735a920a3ca505d382bbc80546001600160a01b0319166001600160a01b0392909216919091179055565b6060823b61253e5760405162461bcd60e51b815260206004820152602660248201527f416464726573733a2064656c65676174652063616c6c20746f206e6f6e2d636f6044820152651b9d1c9858dd60d21b6064820152608401610800565b600080846001600160a01b03168460405161255991906131bf565b600060405180830381855af49150503d8060008114612594576040519150601f19603f3d011682016040523d82523d6000602084013e612599565b606091505b50915091506125c18282604051806060016040528060278152602001613242602791396129e1565b95945050505050565b6125d38161243a565b6040516001600160a01b038216907fbc7cd75a20ee27fd9adebab32041f755214dbc6bffa90cc0225b39da2e5c2d3b90600090a250565b600081815260018301602052604081205480156126f357600061262e600183612f92565b855490915060009061264290600190612f92565b90508181146126a757600086600001828154811061266257612662612fa9565b906000526020600020015490508087600001848154811061268557612685612fa9565b6000918252602080832090910192909255918252600188019052604090208390555b85548690806126b8576126b86131db565b6001900381819060005260206000200160009055905585600101600086815260200190815260200160002060009055600193505050506105d4565b60009150506105d4565b6000612752826040518060400160405280602081526020017f5361666545524332303a206c6f772d6c6576656c2063616c6c206661696c6564815250856001600160a01b0316612a1a9092919063ffffffff16565b805190915015611e16578080602001905181019061277091906131f1565b611e165760405162461bcd60e51b815260206004820152602a60248201527f5361666545524332303a204552433230206f7065726174696f6e20646964206e6044820152691bdd081cdd58d8d9595960b21b6064820152608401610800565b60c980546040805160c0810182528281526001600160a01b039687166020820190815297871691810191825260608101958652426080820190815260a0820195865260018401855560009490945251600683027f66be4f155c5ef2ebd3772b228f2f00681e4ed5826cdb3b1943cc11ad15ad1d2881019190915596517f66be4f155c5ef2ebd3772b228f2f00681e4ed5826cdb3b1943cc11ad15ad1d29880180549188166001600160a01b031992831617905590517f66be4f155c5ef2ebd3772b228f2f00681e4ed5826cdb3b1943cc11ad15ad1d2a880180549190971691161790945591517f66be4f155c5ef2ebd3772b228f2f00681e4ed5826cdb3b1943cc11ad15ad1d2b85015590517f66be4f155c5ef2ebd3772b228f2f00681e4ed5826cdb3b1943cc11ad15ad1d2c840155517f66be4f155c5ef2ebd3772b228f2f00681e4ed5826cdb3b1943cc11ad15ad1d2d9092019190915590565b60006107b08383612a31565b60006107b0836001600160a01b038416612a31565b6040516001600160a01b03808516602483015283166044820152606481018290526129849085906323b872dd60e01b90608401611ddf565b50505050565b600054610100900460ff1661100d5760405162461bcd60e51b815260040161080090613148565b600054610100900460ff166129d85760405162461bcd60e51b815260040161080090613148565b61100d3361226e565b606083156129f05750816107b0565b825115612a005782518084602001fd5b8160405162461bcd60e51b8152600401610800919061320e565b6060612a298484600085612a80565b949350505050565b6000818152600183016020526040812054612a78575081546001818101845560008481526020808220909301849055845484825282860190935260409020919091556105d4565b5060006105d4565b606082471015612ae15760405162461bcd60e51b815260206004820152602660248201527f416464726573733a20696e73756666696369656e742062616c616e636520666f6044820152651c8818d85b1b60d21b6064820152608401610800565b843b612b2f5760405162461bcd60e51b815260206004820152601d60248201527f416464726573733a2063616c6c20746f206e6f6e2d636f6e74726163740000006044820152606401610800565b600080866001600160a01b03168587604051612b4b91906131bf565b60006040518083038185875af1925050503d8060008114612b88576040519150601f19603f3d011682016040523d82523d6000602084013e612b8d565b606091505b5091509150612b9d8282866129e1565b979650505050505050565b6040518060c001604052806000815260200160006001600160a01b0316815260200160006001600160a01b031681526020016000815260200160008152602001600081525090565b6001600160a01b038116811461088657600080fd5b600060208284031215612c1757600080fd5b81356107b081612bf0565b600080600060608486031215612c3757600080fd5b8335612c4281612bf0565b95602085013595506040909401359392505050565b80518252602081015160018060a01b0380821660208501528060408401511660408501525050606081015160608301526080810151608083015260a081015160a08301525050565b6020808252825182820181905260009190848201906040850190845b81811015612ce157612cce838551612c57565b9284019260c09290920191600101612cbb565b50909695505050505050565b634e487b7160e01b600052604160045260246000fd5b60008060408385031215612d1657600080fd5b8235612d2181612bf0565b9150602083013567ffffffffffffffff80821115612d3e57600080fd5b818501915085601f830112612d5257600080fd5b813581811115612d6457612d64612ced565b604051601f8201601f19908116603f01168101908382118183101715612d8c57612d8c612ced565b81604052828152886020848701011115612da557600080fd5b8260208601602083013760006020848301015280955050505050509250929050565b60008060408385031215612dda57600080fd5b8235612de581612bf0565b946020939093013593505050565b60c081016105d48284612c57565b600060208284031215612e1357600080fd5b5035919050565b801515811461088657600080fd5b600080600080600060a08688031215612e4057600080fd5b8535612e4b81612bf0565b94506020860135612e5b81612bf0565b93506040860135612e6b81612e1a565b94979396509394606081013594506080013592915050565b60008060408385031215612e9657600080fd5b50508035926020909101359150565b6020808252825182820181905260009190848201906040850190845b81811015612ce157612ef683855180516001600160a01b03908116835260208083015190911690830152604090810151910152565b9284019260609290920191600101612ec1565b81516001600160a01b0390811682526020808401519091169082015260408083015190820152606081016105d4565b600080600060608486031215612f4d57600080fd5b505081359360208301359350604090920135919050565b634e487b7160e01b600052601160045260246000fd5b60008219821115612f8d57612f8d612f64565b500190565b600082821015612fa457612fa4612f64565b500390565b634e487b7160e01b600052603260045260246000fd5b6000600019821415612fd357612fd3612f64565b5060010190565b6020808252602c908201527f46756e6374696f6e206d7573742062652063616c6c6564207468726f7567682060408201526b19195b1959d85d1958d85b1b60a21b606082015260800190565b6020808252602c908201527f46756e6374696f6e206d7573742062652063616c6c6564207468726f7567682060408201526b6163746976652070726f787960a01b606082015260800190565b60208082526022908201527f596f7520617265206e6f7420746865206f776e6572206f662074686973206c6f604082015261636b60f01b606082015260800190565b6001600160a01b0394851681529290931660208301526040820152606081019190915260800190565b6000602082840312156130ef57600080fd5b81516107b081612bf0565b6020808252818101527f4f776e61626c653a2063616c6c6572206973206e6f7420746865206f776e6572604082015260600190565b60006020828403121561314157600080fd5b5051919050565b6020808252602b908201527f496e697469616c697a61626c653a20636f6e7472616374206973206e6f74206960408201526a6e697469616c697a696e6760a81b606082015260800190565b60005b838110156131ae578181015183820152602001613196565b838111156129845750506000910152565b600082516131d1818460208701613193565b9190910192915050565b634e487b7160e01b600052603160045260246000fd5b60006020828403121561320357600080fd5b81516107b081612e1a565b602081526000825180602084015261322d816040850160208701613193565b601f01601f1916919091016040019291505056fe416464726573733a206c6f772d6c6576656c2064656c65676174652063616c6c206661696c6564a2646970667358221220ac4674ba83af362a9f93b34b6eebe039a83d7392f4b2760cb5e9be92ebb6bb2864736f6c634300080b0033",
  "linkReferences": {},
  "deployedLinkReferences": {}
}