{
  "_format": "hh-sol-artifact-1",
  "contractName": "TokenDelegator",
  "sourceName": "contracts/migration/TokenDelegator.sol",
  "abi": [
    {
      "inputs": [
        {
          "internalType": "contract TokenHolderRegister",
          "name": "tokenHolderRegister",
          "type": "address"
        },
        {
          "internalType": "contract IERC20",
          "name": "v1Token",
          "type": "address"
        }
      ],
      "stateMutability": "nonpayable",
      "type": "constructor"
    },
    {
      "anonymous": false,
      "inputs": [
        {
          "indexed": true,
          "internalType": "address",
          "name": "previousOwner",
          "type": "address"
        },
        {
          "indexed": true,
          "internalType": "address",
          "name": "newOwner",
          "type": "address"
        }
      ],
      "name": "OwnershipTransferred",
      "type": "event"
    },
    {
      "inputs": [],
      "name": "collectV1Tokens",
      "outputs": [],
      "stateMutability": "nonpayable",
      "type": "function"
    },
    {
      "inputs": [
        {
          "internalType": "address",
          "name": "holder",
          "type": "address"
        },
        {
          "internalType": "uint256",
          "name": "amount",
          "type": "uint256"
        }
      ],
      "name": "delegateV1Tokens",
      "outputs": [],
      "stateMutability": "nonpayable",
      "type": "function"
    },
    {
      "inputs": [],
      "name": "getPercentageDelegated",
      "outputs": [
        {
          "internalType": "uint256",
          "name": "",
          "type": "uint256"
        }
      ],
      "stateMutability": "view",
      "type": "function"
    },
    {
      "inputs": [],
      "name": "getTokenHolderRegister",
      "outputs": [
        {
          "internalType": "contract TokenHolderRegister",
          "name": "",
          "type": "address"
        }
      ],
      "stateMutability": "view",
      "type": "function"
    },
    {
      "inputs": [],
      "name": "getTotalDelegated",
      "outputs": [
        {
          "internalType": "uint256",
          "name": "",
          "type": "uint256"
        }
      ],
      "stateMutability": "view",
      "type": "function"
    },
    {
      "inputs": [],
      "name": "getV1Token",
      "outputs": [
        {
          "internalType": "contract IERC20",
          "name": "",
          "type": "address"
        }
      ],
      "stateMutability": "view",
      "type": "function"
    },
    {
      "inputs": [],
      "name": "owner",
      "outputs": [
        {
          "internalType": "address",
          "name": "",
          "type": "address"
        }
      ],
      "stateMutability": "view",
      "type": "function"
    },
    {
      "inputs": [],
      "name": "renounceOwnership",
      "outputs": [],
      "stateMutability": "nonpayable",
      "type": "function"
    },
    {
      "inputs": [
        {
          "internalType": "address",
          "name": "newOwner",
          "type": "address"
        }
      ],
      "name": "transferOwnership",
      "outputs": [],
      "stateMutability": "nonpayable",
      "type": "function"
    }
  ],
  "bytecode": "0x608060405234801561001057600080fd5b5060405161099538038061099583398101604081905261002f916100d1565b61003833610069565b600180546001600160a01b039384166001600160a01b0319918216179091556002805492909316911617905561010b565b600080546001600160a01b038381166001600160a01b0319831681178455604051919092169283917f8be0079c531659141344cd1fd0a4f28419497f9722a3daafe3b4186f6b6457e09190a35050565b6001600160a01b03811681146100ce57600080fd5b50565b600080604083850312156100e457600080fd5b82516100ef816100b9565b6020840151909250610100816100b9565b809150509250929050565b61087b8061011a6000396000f3fe608060405234801561001057600080fd5b50600436106100935760003560e01c80638da5cb5b116100665780638da5cb5b146100f35780638fa997be14610104578063ab67000a14610117578063f29768711461011f578063f2fde38b1461012757600080fd5b80632eacf755146100985780634508413d146100c2578063715018a6146100d8578063863682f6146100e2575b600080fd5b6001546001600160a01b03165b6040516001600160a01b0390911681526020015b60405180910390f35b6100ca61013a565b6040519081526020016100b9565b6100e0610239565b005b6002546001600160a01b03166100a5565b6000546001600160a01b03166100a5565b6100e061011236600461073a565b610278565b6100e06104a1565b6100ca6105cc565b6100e0610135366004610764565b61063a565b600254604080516318160ddd60e01b815290516000926001600160a01b0316916318160ddd9160048083019260209291908290030181865afa158015610184573d6000803e3d6000fd5b505050506040513d601f19601f820116820180604052508101906101a89190610786565b600160009054906101000a90046001600160a01b03166001600160a01b031663f08b82e66040518163ffffffff1660e01b8152600401602060405180830381865afa1580156101fb573d6000803e3d6000fd5b505050506040513d601f19601f8201168201806040525081019061021f9190610786565b61022a90606461079f565b61023491906107cc565b905090565b6000546001600160a01b0316331461026c5760405162461bcd60e51b8152600401610263906107ee565b60405180910390fd5b61027660006106ce565b565b600081116102dc5760405162461bcd60e51b815260206004820152602b60248201527f546f6b656e44656c656761746f723a2053686f756c64207472616e736665722060448201526a736f6d6520746f6b656e7360a81b6064820152608401610263565b6002546040516370a0823160e01b81526001600160a01b038481166004830152909116906370a0823190602401602060405180830381865afa158015610326573d6000803e3d6000fd5b505050506040513d601f19601f8201168201806040525081019061034a9190610786565b8111156103b45760405162461bcd60e51b815260206004820152603260248201527f546f6b656e44656c656761746f723a20486f6c64657220646f6573206e6f74206044820152716861766520656e6f75676820746f6b656e7360701b6064820152608401610263565b6002546040516323b872dd60e01b81526001600160a01b03848116600483015230602483015260448201849052909116906323b872dd906064016020604051808303816000875af115801561040d573d6000803e3d6000fd5b505050506040513d601f19601f820116820180604052508101906104319190610823565b1561049d57600154604051636039fbdb60e01b81526001600160a01b0384811660048301526024820184905290911690636039fbdb90604401600060405180830381600087803b15801561048457600080fd5b505af1158015610498573d6000803e3d6000fd5b505050505b5050565b6000546001600160a01b031633146104cb5760405162461bcd60e51b8152600401610263906107ee565b6002546001600160a01b031663a9059cbb6104ee6000546001600160a01b031690565b6002546040516370a0823160e01b81523060048201526001600160a01b03909116906370a0823190602401602060405180830381865afa158015610536573d6000803e3d6000fd5b505050506040513d601f19601f8201168201806040525081019061055a9190610786565b6040516001600160e01b031960e085901b1681526001600160a01b03909216600483015260248201526044016020604051808303816000875af11580156105a5573d6000803e3d6000fd5b505050506040513d601f19601f820116820180604052508101906105c99190610823565b50565b60015460408051637845c17360e11b815290516000926001600160a01b03169163f08b82e69160048083019260209291908290030181865afa158015610616573d6000803e3d6000fd5b505050506040513d601f19601f820116820180604052508101906102349190610786565b6000546001600160a01b031633146106645760405162461bcd60e51b8152600401610263906107ee565b6001600160a01b0381166106c95760405162461bcd60e51b815260206004820152602660248201527f4f776e61626c653a206e6577206f776e657220697320746865207a65726f206160448201526564647265737360d01b6064820152608401610263565b6105c9815b600080546001600160a01b038381166001600160a01b0319831681178455604051919092169283917f8be0079c531659141344cd1fd0a4f28419497f9722a3daafe3b4186f6b6457e09190a35050565b80356001600160a01b038116811461073557600080fd5b919050565b6000806040838503121561074d57600080fd5b6107568361071e565b946020939093013593505050565b60006020828403121561077657600080fd5b61077f8261071e565b9392505050565b60006020828403121561079857600080fd5b5051919050565b60008160001904831182151516156107c757634e487b7160e01b600052601160045260246000fd5b500290565b6000826107e957634e487b7160e01b600052601260045260246000fd5b500490565b6020808252818101527f4f776e61626c653a2063616c6c6572206973206e6f7420746865206f776e6572604082015260600190565b60006020828403121561083557600080fd5b8151801515811461077f57600080fdfea26469706673582212200cd08e9c58715e12c42153528e1875fc9dc40d6759a2fa59552d6819a3876f2a64736f6c634300080b0033",
  "linkReferences": {},
  "deployedLinkReferences": {}
}