{
  "_format": "hh-sol-artifact-1",
  "contractName": "Olympia",
  "sourceName": "contracts/tokens/Olympia.sol",
  "abi": [
    {
      "inputs": [
        {
          "internalType": "address",
          "name": "newRouter",
          "type": "address"
        },
        {
          "internalType": "address",
          "name": "newTeamWallet",
          "type": "address"
        },
        {
          "internalType": "address",
          "name": "newProviderWallet",
          "type": "address"
        },
        {
          "internalType": "address",
          "name": "newMarketingWallet",
          "type": "address"
        },
        {
          "internalType": "address",
          "name": "distributor",
          "type": "address"
        }
      ],
      "stateMutability": "nonpayable",
      "type": "constructor"
    },
    {
      "anonymous": false,
      "inputs": [
        {
          "indexed": true,
          "internalType": "address",
          "name": "owner",
          "type": "address"
        },
        {
          "indexed": true,
          "internalType": "address",
          "name": "spender",
          "type": "address"
        },
        {
          "indexed": false,
          "internalType": "uint256",
          "name": "value",
          "type": "uint256"
        }
      ],
      "name": "Approval",
      "type": "event"
    },
    {
      "anonymous": false,
      "inputs": [
        {
          "indexed": false,
          "internalType": "uint256",
          "name": "previousLiquidityFeesPerTenThousand",
          "type": "uint256"
        },
        {
          "indexed": false,
          "internalType": "uint256",
          "name": "newLiquidityFeesPerTenThousand",
          "type": "uint256"
        },
        {
          "indexed": false,
          "internalType": "uint256",
          "name": "previousTeamFeesPerTenThousand",
          "type": "uint256"
        },
        {
          "indexed": false,
          "internalType": "uint256",
          "name": "newTeamFeesPerTenThousand",
          "type": "uint256"
        },
        {
          "indexed": false,
          "internalType": "uint256",
          "name": "previousProviderFeesPerTenThousand",
          "type": "uint256"
        },
        {
          "indexed": false,
          "internalType": "uint256",
          "name": "newProviderFeesPerTenThousand",
          "type": "uint256"
        },
        {
          "indexed": false,
          "internalType": "uint256",
          "name": "previousMarketingFeesPerTenThousand",
          "type": "uint256"
        },
        {
          "indexed": false,
          "internalType": "uint256",
          "name": "newMarketingFeesPerTenThousand",
          "type": "uint256"
        },
        {
          "indexed": false,
          "internalType": "uint256",
          "name": "previousReflectionFeesPerTenThousand",
          "type": "uint256"
        },
        {
          "indexed": false,
          "internalType": "uint256",
          "name": "newReflectionFeesPerTenThousand",
          "type": "uint256"
        }
      ],
      "name": "BuyFeesUpdated",
      "type": "event"
    },
    {
      "anonymous": false,
      "inputs": [
        {
          "indexed": true,
          "internalType": "address",
          "name": "account",
          "type": "address"
        },
        {
          "indexed": false,
          "internalType": "bool",
          "name": "isExcluded",
          "type": "bool"
        }
      ],
      "name": "ExcludeFromFees",
      "type": "event"
    },
    {
      "anonymous": false,
      "inputs": [
        {
          "indexed": true,
          "internalType": "address",
          "name": "wallet",
          "type": "address"
        },
        {
          "indexed": false,
          "internalType": "uint256",
          "name": "amount",
          "type": "uint256"
        }
      ],
      "name": "FeesSentToWallet",
      "type": "event"
    },
    {
      "anonymous": false,
      "inputs": [
        {
          "indexed": true,
          "internalType": "uint256",
          "name": "oldValue",
          "type": "uint256"
        },
        {
          "indexed": true,
          "internalType": "uint256",
          "name": "newValue",
          "type": "uint256"
        }
      ],
      "name": "GasForProcessingUpdated",
      "type": "event"
    },
    {
      "anonymous": false,
      "inputs": [
        {
          "indexed": false,
          "internalType": "uint256",
          "name": "previousFeesPerTenThousand",
          "type": "uint256"
        },
        {
          "indexed": false,
          "internalType": "uint256",
          "name": "newFeesPerTenThousand",
          "type": "uint256"
        }
      ],
      "name": "LiquidityBuyFeesUpdated",
      "type": "event"
    },
    {
      "anonymous": false,
      "inputs": [
        {
          "indexed": false,
          "internalType": "uint256",
          "name": "previousFeesPerTenThousand",
          "type": "uint256"
        },
        {
          "indexed": false,
          "internalType": "uint256",
          "name": "newFeesPerTenThousand",
          "type": "uint256"
        }
      ],
      "name": "LiquiditySellFeesUpdated",
      "type": "event"
    },
    {
      "anonymous": false,
      "inputs": [
        {
          "indexed": false,
          "internalType": "uint256",
          "name": "previousFeesPerTenThousand",
          "type": "uint256"
        },
        {
          "indexed": false,
          "internalType": "uint256",
          "name": "newFeesPerTenThousand",
          "type": "uint256"
        }
      ],
      "name": "MarketingBuyFeesUpdated",
      "type": "event"
    },
    {
      "anonymous": false,
      "inputs": [
        {
          "indexed": false,
          "internalType": "uint256",
          "name": "previousFeesPerTenThousand",
          "type": "uint256"
        },
        {
          "indexed": false,
          "internalType": "uint256",
          "name": "newFeesPerTenThousand",
          "type": "uint256"
        }
      ],
      "name": "MarketingSellFeesUpdated",
      "type": "event"
    },
    {
      "anonymous": false,
      "inputs": [
        {
          "indexed": true,
          "internalType": "address",
          "name": "previousOwner",
          "type": "address"
        },
        {
          "indexed": true,
          "internalType": "address",
          "name": "newOwner",
          "type": "address"
        }
      ],
      "name": "OwnershipTransferred",
      "type": "event"
    },
    {
      "anonymous": false,
      "inputs": [
        {
          "indexed": false,
          "internalType": "uint256",
          "name": "previousFeesPerTenThousand",
          "type": "uint256"
        },
        {
          "indexed": false,
          "internalType": "uint256",
          "name": "newFeesPerTenThousand",
          "type": "uint256"
        }
      ],
      "name": "ProviderBuyFeesUpdated",
      "type": "event"
    },
    {
      "anonymous": false,
      "inputs": [
        {
          "indexed": false,
          "internalType": "uint256",
          "name": "previousFeesPerTenThousand",
          "type": "uint256"
        },
        {
          "indexed": false,
          "internalType": "uint256",
          "name": "newFeesPerTenThousand",
          "type": "uint256"
        }
      ],
      "name": "ProviderSellFeesUpdated",
      "type": "event"
    },
    {
      "anonymous": false,
      "inputs": [
        {
          "indexed": false,
          "internalType": "uint256",
          "name": "previousFeesPerTenThousand",
          "type": "uint256"
        },
        {
          "indexed": false,
          "internalType": "uint256",
          "name": "newFeesPerTenThousand",
          "type": "uint256"
        }
      ],
      "name": "ReflectionBuyFeesUpdated",
      "type": "event"
    },
    {
      "anonymous": false,
      "inputs": [
        {
          "indexed": true,
          "internalType": "address",
          "name": "sender",
          "type": "address"
        },
        {
          "indexed": true,
          "internalType": "address",
          "name": "recipient",
          "type": "address"
        }
      ],
      "name": "ReflectionDistributed",
      "type": "event"
    },
    {
      "anonymous": false,
      "inputs": [
        {
          "indexed": true,
          "internalType": "address",
          "name": "previousAddress",
          "type": "address"
        },
        {
          "indexed": true,
          "internalType": "address",
          "name": "newAddress",
          "type": "address"
        }
      ],
      "name": "ReflectionDistributorUpdated",
      "type": "event"
    },
    {
      "anonymous": false,
      "inputs": [
        {
          "indexed": false,
          "internalType": "uint256",
          "name": "previousFeesPerTenThousand",
          "type": "uint256"
        },
        {
          "indexed": false,
          "internalType": "uint256",
          "name": "newFeesPerTenThousand",
          "type": "uint256"
        }
      ],
      "name": "ReflectionSellFeesUpdated",
      "type": "event"
    },
    {
      "anonymous": false,
      "inputs": [
        {
          "indexed": false,
          "internalType": "uint256",
          "name": "previousLiquidityFeesPerTenThousand",
          "type": "uint256"
        },
        {
          "indexed": false,
          "internalType": "uint256",
          "name": "newLiquidityFeesPerTenThousand",
          "type": "uint256"
        },
        {
          "indexed": false,
          "internalType": "uint256",
          "name": "previousTeamFeesPerTenThousand",
          "type": "uint256"
        },
        {
          "indexed": false,
          "internalType": "uint256",
          "name": "newTeamFeesPerTenThousand",
          "type": "uint256"
        },
        {
          "indexed": false,
          "internalType": "uint256",
          "name": "previousProviderFeesPerTenThousand",
          "type": "uint256"
        },
        {
          "indexed": false,
          "internalType": "uint256",
          "name": "newProviderFeesPerTenThousand",
          "type": "uint256"
        },
        {
          "indexed": false,
          "internalType": "uint256",
          "name": "previousMarketingFeesPerTenThousand",
          "type": "uint256"
        },
        {
          "indexed": false,
          "internalType": "uint256",
          "name": "newMarketingFeesPerTenThousand",
          "type": "uint256"
        },
        {
          "indexed": false,
          "internalType": "uint256",
          "name": "previousReflectionFeesPerTenThousand",
          "type": "uint256"
        },
        {
          "indexed": false,
          "internalType": "uint256",
          "name": "newReflectionFeesPerTenThousand",
          "type": "uint256"
        }
      ],
      "name": "SellFeesUpdated",
      "type": "event"
    },
    {
      "anonymous": false,
      "inputs": [
        {
          "indexed": true,
          "internalType": "address",
          "name": "pair",
          "type": "address"
        },
        {
          "indexed": true,
          "internalType": "bool",
          "name": "value",
          "type": "bool"
        }
      ],
      "name": "SetAutomatedMarketMakerPair",
      "type": "event"
    },
    {
      "anonymous": false,
      "inputs": [
        {
          "indexed": false,
          "internalType": "uint256",
          "name": "tokensSwapped",
          "type": "uint256"
        },
        {
          "indexed": false,
          "internalType": "uint256",
          "name": "ethReceived",
          "type": "uint256"
        },
        {
          "indexed": false,
          "internalType": "uint256",
          "name": "tokensIntoLiqudity",
          "type": "uint256"
        }
      ],
      "name": "SwapAndLiquify",
      "type": "event"
    },
    {
      "anonymous": false,
      "inputs": [
        {
          "indexed": false,
          "internalType": "uint256",
          "name": "previousFeesPerTenThousand",
          "type": "uint256"
        },
        {
          "indexed": false,
          "internalType": "uint256",
          "name": "newFeesPerTenThousand",
          "type": "uint256"
        }
      ],
      "name": "TeamBuyFeesUpdated",
      "type": "event"
    },
    {
      "anonymous": false,
      "inputs": [
        {
          "indexed": false,
          "internalType": "uint256",
          "name": "previousFeesPerTenThousand",
          "type": "uint256"
        },
        {
          "indexed": false,
          "internalType": "uint256",
          "name": "newFeesPerTenThousand",
          "type": "uint256"
        }
      ],
      "name": "TeamSellFeesUpdated",
      "type": "event"
    },
    {
      "anonymous": false,
      "inputs": [
        {
          "indexed": true,
          "internalType": "address",
          "name": "from",
          "type": "address"
        },
        {
          "indexed": true,
          "internalType": "address",
          "name": "to",
          "type": "address"
        },
        {
          "indexed": false,
          "internalType": "uint256",
          "name": "value",
          "type": "uint256"
        }
      ],
      "name": "Transfer",
      "type": "event"
    },
    {
      "anonymous": false,
      "inputs": [
        {
          "indexed": true,
          "internalType": "address",
          "name": "previousWallet",
          "type": "address"
        },
        {
          "indexed": true,
          "internalType": "address",
          "name": "newWallet",
          "type": "address"
        }
      ],
      "name": "UpdateMarketingWallet",
      "type": "event"
    },
    {
      "anonymous": false,
      "inputs": [
        {
          "indexed": true,
          "internalType": "address",
          "name": "previousWallet",
          "type": "address"
        },
        {
          "indexed": true,
          "internalType": "address",
          "name": "newWallet",
          "type": "address"
        }
      ],
      "name": "UpdateProviderWallet",
      "type": "event"
    },
    {
      "anonymous": false,
      "inputs": [
        {
          "indexed": true,
          "internalType": "address",
          "name": "previousWallet",
          "type": "address"
        },
        {
          "indexed": true,
          "internalType": "address",
          "name": "newWallet",
          "type": "address"
        }
      ],
      "name": "UpdateTeamWallet",
      "type": "event"
    },
    {
      "anonymous": false,
      "inputs": [
        {
          "indexed": true,
          "internalType": "address",
          "name": "previousAddress",
          "type": "address"
        },
        {
          "indexed": true,
          "internalType": "address",
          "name": "newAddress",
          "type": "address"
        }
      ],
      "name": "UpdateUniswapV2Router",
      "type": "event"
    },
    {
      "inputs": [
        {
          "internalType": "address",
          "name": "sender",
          "type": "address"
        },
        {
          "internalType": "address",
          "name": "recipient",
          "type": "address"
        }
      ],
      "name": "_distributeReflection",
      "outputs": [],
      "stateMutability": "nonpayable",
      "type": "function"
    },
    {
      "inputs": [
        {
          "internalType": "address",
          "name": "owner",
          "type": "address"
        },
        {
          "internalType": "address",
          "name": "spender",
          "type": "address"
        }
      ],
      "name": "allowance",
      "outputs": [
        {
          "internalType": "uint256",
          "name": "",
          "type": "uint256"
        }
      ],
      "stateMutability": "view",
      "type": "function"
    },
    {
      "inputs": [
        {
          "internalType": "address",
          "name": "spender",
          "type": "address"
        },
        {
          "internalType": "uint256",
          "name": "amount",
          "type": "uint256"
        }
      ],
      "name": "approve",
      "outputs": [
        {
          "internalType": "bool",
          "name": "",
          "type": "bool"
        }
      ],
      "stateMutability": "nonpayable",
      "type": "function"
    },
    {
      "inputs": [
        {
          "internalType": "address",
          "name": "account",
          "type": "address"
        }
      ],
      "name": "balanceOf",
      "outputs": [
        {
          "internalType": "uint256",
          "name": "",
          "type": "uint256"
        }
      ],
      "stateMutability": "view",
      "type": "function"
    },
    {
      "inputs": [
        {
          "internalType": "address",
          "name": "account",
          "type": "address"
        },
        {
          "internalType": "bool",
          "name": "value",
          "type": "bool"
        }
      ],
      "name": "blacklistAddress",
      "outputs": [],
      "stateMutability": "nonpayable",
      "type": "function"
    },
    {
      "inputs": [],
      "name": "buyFees",
      "outputs": [
        {
          "internalType": "uint256",
          "name": "liquidityFeesPerTenThousand",
          "type": "uint256"
        },
        {
          "internalType": "uint256",
          "name": "teamFeesPerTenThousand",
          "type": "uint256"
        },
        {
          "internalType": "uint256",
          "name": "providerFeesPerTenThousand",
          "type": "uint256"
        },
        {
          "internalType": "uint256",
          "name": "marketingFeesPerTenThousand",
          "type": "uint256"
        },
        {
          "internalType": "uint256",
          "name": "reflectionFeesPerTenThousand",
          "type": "uint256"
        },
        {
          "internalType": "uint256",
          "name": "totalFeePerTenThousand",
          "type": "uint256"
        }
      ],
      "stateMutability": "view",
      "type": "function"
    },
    {
      "inputs": [],
      "name": "decimals",
      "outputs": [
        {
          "internalType": "uint8",
          "name": "",
          "type": "uint8"
        }
      ],
      "stateMutability": "view",
      "type": "function"
    },
    {
      "inputs": [
        {
          "internalType": "address",
          "name": "spender",
          "type": "address"
        },
        {
          "internalType": "uint256",
          "name": "subtractedValue",
          "type": "uint256"
        }
      ],
      "name": "decreaseAllowance",
      "outputs": [
        {
          "internalType": "bool",
          "name": "",
          "type": "bool"
        }
      ],
      "stateMutability": "nonpayable",
      "type": "function"
    },
    {
      "inputs": [
        {
          "internalType": "address",
          "name": "account",
          "type": "address"
        },
        {
          "internalType": "bool",
          "name": "excluded",
          "type": "bool"
        }
      ],
      "name": "excludeFromFees",
      "outputs": [],
      "stateMutability": "nonpayable",
      "type": "function"
    },
    {
      "inputs": [],
      "name": "gasForProcessing",
      "outputs": [
        {
          "internalType": "uint256",
          "name": "",
          "type": "uint256"
        }
      ],
      "stateMutability": "view",
      "type": "function"
    },
    {
      "inputs": [
        {
          "internalType": "address",
          "name": "spender",
          "type": "address"
        },
        {
          "internalType": "uint256",
          "name": "addedValue",
          "type": "uint256"
        }
      ],
      "name": "increaseAllowance",
      "outputs": [
        {
          "internalType": "bool",
          "name": "",
          "type": "bool"
        }
      ],
      "stateMutability": "nonpayable",
      "type": "function"
    },
    {
      "inputs": [
        {
          "internalType": "address",
          "name": "account",
          "type": "address"
        }
      ],
      "name": "isAutomatedMarketMakerPair",
      "outputs": [
        {
          "internalType": "bool",
          "name": "",
          "type": "bool"
        }
      ],
      "stateMutability": "view",
      "type": "function"
    },
    {
      "inputs": [
        {
          "internalType": "address",
          "name": "account",
          "type": "address"
        }
      ],
      "name": "isBlacklisted",
      "outputs": [
        {
          "internalType": "bool",
          "name": "",
          "type": "bool"
        }
      ],
      "stateMutability": "view",
      "type": "function"
    },
    {
      "inputs": [
        {
          "internalType": "address",
          "name": "account",
          "type": "address"
        }
      ],
      "name": "isExcludedFromFees",
      "outputs": [
        {
          "internalType": "bool",
          "name": "",
          "type": "bool"
        }
      ],
      "stateMutability": "view",
      "type": "function"
    },
    {
      "inputs": [],
      "name": "marketingWallet",
      "outputs": [
        {
          "internalType": "address",
          "name": "",
          "type": "address"
        }
      ],
      "stateMutability": "view",
      "type": "function"
    },
    {
      "inputs": [],
      "name": "name",
      "outputs": [
        {
          "internalType": "string",
          "name": "",
          "type": "string"
        }
      ],
      "stateMutability": "view",
      "type": "function"
    },
    {
      "inputs": [],
      "name": "owner",
      "outputs": [
        {
          "internalType": "address",
          "name": "",
          "type": "address"
        }
      ],
      "stateMutability": "view",
      "type": "function"
    },
    {
      "inputs": [],
      "name": "providerWallet",
      "outputs": [
        {
          "internalType": "address",
          "name": "",
          "type": "address"
        }
      ],
      "stateMutability": "view",
      "type": "function"
    },
    {
      "inputs": [],
      "name": "reflectionDistributor",
      "outputs": [
        {
          "internalType": "address",
          "name": "",
          "type": "address"
        }
      ],
      "stateMutability": "view",
      "type": "function"
    },
    {
      "inputs": [],
      "name": "renounceOwnership",
      "outputs": [],
      "stateMutability": "nonpayable",
      "type": "function"
    },
    {
      "inputs": [],
      "name": "router",
      "outputs": [
        {
          "internalType": "address",
          "name": "",
          "type": "address"
        }
      ],
      "stateMutability": "view",
      "type": "function"
    },
    {
      "inputs": [],
      "name": "sellFees",
      "outputs": [
        {
          "internalType": "uint256",
          "name": "liquidityFeesPerTenThousand",
          "type": "uint256"
        },
        {
          "internalType": "uint256",
          "name": "teamFeesPerTenThousand",
          "type": "uint256"
        },
        {
          "internalType": "uint256",
          "name": "providerFeesPerTenThousand",
          "type": "uint256"
        },
        {
          "internalType": "uint256",
          "name": "marketingFeesPerTenThousand",
          "type": "uint256"
        },
        {
          "internalType": "uint256",
          "name": "reflectionFeesPerTenThousand",
          "type": "uint256"
        },
        {
          "internalType": "uint256",
          "name": "totalFeePerTenThousand",
          "type": "uint256"
        }
      ],
      "stateMutability": "view",
      "type": "function"
    },
    {
      "inputs": [
        {
          "internalType": "address",
          "name": "newPair",
          "type": "address"
        },
        {
          "internalType": "bool",
          "name": "value",
          "type": "bool"
        }
      ],
      "name": "setAutomatedMarketMakerPair",
      "outputs": [],
      "stateMutability": "nonpayable",
      "type": "function"
    },
    {
      "inputs": [],
      "name": "swapThreshold",
      "outputs": [
        {
          "internalType": "uint256",
          "name": "",
          "type": "uint256"
        }
      ],
      "stateMutability": "view",
      "type": "function"
    },
    {
      "inputs": [],
      "name": "symbol",
      "outputs": [
        {
          "internalType": "string",
          "name": "",
          "type": "string"
        }
      ],
      "stateMutability": "view",
      "type": "function"
    },
    {
      "inputs": [],
      "name": "teamWallet",
      "outputs": [
        {
          "internalType": "address",
          "name": "",
          "type": "address"
        }
      ],
      "stateMutability": "view",
      "type": "function"
    },
    {
      "inputs": [],
      "name": "totalBuyFees",
      "outputs": [
        {
          "internalType": "uint256",
          "name": "",
          "type": "uint256"
        }
      ],
      "stateMutability": "view",
      "type": "function"
    },
    {
      "inputs": [],
      "name": "totalSellFees",
      "outputs": [
        {
          "internalType": "uint256",
          "name": "",
          "type": "uint256"
        }
      ],
      "stateMutability": "view",
      "type": "function"
    },
    {
      "inputs": [],
      "name": "totalSupply",
      "outputs": [
        {
          "internalType": "uint256",
          "name": "",
          "type": "uint256"
        }
      ],
      "stateMutability": "view",
      "type": "function"
    },
    {
      "inputs": [
        {
          "internalType": "address",
          "name": "recipient",
          "type": "address"
        },
        {
          "internalType": "uint256",
          "name": "amount",
          "type": "uint256"
        }
      ],
      "name": "transfer",
      "outputs": [
        {
          "internalType": "bool",
          "name": "",
          "type": "bool"
        }
      ],
      "stateMutability": "nonpayable",
      "type": "function"
    },
    {
      "inputs": [
        {
          "internalType": "address",
          "name": "sender",
          "type": "address"
        },
        {
          "internalType": "address",
          "name": "recipient",
          "type": "address"
        },
        {
          "internalType": "uint256",
          "name": "amount",
          "type": "uint256"
        }
      ],
      "name": "transferFrom",
      "outputs": [
        {
          "internalType": "bool",
          "name": "",
          "type": "bool"
        }
      ],
      "stateMutability": "nonpayable",
      "type": "function"
    },
    {
      "inputs": [
        {
          "internalType": "address",
          "name": "newOwner",
          "type": "address"
        }
      ],
      "name": "transferOwnership",
      "outputs": [],
      "stateMutability": "nonpayable",
      "type": "function"
    },
    {
      "inputs": [
        {
          "internalType": "uint256",
          "name": "liquidityFeesPerTenThousand",
          "type": "uint256"
        },
        {
          "internalType": "uint256",
          "name": "teamFeesPerTenThousand",
          "type": "uint256"
        },
        {
          "internalType": "uint256",
          "name": "providerFeesPerTenThousand",
          "type": "uint256"
        },
        {
          "internalType": "uint256",
          "name": "marketingFeesPerTenThousand",
          "type": "uint256"
        },
        {
          "internalType": "uint256",
          "name": "reflectionFeesPerTenThousand",
          "type": "uint256"
        }
      ],
      "name": "updateBuyFees",
      "outputs": [],
      "stateMutability": "nonpayable",
      "type": "function"
    },
    {
      "inputs": [
        {
          "internalType": "uint256",
          "name": "newValue",
          "type": "uint256"
        }
      ],
      "name": "updateGasForProcessing",
      "outputs": [],
      "stateMutability": "nonpayable",
      "type": "function"
    },
    {
      "inputs": [
        {
          "internalType": "uint256",
          "name": "feesPerTenThousand",
          "type": "uint256"
        }
      ],
      "name": "updateLiquidityBuyFees",
      "outputs": [],
      "stateMutability": "nonpayable",
      "type": "function"
    },
    {
      "inputs": [
        {
          "internalType": "uint256",
          "name": "feesPerTenThousand",
          "type": "uint256"
        }
      ],
      "name": "updateLiquiditySellFees",
      "outputs": [],
      "stateMutability": "nonpayable",
      "type": "function"
    },
    {
      "inputs": [
        {
          "internalType": "uint256",
          "name": "feesPerTenThousand",
          "type": "uint256"
        }
      ],
      "name": "updateMarketingBuyFees",
      "outputs": [],
      "stateMutability": "nonpayable",
      "type": "function"
    },
    {
      "inputs": [
        {
          "internalType": "uint256",
          "name": "feesPerTenThousand",
          "type": "uint256"
        }
      ],
      "name": "updateMarketingSellFees",
      "outputs": [],
      "stateMutability": "nonpayable",
      "type": "function"
    },
    {
      "inputs": [
        {
          "internalType": "address payable",
          "name": "newWallet",
          "type": "address"
        }
      ],
      "name": "updateMarketingWallet",
      "outputs": [],
      "stateMutability": "nonpayable",
      "type": "function"
    },
    {
      "inputs": [
        {
          "internalType": "uint256",
          "name": "feesPerTenThousand",
          "type": "uint256"
        }
      ],
      "name": "updateProviderBuyFees",
      "outputs": [],
      "stateMutability": "nonpayable",
      "type": "function"
    },
    {
      "inputs": [
        {
          "internalType": "uint256",
          "name": "feesPerTenThousand",
          "type": "uint256"
        }
      ],
      "name": "updateProviderSellFees",
      "outputs": [],
      "stateMutability": "nonpayable",
      "type": "function"
    },
    {
      "inputs": [
        {
          "internalType": "address payable",
          "name": "newWallet",
          "type": "address"
        }
      ],
      "name": "updateProviderWallet",
      "outputs": [],
      "stateMutability": "nonpayable",
      "type": "function"
    },
    {
      "inputs": [
        {
          "internalType": "uint256",
          "name": "feesPerTenThousand",
          "type": "uint256"
        }
      ],
      "name": "updateReflectionBuyFees",
      "outputs": [],
      "stateMutability": "nonpayable",
      "type": "function"
    },
    {
      "inputs": [
        {
          "internalType": "address",
          "name": "distributor",
          "type": "address"
        }
      ],
      "name": "updateReflectionDistributor",
      "outputs": [],
      "stateMutability": "nonpayable",
      "type": "function"
    },
    {
      "inputs": [
        {
          "internalType": "uint256",
          "name": "feesPerTenThousand",
          "type": "uint256"
        }
      ],
      "name": "updateReflectionSellFees",
      "outputs": [],
      "stateMutability": "nonpayable",
      "type": "function"
    },
    {
      "inputs": [
        {
          "internalType": "uint256",
          "name": "liquidityFeesPerTenThousand",
          "type": "uint256"
        },
        {
          "internalType": "uint256",
          "name": "teamFeesPerTenThousand",
          "type": "uint256"
        },
        {
          "internalType": "uint256",
          "name": "providerFeesPerTenThousand",
          "type": "uint256"
        },
        {
          "internalType": "uint256",
          "name": "marketingFeesPerTenThousand",
          "type": "uint256"
        },
        {
          "internalType": "uint256",
          "name": "reflectionFeesPerTenThousand",
          "type": "uint256"
        }
      ],
      "name": "updateSellFees",
      "outputs": [],
      "stateMutability": "nonpayable",
      "type": "function"
    },
    {
      "inputs": [
        {
          "internalType": "uint256",
          "name": "threshold",
          "type": "uint256"
        }
      ],
      "name": "updateSwapThreshold",
      "outputs": [],
      "stateMutability": "nonpayable",
      "type": "function"
    },
    {
      "inputs": [
        {
          "internalType": "uint256",
          "name": "feesPerTenThousand",
          "type": "uint256"
        }
      ],
      "name": "updateTeamBuyFees",
      "outputs": [],
      "stateMutability": "nonpayable",
      "type": "function"
    },
    {
      "inputs": [
        {
          "internalType": "uint256",
          "name": "feesPerTenThousand",
          "type": "uint256"
        }
      ],
      "name": "updateTeamSellFees",
      "outputs": [],
      "stateMutability": "nonpayable",
      "type": "function"
    },
    {
      "inputs": [
        {
          "internalType": "address payable",
          "name": "newWallet",
          "type": "address"
        }
      ],
      "name": "updateTeamWallet",
      "outputs": [],
      "stateMutability": "nonpayable",
      "type": "function"
    },
    {
      "inputs": [
        {
          "internalType": "address",
          "name": "newRouter",
          "type": "address"
        }
      ],
      "name": "updateUniswapV2Router",
      "outputs": [],
      "stateMutability": "nonpayable",
      "type": "function"
    },
    {
      "stateMutability": "payable",
      "type": "receive"
    }
  ],
  "bytecode": "0x6080604052620000126012600a62000718565b6200002190624c4b4062000730565b601555620493e0601655601780546001600160a01b03191661dead1790553480156200004c57600080fd5b5060405162004280380380620042808339810160408190526200006f916200076f565b604051806040016040528060078152602001664f6c796d70696160c81b81525060405180604001604052806003815260200162534f4f60e81b8152508160039080519060200190620000c39291906200055d565b508051620000d99060049060208401906200055d565b505050620000f6620000f06200032960201b60201c565b6200032d565b600680546001600160a01b038088166001600160a01b031992831681179093556018805488831690841617905560198054878316908416179055601a8054868316908416179055601b8054918516919092161790556040805163c45a015560e01b81529051600091839163c45a0155916004808201926020929091908290030181865afa1580156200018c573d6000803e3d6000fd5b505050506040513d601f19601f82011682018060405250810190620001b29190620007df565b6001600160a01b031663c9c6539630846001600160a01b031663ad5c46486040518163ffffffff1660e01b8152600401602060405180830381865afa15801562000200573d6000803e3d6000fd5b505050506040513d601f19601f82011682018060405250810190620002269190620007df565b6040516001600160e01b031960e085901b1681526001600160a01b039283166004820152911660248201526044016020604051808303816000875af115801562000274573d6000803e3d6000fd5b505050506040513d601f19601f820116820180604052508101906200029a9190620007df565b9050620002a98160016200037f565b60c8600b819055600c819055600d81905561012c600e819055600f819055601082905560118290556012919091556101f46013556014556200031c620002f76005546001600160a01b031690565b620003056012600a62000718565b620003169064174876e80062000730565b62000478565b5050505050505062000855565b3390565b600580546001600160a01b038381166001600160a01b0319831681179093556040519116919082907f8be0079c531659141344cd1fd0a4f28419497f9722a3daafe3b4186f6b6457e090600090a35050565b6001600160a01b03821660009081526007602052604090205460ff1615158115151415620004245760405162461bcd60e51b815260206004820152604160248201527f4f6c796d7069613a204175746f6d61746564206d61726b6574206d616b65722060448201527f7061697220697320616c72656164792073657420746f20746861742076616c756064820152606560f81b608482015260a4015b60405180910390fd5b6001600160a01b038216600081815260076020526040808220805460ff191685151590811790915590519092917fffa9187bf1f18bf477bd0ea1bcbb64e93b6a98132473929edfce215cd9b16fab91a35050565b6001600160a01b038216620004d05760405162461bcd60e51b815260206004820152601f60248201527f45524332303a206d696e7420746f20746865207a65726f20616464726573730060448201526064016200041b565b8060026000828254620004e49190620007fd565b90915550506001600160a01b0382166000908152602081905260408120805483929062000513908490620007fd565b90915550506040518181526001600160a01b038316906000907fddf252ad1be2c89b69c2b068fc378daa952ba7f163c4a11628f55a4df523b3ef9060200160405180910390a35050565b8280546200056b9062000818565b90600052602060002090601f0160209004810192826200058f5760008555620005da565b82601f10620005aa57805160ff1916838001178555620005da565b82800160010185558215620005da579182015b82811115620005da578251825591602001919060010190620005bd565b50620005e8929150620005ec565b5090565b5b80821115620005e85760008155600101620005ed565b634e487b7160e01b600052601160045260246000fd5b600181815b808511156200065a5781600019048211156200063e576200063e62000603565b808516156200064c57918102915b93841c93908002906200061e565b509250929050565b600082620006735750600162000712565b81620006825750600062000712565b81600181146200069b5760028114620006a657620006c6565b600191505062000712565b60ff841115620006ba57620006ba62000603565b50506001821b62000712565b5060208310610133831016604e8410600b8410161715620006eb575081810a62000712565b620006f7838362000619565b80600019048211156200070e576200070e62000603565b0290505b92915050565b60006200072960ff84168362000662565b9392505050565b60008160001904831182151516156200074d576200074d62000603565b500290565b80516001600160a01b03811681146200076a57600080fd5b919050565b600080600080600060a086880312156200078857600080fd5b620007938662000752565b9450620007a36020870162000752565b9350620007b36040870162000752565b9250620007c36060870162000752565b9150620007d36080870162000752565b90509295509295909350565b600060208284031215620007f257600080fd5b620007298262000752565b6000821982111562000813576200081362000603565b500190565b600181811c908216806200082d57607f821691505b602082108114156200084f57634e487b7160e01b600052602260045260246000fd5b50919050565b613a1b80620008656000396000f3fe6080604052600436106102e85760003560e01c8063871c128d11610190578063cc274b29116100dc578063e4748b9e11610095578063f2fde38b1161006f578063f2fde38b14610935578063f887ea4014610955578063fe575a8714610973578063ff935af6146109ac57600080fd5b8063e4748b9e146108e0578063f1597e41146108f5578063f170d7fd1461091557600080fd5b8063cc274b29146107e3578063ccec596514610803578063d0a3981414610823578063d62b781f14610838578063dd62ed3e14610858578063e0f3ccf51461089e57600080fd5b8063a457c2d711610149578063b9e9370011610123578063b9e937001461076e578063bcace14514610783578063bda45dfc146107a3578063c0246668146107c357600080fd5b8063a457c2d71461070e578063a9059cbb1461072e578063aacebbe31461074e57600080fd5b8063871c128d1461066657806387576e0b146106865780638da5cb5b146106a657806395d89b41146106c45780639a7a23d6146106d95780639c1b8af5146106f957600080fd5b8063395093511161024f5780636edbaa3f1161020857806375f0a874116101e257806375f0a874146105cf5780637949a403146105ed5780637cb332bb1461062657806383f0a7161461064657600080fd5b80636edbaa3f1461056457806370a0823114610584578063715018a6146105ba57600080fd5b8063395093511461048d578063455a4396146104ad5780634f3b323f146104cd5780634fbee193146104ed578063599270441461052657806365b8dbc01461054457600080fd5b80631c5046e0116102a15780631c5046e0146103d357806320ff2e02146103f357806323b872dd14610413578063284f692a146104335780632e0d993614610453578063313ce5671461047157600080fd5b80630445b667146102f457806306fdde0314610318578063095ea7b31461033a57806316c5aa0e1461036a57806318160ddd1461039c578063186abbc3146103b157600080fd5b366102ef57005b600080fd5b34801561030057600080fd5b506015545b6040519081526020015b60405180910390f35b34801561032457600080fd5b5061032d6109cc565b60405161030f9190613531565b34801561034657600080fd5b5061035a61035536600461359b565b610a5e565b604051901515815260200161030f565b34801561037657600080fd5b506019546001600160a01b03165b6040516001600160a01b03909116815260200161030f565b3480156103a857600080fd5b50600254610305565b3480156103bd57600080fd5b506103d16103cc3660046135c7565b610a75565b005b3480156103df57600080fd5b506103d16103ee3660046135e0565b610b5e565b3480156103ff57600080fd5b506103d161040e366004613619565b610d3a565b34801561041f57600080fd5b5061035a61042e366004613636565b610e3a565b34801561043f57600080fd5b506103d161044e3660046135c7565b610ee4565b34801561045f57600080fd5b50601b546001600160a01b0316610384565b34801561047d57600080fd5b506040516012815260200161030f565b34801561049957600080fd5b5061035a6104a836600461359b565b610fc4565b3480156104b957600080fd5b506103d16104c8366004613677565b611000565b3480156104d957600080fd5b506103d16104e83660046135c7565b611055565b3480156104f957600080fd5b5061035a610508366004613619565b6001600160a01b031660009081526008602052604090205460ff1690565b34801561053257600080fd5b506018546001600160a01b0316610384565b34801561055057600080fd5b506103d161055f366004613619565b61112f565b34801561057057600080fd5b506103d161057f3660046135c7565b611385565b34801561059057600080fd5b5061030561059f366004613619565b6001600160a01b031660009081526020819052604090205490565b3480156105c657600080fd5b506103d161145e565b3480156105db57600080fd5b50601a546001600160a01b0316610384565b3480156105f957600080fd5b5061035a610608366004613619565b6001600160a01b031660009081526007602052604090205460ff1690565b34801561063257600080fd5b506103d1610641366004613619565b611494565b34801561065257600080fd5b506103d16106613660046135c7565b611588565b34801561067257600080fd5b506103d16106813660046135c7565b61165d565b34801561069257600080fd5b506103d16106a13660046135c7565b611799565b3480156106b257600080fd5b506005546001600160a01b0316610384565b3480156106d057600080fd5b5061032d61186d565b3480156106e557600080fd5b506103d16106f4366004613677565b61187c565b34801561070557600080fd5b50601654610305565b34801561071a57600080fd5b5061035a61072936600461359b565b6118b4565b34801561073a57600080fd5b5061035a61074936600461359b565b61194d565b34801561075a57600080fd5b506103d1610769366004613619565b61195a565b34801561077a57600080fd5b50610305611a53565b34801561078f57600080fd5b506103d161079e3660046135c7565b611a86565b3480156107af57600080fd5b506103d16107be366004613619565b611b5f565b3480156107cf57600080fd5b506103d16107de366004613677565b611c57565b3480156107ef57600080fd5b506103d16107fe3660046135c7565b611d6b565b34801561080f57600080fd5b506103d161081e3660046135c7565b611db1565b34801561082f57600080fd5b50610305611e8b565b34801561084457600080fd5b506103d16108533660046135c7565b611eb3565b34801561086457600080fd5b506103056108733660046135e0565b6001600160a01b03918216600090815260016020908152604080832093909416825291909152205490565b3480156108aa57600080fd5b506108b3611f8d565b604080519687526020870195909552938501929092526060840152608083015260a082015260c00161030f565b3480156108ec57600080fd5b506108b3611fcf565b34801561090157600080fd5b506103d16109103660046135c7565b611ffe565b34801561092157600080fd5b506103d16109303660046136aa565b6120d7565b34801561094157600080fd5b506103d1610950366004613619565b612256565b34801561096157600080fd5b506006546001600160a01b0316610384565b34801561097f57600080fd5b5061035a61098e366004613619565b6001600160a01b031660009081526009602052604090205460ff1690565b3480156109b857600080fd5b506103d16109c73660046136aa565b6122f1565b6060600380546109db906136e5565b80601f0160208091040260200160405190810160405280929190818152602001828054610a07906136e5565b8015610a545780601f10610a2957610100808354040283529160200191610a54565b820191906000526020600020905b815481529060010190602001808311610a3757829003601f168201915b5050505050905090565b6000610a6b33848461245d565b5060015b92915050565b6005546001600160a01b03163314610aa85760405162461bcd60e51b8152600401610a9f90613720565b60405180910390fd5b600d54811415610b185760405162461bcd60e51b815260206004820152603560248201527f4f6c796d7069613a2050726f76696465722062757920666565732068617320616044820152746c7265616479207468652073616d652076616c756560581b6064820152608401610a9f565b600d80549082905560408051828152602081018490527fdef1a38bf06ef599ac69ffcc9d6f9ba5814a75a35d547426a5b265ad132ac9fa91015b60405180910390a15050565b610b688282612581565b15610c8057601b546001600160a01b03166314b6ca9683610b9e816001600160a01b031660009081526020819052604090205490565b6040516001600160e01b031960e085901b1681526001600160a01b0390921660048301526024820152604401600060405180830381600087803b158015610be457600080fd5b505af1925050508015610bf5575060015b50601b546001600160a01b03166314b6ca9682610c27816001600160a01b031660009081526020819052604090205490565b6040516001600160e01b031960e085901b1681526001600160a01b0390921660048301526024820152604401600060405180830381600087803b158015610c6d57600080fd5b505af1925050508015610c7e575060015b505b601b54600160a01b900460ff16610cf657601b546016546040516001624d3b8760e01b031981526001600160a01b039092169163ffb2c47991610cc99160040190815260200190565b600060405180830381600087803b158015610ce357600080fd5b505af1925050508015610cf4575060015b505b806001600160a01b0316826001600160a01b03167f31257f9eb099c8a2289957f65873c639a894f844e0cf73d4bb52d5f72626edbf60405160405180910390a35050565b6005546001600160a01b03163314610d645760405162461bcd60e51b8152600401610a9f90613720565b601b546001600160a01b0382811691161415610de85760405162461bcd60e51b815260206004820152603c60248201527f4f6c796d7069613a20546865207265666c656374696f6e20646973747269627560448201527f746f7220616c72656164792068617320746861742061646472657373000000006064820152608401610a9f565b601b80546001600160a01b038381166001600160a01b0319831681179093556040519116919082907f1e2e77ef0cd0f35190871de5753ad071a7f45598e0676a6e324445a7230918b090600090a35050565b6000610e478484846126a7565b6001600160a01b038416600090815260016020908152604080832033845290915290205482811015610ecc5760405162461bcd60e51b815260206004820152602860248201527f45524332303a207472616e7366657220616d6f756e74206578636565647320616044820152676c6c6f77616e636560c01b6064820152608401610a9f565b610ed9853385840361245d565b506001949350505050565b6005546001600160a01b03163314610f0e5760405162461bcd60e51b8152600401610a9f90613720565b601454811415610f865760405162461bcd60e51b815260206004820152603860248201527f4f6c796d7069613a205265666c656374696f6e2073656c6c206665657320686160448201527f7320616c7265616479207468652073616d652076616c756500000000000000006064820152608401610a9f565b601480549082905560408051828152602081018490527f1a726927bdd75c4cba89f702bc67ac33a9505e2d5e21583c51e044fb65c33a179101610b52565b3360008181526001602090815260408083206001600160a01b03871684529091528120549091610a6b918590610ffb90869061376b565b61245d565b6005546001600160a01b0316331461102a5760405162461bcd60e51b8152600401610a9f90613720565b6001600160a01b03919091166000908152600960205260409020805460ff1916911515919091179055565b6005546001600160a01b0316331461107f5760405162461bcd60e51b8152600401610a9f90613720565b600f548114156110f15760405162461bcd60e51b815260206004820152603760248201527f4f6c796d7069613a205265666c656374696f6e2062757920666565732068617360448201527620616c7265616479207468652073616d652076616c756560481b6064820152608401610a9f565b600f80549082905560408051828152602081018490527f638a0254f06e39bbf5853fbf140b316ff8eec34d46730cd13b2295c0fd5fd76b9101610b52565b6005546001600160a01b031633146111595760405162461bcd60e51b8152600401610a9f90613720565b6006546001600160a01b03828116911614156111cc5760405162461bcd60e51b815260206004820152602c60248201527f4f6c796d7069613a2054686520726f7574657220616c7265616479206861732060448201526b74686174206164647265737360a01b6064820152608401610a9f565b6006546040805163c45a015560e01b815290516001600160a01b039283169284926000929184169163c45a0155916004808201926020929091908290030181865afa15801561121f573d6000803e3d6000fd5b505050506040513d601f19601f820116820180604052508101906112439190613783565b6001600160a01b031663c9c6539630846001600160a01b031663ad5c46486040518163ffffffff1660e01b8152600401602060405180830381865afa158015611290573d6000803e3d6000fd5b505050506040513d601f19601f820116820180604052508101906112b49190613783565b6040516001600160e01b031960e085901b1681526001600160a01b039283166004820152911660248201526044016020604051808303816000875af1158015611301573d6000803e3d6000fd5b505050506040513d601f19601f820116820180604052508101906113259190613783565b90506113328160016128ca565b600680546001600160a01b0319166001600160a01b0386811691821790925560405190918516907f8fc842bbd331dfa973645f4ed48b11683d501ebf1352708d77a5da2ab49a576e90600090a350505050565b6005546001600160a01b031633146113af5760405162461bcd60e51b8152600401610a9f90613720565b600e548114156114205760405162461bcd60e51b815260206004820152603660248201527f4f6c796d7069613a204d61726b6574696e672062757920666565732068617320604482015275616c7265616479207468652073616d652076616c756560501b6064820152608401610a9f565b600e80549082905560408051828152602081018490527f4c71888bec86dade21b0f5ccbc072fadcbc580bee085bb9fce19e659784dec619101610b52565b6005546001600160a01b031633146114885760405162461bcd60e51b8152600401610a9f90613720565b61149260006129bd565b565b6005546001600160a01b031633146114be5760405162461bcd60e51b8152600401610a9f90613720565b6018546001600160a01b03828116911614156115365760405162461bcd60e51b815260206004820152603160248201527f4f6c796d7069613a20546865207465616d2077616c6c657420616c7265616479604482015270206861732074686174206164647265737360781b6064820152608401610a9f565b601880546001600160a01b038381166001600160a01b0319831681179093556040519116919082907f12360e3e1838ceec0af9352a9216ef9e2421c007ad25ed0d1fe1cdf55061d59f90600090a35050565b6005546001600160a01b031633146115b25760405162461bcd60e51b8152600401610a9f90613720565b60115481141561161f5760405162461bcd60e51b815260206004820152603260248201527f4f6c796d7069613a205465616d2073656c6c20666565732068617320616c7265604482015271616479207468652073616d652076616c756560701b6064820152608401610a9f565b601180549082905560408051828152602081018490527f1411c13e99a1d7ff9c4b0c46eb216b98e5a03de615570d8489494a80a81195c29101610b52565b6005546001600160a01b031633146116875760405162461bcd60e51b8152600401610a9f90613720565b62030d40811015801561169d57506207a1208111155b6117025760405162461bcd60e51b815260206004820152603060248201527f4f6c796d7069613a20676173206d757374206265206265747765656e2032303060448201526f02c30303020616e64203530302c3030360841b6064820152608401610a9f565b6016548114156117655760405162461bcd60e51b815260206004820152602860248201527f4f6c796d7069613a2043616e6e6f74207570646174652067617320746f2073616044820152676d652076616c756560c01b6064820152608401610a9f565b6016546040518291907f40d7e40e79af4e8e5a9b3c57030d8ea93f13d669c06d448c4d631d4ae7d23db790600090a3601655565b6005546001600160a01b031633146117c35760405162461bcd60e51b8152600401610a9f90613720565b600c5481141561182f5760405162461bcd60e51b815260206004820152603160248201527f4f6c796d7069613a205465616d2062757920666565732068617320616c7265616044820152706479207468652073616d652076616c756560781b6064820152608401610a9f565b600c80549082905560408051828152602081018490527f332821edfcffb11ebe88bfc8180c2d6aec66e2401deca90ff933f2562f10929c9101610b52565b6060600480546109db906136e5565b6005546001600160a01b031633146118a65760405162461bcd60e51b8152600401610a9f90613720565b6118b082826128ca565b5050565b3360009081526001602090815260408083206001600160a01b0386168452909152812054828110156119365760405162461bcd60e51b815260206004820152602560248201527f45524332303a2064656372656173656420616c6c6f77616e63652062656c6f77604482015264207a65726f60d81b6064820152608401610a9f565b611943338585840361245d565b5060019392505050565b6000610a6b3384846126a7565b6005546001600160a01b031633146119845760405162461bcd60e51b8152600401610a9f90613720565b601a546001600160a01b0382811691161415611a015760405162461bcd60e51b815260206004820152603660248201527f4f6c796d7069613a20546865206d61726b6574696e672077616c6c657420616c6044820152757265616479206861732074686174206164647265737360501b6064820152608401610a9f565b601a80546001600160a01b038381166001600160a01b0319831681179093556040519116919082907facf03c50dcf01e53e2775267d12acd0158d87c2f20fb84226837142693b36ae790600090a35050565b600f54600e54600d54600c54600b54600094611a81949093611a7b9391928492839190612a0f565b90612a0f565b905090565b6005546001600160a01b03163314611ab05760405162461bcd60e51b8152600401610a9f90613720565b600b54811415611b215760405162461bcd60e51b815260206004820152603660248201527f4f6c796d7069613a204c69717569646974792062757920666565732068617320604482015275616c7265616479207468652073616d652076616c756560501b6064820152608401610a9f565b600b80549082905560408051828152602081018490527f070e7d79f58271466523967a3ba6e1dd467a704e664c801648eff938aa7c8aee9101610b52565b6005546001600160a01b03163314611b895760405162461bcd60e51b8152600401610a9f90613720565b6019546001600160a01b0382811691161415611c055760405162461bcd60e51b815260206004820152603560248201527f4f6c796d7069613a205468652070726f76696465722077616c6c657420616c7260448201527465616479206861732074686174206164647265737360581b6064820152608401610a9f565b601980546001600160a01b038381166001600160a01b0319831681179093556040519116919082907fa59b843fc86632af821611408218c979f0c8e901841ec30ceadaca8dcd21e72f90600090a35050565b6005546001600160a01b03163314611c815760405162461bcd60e51b8152600401610a9f90613720565b6001600160a01b03821660009081526008602052604090205460ff1615158115151415611d0c5760405162461bcd60e51b815260206004820152603360248201527f4f6c796d7069613a204163636f756e7420697320616c7265616479207468652060448201527276616c7565206f6620276578636c756465642760681b6064820152608401610a9f565b6001600160a01b038216600081815260086020908152604091829020805460ff191685151590811790915591519182527f9d8f7706ea1113d1a167b526eca956215946dd36cc7df39eb16180222d8b5df7910160405180910390a25050565b6005546001600160a01b03163314611d955760405162461bcd60e51b8152600401610a9f90613720565b611da16012600a613884565b611dab9082613893565b60155550565b6005546001600160a01b03163314611ddb5760405162461bcd60e51b8152600401610a9f90613720565b601054811415611e4d5760405162461bcd60e51b815260206004820152603760248201527f4f6c796d7069613a204c69717569646974792073656c6c20666565732068617360448201527620616c7265616479207468652073616d652076616c756560481b6064820152608401610a9f565b601080549082905560408051828152602081018490527ff0af897f1c506324133d9169fa14f1e409ebe2e16a98b9e53a241643bdbf2b069101610b52565b601454601354601254601154601054600094611a81949093611a7b9391928492839190612a0f565b6005546001600160a01b03163314611edd5760405162461bcd60e51b8152600401610a9f90613720565b601354811415611f4f5760405162461bcd60e51b815260206004820152603760248201527f4f6c796d7069613a204d61726b6574696e672073656c6c20666565732068617360448201527620616c7265616479207468652073616d652076616c756560481b6064820152608401610a9f565b601380549082905560408051828152602081018490527fd09b72602a0b4d8607b87041d4b295778f7d64c85934bf6428adaa84e93b4b669101610b52565b600080600080600080601060000154601060010154601060020154601060030154601060040154611fbc611e8b565b949b939a50919850965094509092509050565b600080600080600080600b60000154600b60010154600b60020154600b60030154600b60040154611fbc611a53565b6005546001600160a01b031633146120285760405162461bcd60e51b8152600401610a9f90613720565b6012548114156120995760405162461bcd60e51b815260206004820152603660248201527f4f6c796d7069613a2050726f76696465722073656c6c20666565732068617320604482015275616c7265616479207468652073616d652076616c756560501b6064820152608401610a9f565b601280549082905560408051828152602081018490527f6934bffd92581aa04b8ef60d140a4e433ae4ffbbce4901c2780b1cdf4831c1579101610b52565b6005546001600160a01b031633146121015760405162461bcd60e51b8152600401610a9f90613720565b600b54851415806121145750600c548414155b806121215750600d548314155b8061212e5750600e548214155b8061213b5750600f548114155b61219d5760405162461bcd60e51b815260206004820152602d60248201527f4f6c796d7069613a2042757920666565732068617320616c726561647920746860448201526c652073616d652076616c75657360981b6064820152608401610a9f565b6000600b60000154905085600b600001819055506000600b60010154905085600b600101819055506000600b60020154905085600b600201819055506000600b60030154905085600b600301819055506000600b60040154905085600b600401819055507faf0694d1174825ee4698206774f111466e2b166d08603353f86ea5cf70cf0901858b868c878d888e898f6040516122429a999897969594939291906138b2565b60405180910390a150505050505050505050565b6005546001600160a01b031633146122805760405162461bcd60e51b8152600401610a9f90613720565b6001600160a01b0381166122e55760405162461bcd60e51b815260206004820152602660248201527f4f776e61626c653a206e6577206f776e657220697320746865207a65726f206160448201526564647265737360d01b6064820152608401610a9f565b6122ee816129bd565b50565b6005546001600160a01b0316331461231b5760405162461bcd60e51b8152600401610a9f90613720565b6010548514158061232e57506011548414155b8061233b57506012548314155b8061234857506013548214155b8061235557506014548114155b6123b85760405162461bcd60e51b815260206004820152602e60248201527f4f6c796d7069613a2053656c6c20666565732068617320616c7265616479207460448201526d68652073616d652076616c75657360901b6064820152608401610a9f565b600060106000015490508560106000018190555060006010600101549050856010600101819055506000601060020154905085601060020181905550600060106003015490508560106003018190555060006010600401549050856010600401819055507f2decc87f95dd422b46f67d72cf82bbef56a5685acb65edfd26c641dcaf6b2a9c858b868c878d888e898f6040516122429a999897969594939291906138b2565b6001600160a01b0383166124bf5760405162461bcd60e51b8152602060048201526024808201527f45524332303a20617070726f76652066726f6d20746865207a65726f206164646044820152637265737360e01b6064820152608401610a9f565b6001600160a01b0382166125205760405162461bcd60e51b815260206004820152602260248201527f45524332303a20617070726f766520746f20746865207a65726f206164647265604482015261737360f01b6064820152608401610a9f565b6001600160a01b0383811660008181526001602090815260408083209487168084529482529182902085905590518481527f8c5be1e5ebec7d5bd14f71427d1e84f3dd0314c0f7b2291e5b200ac8c7c3b925910160405180910390a3505050565b60006125956005546001600160a01b031690565b6001600160a01b0316836001600160a01b0316141580156125c457506005546001600160a01b03838116911614155b80156125d957506001600160a01b0383163014155b80156125ee57506001600160a01b0382163014155b801561260857506006546001600160a01b03848116911614155b801561262257506006546001600160a01b03838116911614155b801561263c57506017546001600160a01b03848116911614155b801561265657506017546001600160a01b03838116911614155b801561267b57506001600160a01b03831660009081526007602052604090205460ff16155b80156126a057506001600160a01b03821660009081526007602052604090205460ff16155b9392505050565b6001600160a01b03831661270d5760405162461bcd60e51b815260206004820152602760248201527f4f6c796d7069613a205472616e736665722066726f6d20746865207a65726f206044820152666164647265737360c81b6064820152608401610a9f565b6001600160a01b0382166127715760405162461bcd60e51b815260206004820152602560248201527f4f6c796d7069613a205472616e7366657220746f20746865207a65726f206164604482015264647265737360d81b6064820152608401610a9f565b6001600160a01b03831660009081526009602052604090205460ff161580156127b357506001600160a01b03821660009081526009602052604090205460ff16155b6127ff5760405162461bcd60e51b815260206004820152601c60248201527f4f6c796d7069613a20426c61636b6c69737465642061646472657373000000006044820152606401610a9f565b806128155761281083836000612a6e565b505050565b6001600160a01b038316600090815260076020526040902054600a805460ff191660ff909216151591909117905561284d8383612c3d565b1561289857600061285c612d96565b905060006128766127106128708585612db3565b90612e32565b90506128828382612e74565b9250801561289557612895853083612a6e565b50505b80156128a9576128a9838383612a6e565b6128b38383612eb6565b156128c0576128c0612fff565b6128108383610b5e565b6001600160a01b03821660009081526007602052604090205460ff16151581151514156129695760405162461bcd60e51b815260206004820152604160248201527f4f6c796d7069613a204175746f6d61746564206d61726b6574206d616b65722060448201527f7061697220697320616c72656164792073657420746f20746861742076616c756064820152606560f81b608482015260a401610a9f565b6001600160a01b038216600081815260076020526040808220805460ff191685151590811790915590519092917fffa9187bf1f18bf477bd0ea1bcbb64e93b6a98132473929edfce215cd9b16fab91a35050565b600580546001600160a01b038381166001600160a01b0319831681179093556040519116919082907f8be0079c531659141344cd1fd0a4f28419497f9722a3daafe3b4186f6b6457e090600090a35050565b600080612a1c838561376b565b9050838110156126a05760405162461bcd60e51b815260206004820152601b60248201527f536166654d6174683a206164646974696f6e206f766572666c6f7700000000006044820152606401610a9f565b6001600160a01b038316612ad25760405162461bcd60e51b815260206004820152602560248201527f45524332303a207472616e736665722066726f6d20746865207a65726f206164604482015264647265737360d81b6064820152608401610a9f565b6001600160a01b038216612b345760405162461bcd60e51b815260206004820152602360248201527f45524332303a207472616e7366657220746f20746865207a65726f206164647260448201526265737360e81b6064820152608401610a9f565b6001600160a01b03831660009081526020819052604090205481811015612bac5760405162461bcd60e51b815260206004820152602660248201527f45524332303a207472616e7366657220616d6f756e7420657863656564732062604482015265616c616e636560d01b6064820152608401610a9f565b6001600160a01b03808516600090815260208190526040808220858503905591851681529081208054849290612be390849061376b565b92505081905550826001600160a01b0316846001600160a01b03167fddf252ad1be2c89b69c2b068fc378daa952ba7f163c4a11628f55a4df523b3ef84604051612c2f91815260200190565b60405180910390a350505050565b601b54600090600160a01b900460ff16158015612c6357506001600160a01b0383163014155b8015612c7857506001600160a01b0382163014155b8015612c9257506005546001600160a01b03848116911614155b8015612cac57506005546001600160a01b03838116911614155b8015612cc657506018546001600160a01b03848116911614155b8015612ce057506018546001600160a01b03838116911614155b8015612cfa57506019546001600160a01b03848116911614155b8015612d1457506019546001600160a01b03838116911614155b8015612d2e5750601a546001600160a01b03848116911614155b8015612d485750601a546001600160a01b03838116911614155b8015612d6d57506001600160a01b03831660009081526008602052604090205460ff16155b80156126a05750506001600160a01b031660009081526008602052604090205460ff1615919050565b600a5460009060ff16612dab57611a81611e8b565b611a81611a53565b600082612dc257506000610a6f565b6000612dce8385613893565b905082612ddb85836138f7565b146126a05760405162461bcd60e51b815260206004820152602160248201527f536166654d6174683a206d756c7469706c69636174696f6e206f766572666c6f6044820152607760f81b6064820152608401610a9f565b60006126a083836040518060400160405280601a81526020017f536166654d6174683a206469766973696f6e206279207a65726f000000000000815250613161565b60006126a083836040518060400160405280601e81526020017f536166654d6174683a207375627472616374696f6e206f766572666c6f770000815250613198565b60155430600090815260208190526040812054909111158015612ee35750601b54600160a01b900460ff16155b8015612efd57506005546001600160a01b03848116911614155b8015612f1757506005546001600160a01b03838116911614155b8015612f3157506018546001600160a01b03848116911614155b8015612f4b57506018546001600160a01b03838116911614155b8015612f6557506019546001600160a01b03848116911614155b8015612f7f57506019546001600160a01b03838116911614155b8015612f995750601a546001600160a01b03848116911614155b80156126565750601a546001600160a01b0383811691161415801561267b57506001600160a01b03831660009081526007602052604090205460ff161580156126a05750506001600160a01b031660009081526007602052604090205460ff1615919050565b601b805460ff60a01b1916600160a01b1790553060009081526020819052604081205490506000806000806000806130356131c9565b955095509550955095509550600061305f6002612870846128708b8d612db390919063ffffffff16565b9050600061306d8983612e74565b9050613078816131f5565b47600061308985612870848c612db3565b6018549091506130a2906001600160a01b031682613355565b60006130b286612870858c612db3565b6019549091506130cb906001600160a01b031682613355565b60006130db87612870868c612db3565b601a549091506130f4906001600160a01b031682613355565b600061310488612870878c612db3565b601b5490915061311d906001600160a01b031682613355565b600061313782613131858188818c8c612e74565b90612e74565b905061314388826133ff565b5050601b805460ff60a01b1916905550505050505050505050505050565b600081836131825760405162461bcd60e51b8152600401610a9f9190613531565b50600061318f84866138f7565b95945050505050565b600081848411156131bc5760405162461bcd60e51b8152600401610a9f9190613531565b50600061318f8486613919565b600a546000908190819081908190819060ff166131ed576131e8611f8d565b611fbc565b611fbc611fcf565b80156122ee57604080516002808252606082018352600092602083019080368337019050509050308160008151811061323057613230613930565b6001600160a01b03928316602091820292909201810191909152600654604080516315ab88c960e31b81529051919093169263ad5c46489260048083019391928290030181865afa158015613289573d6000803e3d6000fd5b505050506040513d601f19601f820116820180604052508101906132ad9190613783565b816001815181106132c0576132c0613930565b6001600160a01b0392831660209182029290920101526006546132e6913091168461245d565b60065460405163791ac94760e01b81526001600160a01b039091169063791ac9479061331f908590600090869030904290600401613946565b600060405180830381600087803b15801561333957600080fd5b505af115801561334d573d6000803e3d6000fd5b505050505050565b80156118b0576000826001600160a01b03168260405160006040518083038185875af1925050503d80600081146133a8576040519150601f19603f3d011682016040523d82523d6000602084013e6133ad565b606091505b50509050801561281057826001600160a01b03167f951187f2fc3f183ebdc238898fc9563f0a7d2956d726dd22c4fff10cd6ad910d836040516133f291815260200190565b60405180910390a2505050565b60008211801561340f5750600081115b156118b05761341e828261345c565b60408051838152602081018390529081018390527f17bbfb9a6069321b6ded73bd96327c9e6b7212a5cd51ff219cd61370acafb56190606001610b52565b6006546134749030906001600160a01b03168461245d565b6006546001600160a01b031663f305d71982308560008061349d6005546001600160a01b031690565b60405160e088901b6001600160e01b03191681526001600160a01b03958616600482015260248101949094526044840192909252606483015290911660848201524260a482015260c40160606040518083038185885af1158015613505573d6000803e3d6000fd5b50505050506040513d601f19601f8201168201806040525081019061352a91906139b7565b5050505050565b600060208083528351808285015260005b8181101561355e57858101830151858201604001528201613542565b81811115613570576000604083870101525b50601f01601f1916929092016040019392505050565b6001600160a01b03811681146122ee57600080fd5b600080604083850312156135ae57600080fd5b82356135b981613586565b946020939093013593505050565b6000602082840312156135d957600080fd5b5035919050565b600080604083850312156135f357600080fd5b82356135fe81613586565b9150602083013561360e81613586565b809150509250929050565b60006020828403121561362b57600080fd5b81356126a081613586565b60008060006060848603121561364b57600080fd5b833561365681613586565b9250602084013561366681613586565b929592945050506040919091013590565b6000806040838503121561368a57600080fd5b823561369581613586565b91506020830135801515811461360e57600080fd5b600080600080600060a086880312156136c257600080fd5b505083359560208501359550604085013594606081013594506080013592509050565b600181811c908216806136f957607f821691505b6020821081141561371a57634e487b7160e01b600052602260045260246000fd5b50919050565b6020808252818101527f4f776e61626c653a2063616c6c6572206973206e6f7420746865206f776e6572604082015260600190565b634e487b7160e01b600052601160045260246000fd5b6000821982111561377e5761377e613755565b500190565b60006020828403121561379557600080fd5b81516126a081613586565b600181815b808511156137db5781600019048211156137c1576137c1613755565b808516156137ce57918102915b93841c93908002906137a5565b509250929050565b6000826137f257506001610a6f565b816137ff57506000610a6f565b8160018114613815576002811461381f5761383b565b6001915050610a6f565b60ff84111561383057613830613755565b50506001821b610a6f565b5060208310610133831016604e8410600b841016171561385e575081810a610a6f565b61386883836137a0565b806000190482111561387c5761387c613755565b029392505050565b60006126a060ff8416836137e3565b60008160001904831182151516156138ad576138ad613755565b500290565b998a5260208a019890985260408901969096526060880194909452608087019290925260a086015260c085015260e08401526101008301526101208201526101400190565b60008261391457634e487b7160e01b600052601260045260246000fd5b500490565b60008282101561392b5761392b613755565b500390565b634e487b7160e01b600052603260045260246000fd5b600060a082018783526020878185015260a0604085015281875180845260c086019150828901935060005b818110156139965784516001600160a01b031683529383019391830191600101613971565b50506001600160a01b03969096166060850152505050608001529392505050565b6000806000606084860312156139cc57600080fd5b835192506020840151915060408401519050925092509256fea26469706673582212206275c2f49325debd23fab5d66f4fc3c01511b9b9378124ac1ba8a8f4b6c4e03e64736f6c634300080b0033",
  "linkReferences": {},
  "deployedLinkReferences": {}
}