{
  "_format": "hh-sol-artifact-1",
  "contractName": "DividendPayingToken",
  "sourceName": "contracts/tokens/OlpToken.sol",
  "abi": [
    {
      "inputs": [
        {
          "internalType": "string",
          "name": "_name",
          "type": "string"
        },
        {
          "internalType": "string",
          "name": "_symbol",
          "type": "string"
        }
      ],
      "stateMutability": "nonpayable",
      "type": "constructor"
    },
    {
      "anonymous": false,
      "inputs": [
        {
          "indexed": true,
          "internalType": "address",
          "name": "owner",
          "type": "address"
        },
        {
          "indexed": true,
          "internalType": "address",
          "name": "spender",
          "type": "address"
        },
        {
          "indexed": false,
          "internalType": "uint256",
          "name": "value",
          "type": "uint256"
        }
      ],
      "name": "Approval",
      "type": "event"
    },
    {
      "anonymous": false,
      "inputs": [
        {
          "indexed": true,
          "internalType": "address",
          "name": "to",
          "type": "address"
        },
        {
          "indexed": false,
          "internalType": "uint256",
          "name": "weiAmount",
          "type": "uint256"
        }
      ],
      "name": "DividendWithdrawn",
      "type": "event"
    },
    {
      "anonymous": false,
      "inputs": [
        {
          "indexed": true,
          "internalType": "address",
          "name": "from",
          "type": "address"
        },
        {
          "indexed": false,
          "internalType": "uint256",
          "name": "weiAmount",
          "type": "uint256"
        }
      ],
      "name": "DividendsDistributed",
      "type": "event"
    },
    {
      "anonymous": false,
      "inputs": [
        {
          "indexed": true,
          "internalType": "address",
          "name": "from",
          "type": "address"
        },
        {
          "indexed": true,
          "internalType": "address",
          "name": "to",
          "type": "address"
        },
        {
          "indexed": false,
          "internalType": "uint256",
          "name": "value",
          "type": "uint256"
        }
      ],
      "name": "Transfer",
      "type": "event"
    },
    {
      "inputs": [
        {
          "internalType": "address",
          "name": "_owner",
          "type": "address"
        }
      ],
      "name": "accumulativeDividendOf",
      "outputs": [
        {
          "internalType": "uint256",
          "name": "",
          "type": "uint256"
        }
      ],
      "stateMutability": "view",
      "type": "function"
    },
    {
      "inputs": [
        {
          "internalType": "address",
          "name": "owner",
          "type": "address"
        },
        {
          "internalType": "address",
          "name": "spender",
          "type": "address"
        }
      ],
      "name": "allowance",
      "outputs": [
        {
          "internalType": "uint256",
          "name": "",
          "type": "uint256"
        }
      ],
      "stateMutability": "view",
      "type": "function"
    },
    {
      "inputs": [
        {
          "internalType": "address",
          "name": "spender",
          "type": "address"
        },
        {
          "internalType": "uint256",
          "name": "amount",
          "type": "uint256"
        }
      ],
      "name": "approve",
      "outputs": [
        {
          "internalType": "bool",
          "name": "",
          "type": "bool"
        }
      ],
      "stateMutability": "nonpayable",
      "type": "function"
    },
    {
      "inputs": [
        {
          "internalType": "address",
          "name": "account",
          "type": "address"
        }
      ],
      "name": "balanceOf",
      "outputs": [
        {
          "internalType": "uint256",
          "name": "",
          "type": "uint256"
        }
      ],
      "stateMutability": "view",
      "type": "function"
    },
    {
      "inputs": [],
      "name": "decimals",
      "outputs": [
        {
          "internalType": "uint8",
          "name": "",
          "type": "uint8"
        }
      ],
      "stateMutability": "view",
      "type": "function"
    },
    {
      "inputs": [
        {
          "internalType": "address",
          "name": "spender",
          "type": "address"
        },
        {
          "internalType": "uint256",
          "name": "subtractedValue",
          "type": "uint256"
        }
      ],
      "name": "decreaseAllowance",
      "outputs": [
        {
          "internalType": "bool",
          "name": "",
          "type": "bool"
        }
      ],
      "stateMutability": "nonpayable",
      "type": "function"
    },
    {
      "inputs": [],
      "name": "distributeDividends",
      "outputs": [],
      "stateMutability": "payable",
      "type": "function"
    },
    {
      "inputs": [
        {
          "internalType": "address",
          "name": "_owner",
          "type": "address"
        }
      ],
      "name": "dividendOf",
      "outputs": [
        {
          "internalType": "uint256",
          "name": "",
          "type": "uint256"
        }
      ],
      "stateMutability": "view",
      "type": "function"
    },
    {
      "inputs": [
        {
          "internalType": "address",
          "name": "spender",
          "type": "address"
        },
        {
          "internalType": "uint256",
          "name": "addedValue",
          "type": "uint256"
        }
      ],
      "name": "increaseAllowance",
      "outputs": [
        {
          "internalType": "bool",
          "name": "",
          "type": "bool"
        }
      ],
      "stateMutability": "nonpayable",
      "type": "function"
    },
    {
      "inputs": [],
      "name": "name",
      "outputs": [
        {
          "internalType": "string",
          "name": "",
          "type": "string"
        }
      ],
      "stateMutability": "view",
      "type": "function"
    },
    {
      "inputs": [],
      "name": "symbol",
      "outputs": [
        {
          "internalType": "string",
          "name": "",
          "type": "string"
        }
      ],
      "stateMutability": "view",
      "type": "function"
    },
    {
      "inputs": [],
      "name": "totalDividendsDistributed",
      "outputs": [
        {
          "internalType": "uint256",
          "name": "",
          "type": "uint256"
        }
      ],
      "stateMutability": "view",
      "type": "function"
    },
    {
      "inputs": [],
      "name": "totalSupply",
      "outputs": [
        {
          "internalType": "uint256",
          "name": "",
          "type": "uint256"
        }
      ],
      "stateMutability": "view",
      "type": "function"
    },
    {
      "inputs": [
        {
          "internalType": "address",
          "name": "recipient",
          "type": "address"
        },
        {
          "internalType": "uint256",
          "name": "amount",
          "type": "uint256"
        }
      ],
      "name": "transfer",
      "outputs": [
        {
          "internalType": "bool",
          "name": "",
          "type": "bool"
        }
      ],
      "stateMutability": "nonpayable",
      "type": "function"
    },
    {
      "inputs": [
        {
          "internalType": "address",
          "name": "sender",
          "type": "address"
        },
        {
          "internalType": "address",
          "name": "recipient",
          "type": "address"
        },
        {
          "internalType": "uint256",
          "name": "amount",
          "type": "uint256"
        }
      ],
      "name": "transferFrom",
      "outputs": [
        {
          "internalType": "bool",
          "name": "",
          "type": "bool"
        }
      ],
      "stateMutability": "nonpayable",
      "type": "function"
    },
    {
      "inputs": [],
      "name": "withdrawDividend",
      "outputs": [],
      "stateMutability": "nonpayable",
      "type": "function"
    },
    {
      "inputs": [
        {
          "internalType": "address",
          "name": "_owner",
          "type": "address"
        }
      ],
      "name": "withdrawableDividendOf",
      "outputs": [
        {
          "internalType": "uint256",
          "name": "",
          "type": "uint256"
        }
      ],
      "stateMutability": "view",
      "type": "function"
    },
    {
      "inputs": [
        {
          "internalType": "address",
          "name": "_owner",
          "type": "address"
        }
      ],
      "name": "withdrawnDividendOf",
      "outputs": [
        {
          "internalType": "uint256",
          "name": "",
          "type": "uint256"
        }
      ],
      "stateMutability": "view",
      "type": "function"
    },
    {
      "stateMutability": "payable",
      "type": "receive"
    }
  ],
  "bytecode": "0x60806040523480156200001157600080fd5b5060405162000fe938038062000fe98339810160408190526200003491620001e1565b8151829082906200004d9060039060208501906200006e565b508051620000639060049060208401906200006e565b505050505062000288565b8280546200007c906200024b565b90600052602060002090601f016020900481019282620000a05760008555620000eb565b82601f10620000bb57805160ff1916838001178555620000eb565b82800160010185558215620000eb579182015b82811115620000eb578251825591602001919060010190620000ce565b50620000f9929150620000fd565b5090565b5b80821115620000f95760008155600101620000fe565b634e487b7160e01b600052604160045260246000fd5b600082601f8301126200013c57600080fd5b81516001600160401b038082111562000159576200015962000114565b604051601f8301601f19908116603f0116810190828211818310171562000184576200018462000114565b81604052838152602092508683858801011115620001a157600080fd5b600091505b83821015620001c55785820183015181830184015290820190620001a6565b83821115620001d75760008385830101525b9695505050505050565b60008060408385031215620001f557600080fd5b82516001600160401b03808211156200020d57600080fd5b6200021b868387016200012a565b935060208501519150808211156200023257600080fd5b5062000241858286016200012a565b9150509250929050565b600181811c908216806200026057607f821691505b602082108114156200028257634e487b7160e01b600052602260045260246000fd5b50919050565b610d5180620002986000396000f3fe60806040526004361061010d5760003560e01c806370a0823111610095578063a457c2d711610064578063a457c2d7146102b5578063a8b9d240146102d5578063a9059cbb146102f5578063aafd847a14610315578063dd62ed3e1461034b57600080fd5b806370a082311461023457806385a6b3ae1461026a57806391b89fba1461028057806395d89b41146102a057600080fd5b806323b872dd116100dc57806323b872dd146101a357806327ce0147146101c3578063313ce567146101e357806339509351146101ff5780636a4740021461021f57600080fd5b806303c833021461012157806306fdde0314610129578063095ea7b31461015457806318160ddd1461018457600080fd5b3661011c5761011a610391565b005b600080fd5b61011a610391565b34801561013557600080fd5b5061013e610424565b60405161014b9190610aa7565b60405180910390f35b34801561016057600080fd5b5061017461016f366004610b18565b6104b6565b604051901515815260200161014b565b34801561019057600080fd5b506002545b60405190815260200161014b565b3480156101af57600080fd5b506101746101be366004610b42565b6104cd565b3480156101cf57600080fd5b506101956101de366004610b7e565b610536565b3480156101ef57600080fd5b506040516012815260200161014b565b34801561020b57600080fd5b5061017461021a366004610b18565b610592565b34801561022b57600080fd5b5061011a6105c8565b34801561024057600080fd5b5061019561024f366004610b7e565b6001600160a01b031660009081526020819052604090205490565b34801561027657600080fd5b5061019560085481565b34801561028c57600080fd5b5061019561029b366004610b7e565b6105d4565b3480156102ac57600080fd5b5061013e6105df565b3480156102c157600080fd5b506101746102d0366004610b18565b6105ee565b3480156102e157600080fd5b506101956102f0366004610b7e565b61063d565b34801561030157600080fd5b50610174610310366004610b18565b610669565b34801561032157600080fd5b50610195610330366004610b7e565b6001600160a01b031660009081526007602052604090205490565b34801561035757600080fd5b50610195610366366004610b99565b6001600160a01b03918216600090815260016020908152604080832093909416825291909152205490565b600061039c60025490565b116103a657600080fd5b3415610422576103d96103b860025490565b6103c634600160801b610676565b6103d09190610be2565b60055490610701565b60055560405134815233907fa493a9229478c3fcd73f66d2cdeb7f94fd0f341da924d1054236d784541165119060200160405180910390a260085461041e9034610701565b6008555b565b60606003805461043390610c04565b80601f016020809104026020016040519081016040528092919081815260200182805461045f90610c04565b80156104ac5780601f10610481576101008083540402835291602001916104ac565b820191906000526020600020905b81548152906001019060200180831161048f57829003601f168201915b5050505050905090565b60006104c3338484610760565b5060015b92915050565b60006104da848484600080fd5b61052c843361052785604051806060016040528060288152602001610ccf602891396001600160a01b038a1660009081526001602090815260408083203384529091529020549190610884565b610760565b5060019392505050565b6001600160a01b03811660009081526006602090815260408083205491839052822054600554600160801b92610588926105839261057d916105789190610676565b6108be565b906108ce565b61090c565b6104c79190610be2565b3360008181526001602090815260408083206001600160a01b038716845290915281205490916104c39185906105279086610701565b6105d13361091f565b50565b60006104c78261063d565b60606004805461043390610c04565b60006104c3338461052785604051806060016040528060258152602001610cf7602591393360009081526001602090815260408083206001600160a01b038d1684529091529020549190610884565b6001600160a01b0381166000908152600760205260408120546104c79061066384610536565b90610a65565b60006104c3338484600080fd5b600082610685575060006104c7565b60006106918385610c3f565b90508261069e8583610be2565b146106fa5760405162461bcd60e51b815260206004820152602160248201527f536166654d6174683a206d756c7469706c69636174696f6e206f766572666c6f6044820152607760f81b60648201526084015b60405180910390fd5b9392505050565b60008061070e8385610c5e565b9050838110156106fa5760405162461bcd60e51b815260206004820152601b60248201527f536166654d6174683a206164646974696f6e206f766572666c6f77000000000060448201526064016106f1565b6001600160a01b0383166107c25760405162461bcd60e51b8152602060048201526024808201527f45524332303a20617070726f76652066726f6d20746865207a65726f206164646044820152637265737360e01b60648201526084016106f1565b6001600160a01b0382166108235760405162461bcd60e51b815260206004820152602260248201527f45524332303a20617070726f766520746f20746865207a65726f206164647265604482015261737360f01b60648201526084016106f1565b6001600160a01b0383811660008181526001602090815260408083209487168084529482529182902085905590518481527f8c5be1e5ebec7d5bd14f71427d1e84f3dd0314c0f7b2291e5b200ac8c7c3b925910160405180910390a3505050565b600081848411156108a85760405162461bcd60e51b81526004016106f19190610aa7565b5060006108b58486610c76565b95945050505050565b600081818112156104c757600080fd5b6000806108db8385610c8d565b9050600083121580156108ee5750838112155b80610903575060008312801561090357508381125b6106fa57600080fd5b60008082121561091b57600080fd5b5090565b60008061092b8361063d565b90508015610a5c576001600160a01b0383166000908152600760205260409020546109569082610701565b6001600160a01b038416600081815260076020526040908190209290925590517fee503bee2bb6a87e57bc57db795f98137327401a0e7b7ce42e37926cc1a9ca4d906109a59084815260200190565b60405180910390a26000836001600160a01b031682610bb890604051600060405180830381858888f193505050503d80600081146109ff576040519150601f19603f3d011682016040523d82523d6000602084013e610a04565b606091505b5050905080610a55576001600160a01b038416600090815260076020526040902054610a309083610a65565b6001600160a01b03909416600090815260076020526040812094909455509192915050565b5092915050565b50600092915050565b60006106fa83836040518060400160405280601e81526020017f536166654d6174683a207375627472616374696f6e206f766572666c6f770000815250610884565b600060208083528351808285015260005b81811015610ad457858101830151858201604001528201610ab8565b81811115610ae6576000604083870101525b50601f01601f1916929092016040019392505050565b80356001600160a01b0381168114610b1357600080fd5b919050565b60008060408385031215610b2b57600080fd5b610b3483610afc565b946020939093013593505050565b600080600060608486031215610b5757600080fd5b610b6084610afc565b9250610b6e60208501610afc565b9150604084013590509250925092565b600060208284031215610b9057600080fd5b6106fa82610afc565b60008060408385031215610bac57600080fd5b610bb583610afc565b9150610bc360208401610afc565b90509250929050565b634e487b7160e01b600052601160045260246000fd5b600082610bff57634e487b7160e01b600052601260045260246000fd5b500490565b600181811c90821680610c1857607f821691505b60208210811415610c3957634e487b7160e01b600052602260045260246000fd5b50919050565b6000816000190483118215151615610c5957610c59610bcc565b500290565b60008219821115610c7157610c71610bcc565b500190565b600082821015610c8857610c88610bcc565b500390565b600080821280156001600160ff1b0384900385131615610caf57610caf610bcc565b600160ff1b8390038412811615610cc857610cc8610bcc565b5050019056fe45524332303a207472616e7366657220616d6f756e74206578636565647320616c6c6f77616e636545524332303a2064656372656173656420616c6c6f77616e63652062656c6f77207a65726fa2646970667358221220746cec47e376a775588de8debe42e14216f9fa259a5d96f969cc9a3cf02ef8d964736f6c634300080b0033",
  "linkReferences": {},
  "deployedLinkReferences": {}
}