{
  "_format": "hh-sol-artifact-1",
  "contractName": "OLPDividendTracker",
  "sourceName": "contracts/tokens/OlpToken.sol",
  "abi": [
    {
      "inputs": [],
      "stateMutability": "nonpayable",
      "type": "constructor"
    },
    {
      "anonymous": false,
      "inputs": [
        {
          "indexed": true,
          "internalType": "address",
          "name": "owner",
          "type": "address"
        },
        {
          "indexed": true,
          "internalType": "address",
          "name": "spender",
          "type": "address"
        },
        {
          "indexed": false,
          "internalType": "uint256",
          "name": "value",
          "type": "uint256"
        }
      ],
      "name": "Approval",
      "type": "event"
    },
    {
      "anonymous": false,
      "inputs": [
        {
          "indexed": true,
          "internalType": "address",
          "name": "account",
          "type": "address"
        },
        {
          "indexed": false,
          "internalType": "uint256",
          "name": "amount",
          "type": "uint256"
        },
        {
          "indexed": true,
          "internalType": "bool",
          "name": "automatic",
          "type": "bool"
        }
      ],
      "name": "Claim",
      "type": "event"
    },
    {
      "anonymous": false,
      "inputs": [
        {
          "indexed": true,
          "internalType": "uint256",
          "name": "newValue",
          "type": "uint256"
        },
        {
          "indexed": true,
          "internalType": "uint256",
          "name": "oldValue",
          "type": "uint256"
        }
      ],
      "name": "ClaimWaitUpdated",
      "type": "event"
    },
    {
      "anonymous": false,
      "inputs": [
        {
          "indexed": true,
          "internalType": "address",
          "name": "to",
          "type": "address"
        },
        {
          "indexed": false,
          "internalType": "uint256",
          "name": "weiAmount",
          "type": "uint256"
        }
      ],
      "name": "DividendWithdrawn",
      "type": "event"
    },
    {
      "anonymous": false,
      "inputs": [
        {
          "indexed": true,
          "internalType": "address",
          "name": "from",
          "type": "address"
        },
        {
          "indexed": false,
          "internalType": "uint256",
          "name": "weiAmount",
          "type": "uint256"
        }
      ],
      "name": "DividendsDistributed",
      "type": "event"
    },
    {
      "anonymous": false,
      "inputs": [
        {
          "indexed": true,
          "internalType": "address",
          "name": "account",
          "type": "address"
        }
      ],
      "name": "ExcludeFromDividends",
      "type": "event"
    },
    {
      "anonymous": false,
      "inputs": [
        {
          "indexed": true,
          "internalType": "address",
          "name": "previousOwner",
          "type": "address"
        },
        {
          "indexed": true,
          "internalType": "address",
          "name": "newOwner",
          "type": "address"
        }
      ],
      "name": "OwnershipTransferred",
      "type": "event"
    },
    {
      "anonymous": false,
      "inputs": [
        {
          "indexed": true,
          "internalType": "address",
          "name": "from",
          "type": "address"
        },
        {
          "indexed": true,
          "internalType": "address",
          "name": "to",
          "type": "address"
        },
        {
          "indexed": false,
          "internalType": "uint256",
          "name": "value",
          "type": "uint256"
        }
      ],
      "name": "Transfer",
      "type": "event"
    },
    {
      "inputs": [
        {
          "internalType": "address",
          "name": "_owner",
          "type": "address"
        }
      ],
      "name": "accumulativeDividendOf",
      "outputs": [
        {
          "internalType": "uint256",
          "name": "",
          "type": "uint256"
        }
      ],
      "stateMutability": "view",
      "type": "function"
    },
    {
      "inputs": [
        {
          "internalType": "address",
          "name": "owner",
          "type": "address"
        },
        {
          "internalType": "address",
          "name": "spender",
          "type": "address"
        }
      ],
      "name": "allowance",
      "outputs": [
        {
          "internalType": "uint256",
          "name": "",
          "type": "uint256"
        }
      ],
      "stateMutability": "view",
      "type": "function"
    },
    {
      "inputs": [
        {
          "internalType": "address",
          "name": "spender",
          "type": "address"
        },
        {
          "internalType": "uint256",
          "name": "amount",
          "type": "uint256"
        }
      ],
      "name": "approve",
      "outputs": [
        {
          "internalType": "bool",
          "name": "",
          "type": "bool"
        }
      ],
      "stateMutability": "nonpayable",
      "type": "function"
    },
    {
      "inputs": [
        {
          "internalType": "address",
          "name": "account",
          "type": "address"
        }
      ],
      "name": "balanceOf",
      "outputs": [
        {
          "internalType": "uint256",
          "name": "",
          "type": "uint256"
        }
      ],
      "stateMutability": "view",
      "type": "function"
    },
    {
      "inputs": [],
      "name": "claimWait",
      "outputs": [
        {
          "internalType": "uint256",
          "name": "",
          "type": "uint256"
        }
      ],
      "stateMutability": "view",
      "type": "function"
    },
    {
      "inputs": [],
      "name": "decimals",
      "outputs": [
        {
          "internalType": "uint8",
          "name": "",
          "type": "uint8"
        }
      ],
      "stateMutability": "view",
      "type": "function"
    },
    {
      "inputs": [
        {
          "internalType": "address",
          "name": "spender",
          "type": "address"
        },
        {
          "internalType": "uint256",
          "name": "subtractedValue",
          "type": "uint256"
        }
      ],
      "name": "decreaseAllowance",
      "outputs": [
        {
          "internalType": "bool",
          "name": "",
          "type": "bool"
        }
      ],
      "stateMutability": "nonpayable",
      "type": "function"
    },
    {
      "inputs": [],
      "name": "distributeDividends",
      "outputs": [],
      "stateMutability": "payable",
      "type": "function"
    },
    {
      "inputs": [
        {
          "internalType": "address",
          "name": "_owner",
          "type": "address"
        }
      ],
      "name": "dividendOf",
      "outputs": [
        {
          "internalType": "uint256",
          "name": "",
          "type": "uint256"
        }
      ],
      "stateMutability": "view",
      "type": "function"
    },
    {
      "inputs": [
        {
          "internalType": "address",
          "name": "account",
          "type": "address"
        }
      ],
      "name": "excludeFromDividends",
      "outputs": [],
      "stateMutability": "nonpayable",
      "type": "function"
    },
    {
      "inputs": [
        {
          "internalType": "address",
          "name": "",
          "type": "address"
        }
      ],
      "name": "excludedFromDividends",
      "outputs": [
        {
          "internalType": "bool",
          "name": "",
          "type": "bool"
        }
      ],
      "stateMutability": "view",
      "type": "function"
    },
    {
      "inputs": [
        {
          "internalType": "address",
          "name": "_account",
          "type": "address"
        }
      ],
      "name": "getAccount",
      "outputs": [
        {
          "internalType": "address",
          "name": "account",
          "type": "address"
        },
        {
          "internalType": "int256",
          "name": "index",
          "type": "int256"
        },
        {
          "internalType": "int256",
          "name": "iterationsUntilProcessed",
          "type": "int256"
        },
        {
          "internalType": "uint256",
          "name": "withdrawableDividends",
          "type": "uint256"
        },
        {
          "internalType": "uint256",
          "name": "totalDividends",
          "type": "uint256"
        },
        {
          "internalType": "uint256",
          "name": "lastClaimTime",
          "type": "uint256"
        },
        {
          "internalType": "uint256",
          "name": "nextClaimTime",
          "type": "uint256"
        },
        {
          "internalType": "uint256",
          "name": "secondsUntilAutoClaimAvailable",
          "type": "uint256"
        }
      ],
      "stateMutability": "view",
      "type": "function"
    },
    {
      "inputs": [
        {
          "internalType": "uint256",
          "name": "index",
          "type": "uint256"
        }
      ],
      "name": "getAccountAtIndex",
      "outputs": [
        {
          "internalType": "address",
          "name": "",
          "type": "address"
        },
        {
          "internalType": "int256",
          "name": "",
          "type": "int256"
        },
        {
          "internalType": "int256",
          "name": "",
          "type": "int256"
        },
        {
          "internalType": "uint256",
          "name": "",
          "type": "uint256"
        },
        {
          "internalType": "uint256",
          "name": "",
          "type": "uint256"
        },
        {
          "internalType": "uint256",
          "name": "",
          "type": "uint256"
        },
        {
          "internalType": "uint256",
          "name": "",
          "type": "uint256"
        },
        {
          "internalType": "uint256",
          "name": "",
          "type": "uint256"
        }
      ],
      "stateMutability": "view",
      "type": "function"
    },
    {
      "inputs": [],
      "name": "getLastProcessedIndex",
      "outputs": [
        {
          "internalType": "uint256",
          "name": "",
          "type": "uint256"
        }
      ],
      "stateMutability": "view",
      "type": "function"
    },
    {
      "inputs": [],
      "name": "getNumberOfTokenHolders",
      "outputs": [
        {
          "internalType": "uint256",
          "name": "",
          "type": "uint256"
        }
      ],
      "stateMutability": "view",
      "type": "function"
    },
    {
      "inputs": [
        {
          "internalType": "address",
          "name": "spender",
          "type": "address"
        },
        {
          "internalType": "uint256",
          "name": "addedValue",
          "type": "uint256"
        }
      ],
      "name": "increaseAllowance",
      "outputs": [
        {
          "internalType": "bool",
          "name": "",
          "type": "bool"
        }
      ],
      "stateMutability": "nonpayable",
      "type": "function"
    },
    {
      "inputs": [
        {
          "internalType": "address",
          "name": "",
          "type": "address"
        }
      ],
      "name": "lastClaimTimes",
      "outputs": [
        {
          "internalType": "uint256",
          "name": "",
          "type": "uint256"
        }
      ],
      "stateMutability": "view",
      "type": "function"
    },
    {
      "inputs": [],
      "name": "lastProcessedIndex",
      "outputs": [
        {
          "internalType": "uint256",
          "name": "",
          "type": "uint256"
        }
      ],
      "stateMutability": "view",
      "type": "function"
    },
    {
      "inputs": [],
      "name": "minimumTokenBalanceForDividends",
      "outputs": [
        {
          "internalType": "uint256",
          "name": "",
          "type": "uint256"
        }
      ],
      "stateMutability": "view",
      "type": "function"
    },
    {
      "inputs": [],
      "name": "name",
      "outputs": [
        {
          "internalType": "string",
          "name": "",
          "type": "string"
        }
      ],
      "stateMutability": "view",
      "type": "function"
    },
    {
      "inputs": [],
      "name": "owner",
      "outputs": [
        {
          "internalType": "address",
          "name": "",
          "type": "address"
        }
      ],
      "stateMutability": "view",
      "type": "function"
    },
    {
      "inputs": [
        {
          "internalType": "uint256",
          "name": "gas",
          "type": "uint256"
        }
      ],
      "name": "process",
      "outputs": [
        {
          "internalType": "uint256",
          "name": "",
          "type": "uint256"
        },
        {
          "internalType": "uint256",
          "name": "",
          "type": "uint256"
        },
        {
          "internalType": "uint256",
          "name": "",
          "type": "uint256"
        }
      ],
      "stateMutability": "nonpayable",
      "type": "function"
    },
    {
      "inputs": [
        {
          "internalType": "address payable",
          "name": "account",
          "type": "address"
        },
        {
          "internalType": "bool",
          "name": "automatic",
          "type": "bool"
        }
      ],
      "name": "processAccount",
      "outputs": [
        {
          "internalType": "bool",
          "name": "",
          "type": "bool"
        }
      ],
      "stateMutability": "nonpayable",
      "type": "function"
    },
    {
      "inputs": [],
      "name": "renounceOwnership",
      "outputs": [],
      "stateMutability": "nonpayable",
      "type": "function"
    },
    {
      "inputs": [
        {
          "internalType": "address payable",
          "name": "account",
          "type": "address"
        },
        {
          "internalType": "uint256",
          "name": "newBalance",
          "type": "uint256"
        }
      ],
      "name": "setBalance",
      "outputs": [],
      "stateMutability": "nonpayable",
      "type": "function"
    },
    {
      "inputs": [
        {
          "internalType": "uint256",
          "name": "balance",
          "type": "uint256"
        }
      ],
      "name": "setMinimumTokenBalanceForDividends",
      "outputs": [],
      "stateMutability": "nonpayable",
      "type": "function"
    },
    {
      "inputs": [],
      "name": "symbol",
      "outputs": [
        {
          "internalType": "string",
          "name": "",
          "type": "string"
        }
      ],
      "stateMutability": "view",
      "type": "function"
    },
    {
      "inputs": [],
      "name": "totalDividendsDistributed",
      "outputs": [
        {
          "internalType": "uint256",
          "name": "",
          "type": "uint256"
        }
      ],
      "stateMutability": "view",
      "type": "function"
    },
    {
      "inputs": [],
      "name": "totalSupply",
      "outputs": [
        {
          "internalType": "uint256",
          "name": "",
          "type": "uint256"
        }
      ],
      "stateMutability": "view",
      "type": "function"
    },
    {
      "inputs": [
        {
          "internalType": "address",
          "name": "recipient",
          "type": "address"
        },
        {
          "internalType": "uint256",
          "name": "amount",
          "type": "uint256"
        }
      ],
      "name": "transfer",
      "outputs": [
        {
          "internalType": "bool",
          "name": "",
          "type": "bool"
        }
      ],
      "stateMutability": "nonpayable",
      "type": "function"
    },
    {
      "inputs": [
        {
          "internalType": "address",
          "name": "sender",
          "type": "address"
        },
        {
          "internalType": "address",
          "name": "recipient",
          "type": "address"
        },
        {
          "internalType": "uint256",
          "name": "amount",
          "type": "uint256"
        }
      ],
      "name": "transferFrom",
      "outputs": [
        {
          "internalType": "bool",
          "name": "",
          "type": "bool"
        }
      ],
      "stateMutability": "nonpayable",
      "type": "function"
    },
    {
      "inputs": [
        {
          "internalType": "address",
          "name": "newOwner",
          "type": "address"
        }
      ],
      "name": "transferOwnership",
      "outputs": [],
      "stateMutability": "nonpayable",
      "type": "function"
    },
    {
      "inputs": [
        {
          "internalType": "uint256",
          "name": "newClaimWait",
          "type": "uint256"
        }
      ],
      "name": "updateClaimWait",
      "outputs": [],
      "stateMutability": "nonpayable",
      "type": "function"
    },
    {
      "inputs": [],
      "name": "withdrawDividend",
      "outputs": [],
      "stateMutability": "pure",
      "type": "function"
    },
    {
      "inputs": [
        {
          "internalType": "address",
          "name": "_owner",
          "type": "address"
        }
      ],
      "name": "withdrawableDividendOf",
      "outputs": [
        {
          "internalType": "uint256",
          "name": "",
          "type": "uint256"
        }
      ],
      "stateMutability": "view",
      "type": "function"
    },
    {
      "inputs": [
        {
          "internalType": "address",
          "name": "_owner",
          "type": "address"
        }
      ],
      "name": "withdrawnDividendOf",
      "outputs": [
        {
          "internalType": "uint256",
          "name": "",
          "type": "uint256"
        }
      ],
      "stateMutability": "view",
      "type": "function"
    },
    {
      "stateMutability": "payable",
      "type": "receive"
    }
  ],
  "bytecode": "0x60806040523480156200001157600080fd5b506040518060400160405280601481526020017f4f4c505f4469766964656e645f547261636b65720000000000000000000000008152506040518060400160405280601481526020017f4f4c505f4469766964656e645f547261636b657200000000000000000000000081525081816000620000926200012760201b60201c565b600080546001600160a01b0319166001600160a01b0383169081178255604051929350917f8be0079c531659141344cd1fd0a4f28419497f9722a3daafe3b4186f6b6457e0908290a3508151620000f19060049060208501906200012b565b508051620001079060059060208401906200012b565b505061a8c060115550506a52b7d2dcc80cd2e4000000601255506200020e565b3390565b8280546200013990620001d1565b90600052602060002090601f0160209004810192826200015d5760008555620001a8565b82601f106200017857805160ff1916838001178555620001a8565b82800160010185558215620001a8579182015b82811115620001a85782518255916020019190600101906200018b565b50620001b6929150620001ba565b5090565b5b80821115620001b65760008155600101620001bb565b600181811c90821680620001e657607f821691505b602082108114156200020857634e487b7160e01b600052602260045260246000fd5b50919050565b6120a1806200021e6000396000f3fe6080604052600436106102135760003560e01c8063715018a611610118578063bc4c4b37116100a0578063e7841ec01161006f578063e7841ec01461066d578063e98030c714610682578063f2fde38b146106a2578063fbcbc0f1146106c2578063ffb2c479146106e257600080fd5b8063bc4c4b37146105d1578063be10b614146105f1578063dd62ed3e14610607578063e30443bc1461064d57600080fd5b806395d89b41116100e757806395d89b4114610526578063a457c2d71461053b578063a8b9d2401461055b578063a9059cbb1461057b578063aafd847a1461059b57600080fd5b8063715018a6146104b357806385a6b3ae146104c85780638da5cb5b146104de57806391b89fba1461050657600080fd5b8063313ce5671161019b5780635183d6fd1161016a5780635183d6fd146103cd5780635ebf4db9146104325780636a474002146104525780636f2789ec1461046757806370a082311461047d57600080fd5b8063313ce5671461034157806331e79db01461035d578063395093511461037d5780634e7b827f1461039d57600080fd5b806318160ddd116101e257806318160ddd146102a9578063226cfa3d146102be57806323b872dd146102eb57806327ce01471461030b5780633009a6091461032b57600080fd5b806303c833021461022757806306fdde031461022f578063095ea7b31461025a57806309bbedde1461028a57600080fd5b366102225761022061071d565b005b600080fd5b61022061071d565b34801561023b57600080fd5b506102446107b0565b6040516102519190611ca3565b60405180910390f35b34801561026657600080fd5b5061027a610275366004611d10565b610842565b6040519015158152602001610251565b34801561029657600080fd5b50600a545b604051908152602001610251565b3480156102b557600080fd5b5060035461029b565b3480156102ca57600080fd5b5061029b6102d9366004611d3c565b60106020526000908152604090205481565b3480156102f757600080fd5b5061027a610306366004611d59565b610859565b34801561031757600080fd5b5061029b610326366004611d3c565b6108c2565b34801561033757600080fd5b5061029b600e5481565b34801561034d57600080fd5b5060405160128152602001610251565b34801561036957600080fd5b50610220610378366004611d3c565b61091f565b34801561038957600080fd5b5061027a610398366004611d10565b610a4f565b3480156103a957600080fd5b5061027a6103b8366004611d3c565b600f6020526000908152604090205460ff1681565b3480156103d957600080fd5b506103ed6103e8366004611d9a565b610a85565b604080516001600160a01b0390991689526020890197909752958701949094526060860192909252608085015260a084015260c083015260e082015261010001610251565b34801561043e57600080fd5b5061022061044d366004611d9a565b610bd9565b34801561045e57600080fd5b50610220610c1b565b34801561047357600080fd5b5061029b60115481565b34801561048957600080fd5b5061029b610498366004611d3c565b6001600160a01b031660009081526001602052604090205490565b3480156104bf57600080fd5b50610220610cbb565b3480156104d457600080fd5b5061029b60095481565b3480156104ea57600080fd5b506000546040516001600160a01b039091168152602001610251565b34801561051257600080fd5b5061029b610521366004611d3c565b610d2f565b34801561053257600080fd5b50610244610d3a565b34801561054757600080fd5b5061027a610556366004611d10565b610d49565b34801561056757600080fd5b5061029b610576366004611d3c565b610d98565b34801561058757600080fd5b5061027a610596366004611d10565b610dc4565b3480156105a757600080fd5b5061029b6105b6366004611d3c565b6001600160a01b031660009081526008602052604090205490565b3480156105dd57600080fd5b5061027a6105ec366004611db3565b610dd1565b3480156105fd57600080fd5b5061029b60125481565b34801561061357600080fd5b5061029b610622366004611df1565b6001600160a01b03918216600090815260026020908152604080832093909416825291909152205490565b34801561065957600080fd5b50610220610668366004611d10565b610e7d565b34801561067957600080fd5b50600e5461029b565b34801561068e57600080fd5b5061022061069d366004611d9a565b610feb565b3480156106ae57600080fd5b506102206106bd366004611d3c565b611159565b3480156106ce57600080fd5b506103ed6106dd366004611d3c565b611243565b3480156106ee57600080fd5b506107026106fd366004611d9a565b6113ac565b60408051938452602084019290925290820152606001610251565b600061072860035490565b1161073257600080fd5b34156107ae5761076561074460035490565b61075234600160801b6114c7565b61075c9190611e35565b6006549061154d565b60065560405134815233907fa493a9229478c3fcd73f66d2cdeb7f94fd0f341da924d1054236d784541165119060200160405180910390a26009546107aa903461154d565b6009555b565b6060600480546107bf90611e57565b80601f01602080910402602001604051908101604052809291908181526020018280546107eb90611e57565b80156108385780601f1061080d57610100808354040283529160200191610838565b820191906000526020600020905b81548152906001019060200180831161081b57829003601f168201915b5050505050905090565b600061084f3384846115ac565b5060015b92915050565b60006108668484846116d0565b6108b884336108b38560405180606001604052806028815260200161201f602891396001600160a01b038a166000908152600260209081526040808320338452909152902054919061172b565b6115ac565b5060019392505050565b6001600160a01b0381166000908152600760209081526040808320546001909252822054600654600160801b92610915926109109261090a9161090591906114c7565b611765565b90611775565b6117b3565b6108539190611e35565b6000546001600160a01b031633146109525760405162461bcd60e51b815260040161094990611e92565b60405180910390fd5b6001600160a01b0381166000908152600f602052604090205460ff161561097857600080fd5b6001600160a01b0381166000908152600f60205260408120805460ff191660011790556109a69082906117c6565b60405163131836e760e21b8152600a60048201526001600160a01b038216602482015273__$ff63054a5fca904aa61f9270973a47c131$__90634c60db9c9060440160006040518083038186803b158015610a0057600080fd5b505af4158015610a14573d6000803e3d6000fd5b50506040516001600160a01b03841692507fa878b31040b2e6d0a9a3d3361209db3908ba62014b0dca52adbaee451d128b259150600090a250565b3360008181526002602090815260408083206001600160a01b0387168452909152812054909161084f9185906108b3908661154d565b600080600080600080600080600a73__$ff63054a5fca904aa61f9270973a47c131$__63deb3d89690916040518263ffffffff1660e01b8152600401610acd91815260200190565b602060405180830381865af4158015610aea573d6000803e3d6000fd5b505050506040513d601f19601f82011682018060405250810190610b0e9190611ec7565b8910610b33575060009650600019955085945086935083925082915081905080610bce565b6040516368d54f3f60e11b8152600a6004820152602481018a905260009073__$ff63054a5fca904aa61f9270973a47c131$__9063d1aa9e7e90604401602060405180830381865af4158015610b8d573d6000803e3d6000fd5b505050506040513d601f19601f82011682018060405250810190610bb19190611ee0565b9050610bbc81611243565b98509850985098509850985098509850505b919395975091939597565b6000546001600160a01b03163314610c035760405162461bcd60e51b815260040161094990611e92565b610c1581670de0b6b3a7640000611efd565b60125550565b60405162461bcd60e51b815260206004820152606360248201527f4f4c505f4469766964656e645f547261636b65723a207769746864726177446960448201527f766964656e642064697361626c65642e20557365207468652027636c61696d2760648201527f2066756e6374696f6e206f6e20746865206d61696e204f4c5020636f6e74726160848201526231ba1760e91b60a482015260c401610949565b6000546001600160a01b03163314610ce55760405162461bcd60e51b815260040161094990611e92565b600080546040516001600160a01b03909116907f8be0079c531659141344cd1fd0a4f28419497f9722a3daafe3b4186f6b6457e0908390a3600080546001600160a01b0319169055565b600061085382610d98565b6060600580546107bf90611e57565b600061084f33846108b385604051806060016040528060258152602001612047602591393360009081526002602090815260408083206001600160a01b038d168452909152902054919061172b565b6001600160a01b03811660009081526008602052604081205461085390610dbe846108c2565b90611825565b600061084f3384846116d0565b600080546001600160a01b03163314610dfc5760405162461bcd60e51b815260040161094990611e92565b6000610e0784611867565b90508015610e73576001600160a01b038416600081815260106020526040908190204290555184151591907fa2c38e2d2fb7e3e1912d937fd1ca11ed6d51864dee4cfa7a7bf02becd7acf09290610e619085815260200190565b60405180910390a36001915050610853565b5060009392505050565b6000546001600160a01b03163314610ea75760405162461bcd60e51b815260040161094990611e92565b6001600160a01b0382166000908152600f602052604090205460ff1615610ecc575050565b6012548110610f5d57610edf82826117c6565b604051632f0ad01760e21b8152600a60048201526001600160a01b03831660248201526044810182905273__$ff63054a5fca904aa61f9270973a47c131$__9063bc2b405c9060640160006040518083038186803b158015610f4057600080fd5b505af4158015610f54573d6000803e3d6000fd5b50505050610fdb565b610f688260006117c6565b60405163131836e760e21b8152600a60048201526001600160a01b038316602482015273__$ff63054a5fca904aa61f9270973a47c131$__90634c60db9c9060440160006040518083038186803b158015610fc257600080fd5b505af4158015610fd6573d6000803e3d6000fd5b505050505b610fe6826001610dd1565b505050565b6000546001600160a01b031633146110155760405162461bcd60e51b815260040161094990611e92565b610e10811015801561102a5750620151808111155b6110ae5760405162461bcd60e51b815260206004820152604960248201527f4f4c505f4469766964656e645f547261636b65723a20636c61696d576169742060448201527f6d757374206265207570646174656420746f206265747765656e203120616e6460648201526820323420686f75727360b81b608482015260a401610949565b6011548114156111265760405162461bcd60e51b815260206004820152603b60248201527f4f4c505f4469766964656e645f547261636b65723a2043616e6e6f742075706460448201527f61746520636c61696d5761697420746f2073616d652076616c756500000000006064820152608401610949565b60115460405182907f474ea64804364a1e29a4487ddb63c3342a2dd826ccd8acf48825e680a0e6f20f90600090a3601155565b6000546001600160a01b031633146111835760405162461bcd60e51b815260040161094990611e92565b6001600160a01b0381166111e85760405162461bcd60e51b815260206004820152602660248201527f4f776e61626c653a206e6577206f776e657220697320746865207a65726f206160448201526564647265737360d01b6064820152608401610949565b600080546040516001600160a01b03808516939216917f8be0079c531659141344cd1fd0a4f28419497f9722a3daafe3b4186f6b6457e091a3600080546001600160a01b0319166001600160a01b0392909216919091179055565b6040516317e142d160e01b8152600a60048201526001600160a01b0382166024820152819060009081908190819081908190819073__$ff63054a5fca904aa61f9270973a47c131$__906317e142d190604401602060405180830381865af41580156112b3573d6000803e3d6000fd5b505050506040513d601f19601f820116820180604052508101906112d79190611ec7565b965060001995506000871261133957600e5487111561130557600e546112fe9088906119ad565b9550611339565b600e54600a546000911061131a576000611329565b600e54600a5461132991611825565b90506113358882611775565b9650505b61134288610d98565b945061134d886108c2565b6001600160a01b038916600090815260106020526040902054909450925082611377576000611385565b60115461138590849061154d565b915042821161139557600061139f565b61139f8242611825565b9050919395975091939597565b600a5460009081908190806113cc575050600e54600092508291506114c0565b600e546000805a90506000805b89841080156113e757508582105b156114af57846113f681611f1c565b600a549096508610905061140957600094505b6000600a600001868154811061142157611421611f37565b60009182526020808320909101546001600160a01b03168083526010909152604090912054909150611452906119ea565b1561147557611462816001610dd1565b15611475578161147181611f1c565b9250505b8261147f81611f1c565b93505060005a9050808511156114a6576114a361149c8683611825565b879061154d565b95505b93506113d99050565b600e85905590975095509193505050505b9193909250565b6000826114d657506000610853565b60006114e28385611efd565b9050826114ef8583611e35565b146115465760405162461bcd60e51b815260206004820152602160248201527f536166654d6174683a206d756c7469706c69636174696f6e206f766572666c6f6044820152607760f81b6064820152608401610949565b9392505050565b60008061155a8385611f4d565b9050838110156115465760405162461bcd60e51b815260206004820152601b60248201527f536166654d6174683a206164646974696f6e206f766572666c6f7700000000006044820152606401610949565b6001600160a01b03831661160e5760405162461bcd60e51b8152602060048201526024808201527f45524332303a20617070726f76652066726f6d20746865207a65726f206164646044820152637265737360e01b6064820152608401610949565b6001600160a01b03821661166f5760405162461bcd60e51b815260206004820152602260248201527f45524332303a20617070726f766520746f20746865207a65726f206164647265604482015261737360f01b6064820152608401610949565b6001600160a01b0383811660008181526002602090815260408083209487168084529482529182902085905590518481527f8c5be1e5ebec7d5bd14f71427d1e84f3dd0314c0f7b2291e5b200ac8c7c3b925910160405180910390a3505050565b60405162461bcd60e51b815260206004820152602a60248201527f4f4c505f4469766964656e645f547261636b65723a204e6f207472616e7366656044820152691c9cc8185b1b1bddd95960b21b6064820152608401610949565b6000818484111561174f5760405162461bcd60e51b81526004016109499190611ca3565b50600061175c8486611f65565b95945050505050565b6000818181121561085357600080fd5b6000806117828385611f7c565b9050600083121580156117955750838112155b806117aa57506000831280156117aa57508381125b61154657600080fd5b6000808212156117c257600080fd5b5090565b6001600160a01b038216600090815260016020526040902054808211156118055760006117f38383611825565b90506117ff8482611a11565b50505050565b80821015610fe65760006118198284611825565b90506117ff8482611a75565b600061154683836040518060400160405280601e81526020017f536166654d6174683a207375627472616374696f6e206f766572666c6f77000081525061172b565b60008061187383610d98565b905080156119a4576001600160a01b03831660009081526008602052604090205461189e908261154d565b6001600160a01b038416600081815260086020526040908190209290925590517fee503bee2bb6a87e57bc57db795f98137327401a0e7b7ce42e37926cc1a9ca4d906118ed9084815260200190565b60405180910390a26000836001600160a01b031682610bb890604051600060405180830381858888f193505050503d8060008114611947576040519150601f19603f3d011682016040523d82523d6000602084013e61194c565b606091505b505090508061199d576001600160a01b0384166000908152600860205260409020546119789083611825565b6001600160a01b03909416600090815260086020526040812094909455509192915050565b5092915050565b50600092915050565b6000806119ba8385611fbd565b9050600083121580156119cd5750838113155b806117aa57506000831280156117aa575083811361154657600080fd5b6000428211156119fc57506000919050565b601154611a094284611825565b101592915050565b611a1b8282611ab9565b611a55611a36610905836006546114c790919063ffffffff16565b6001600160a01b038416600090815260076020526040902054906119ad565b6001600160a01b0390921660009081526007602052604090209190915550565b611a7f8282611b9f565b611a55611a9a610905836006546114c790919063ffffffff16565b6001600160a01b03841660009081526007602052604090205490611775565b6001600160a01b038216611b0f5760405162461bcd60e51b815260206004820152601f60248201527f45524332303a206d696e7420746f20746865207a65726f2061646472657373006044820152606401610949565b600354611b1c908261154d565b6003556001600160a01b038216600090815260016020526040902054611b42908261154d565b6001600160a01b0383166000818152600160205260408082209390935591519091907fddf252ad1be2c89b69c2b068fc378daa952ba7f163c4a11628f55a4df523b3ef90611b939085815260200190565b60405180910390a35050565b6001600160a01b038216611bff5760405162461bcd60e51b815260206004820152602160248201527f45524332303a206275726e2066726f6d20746865207a65726f206164647265736044820152607360f81b6064820152608401610949565b611c3c81604051806060016040528060228152602001611ffd602291396001600160a01b038516600090815260016020526040902054919061172b565b6001600160a01b038316600090815260016020526040902055600354611c629082611825565b6003556040518181526000906001600160a01b038416907fddf252ad1be2c89b69c2b068fc378daa952ba7f163c4a11628f55a4df523b3ef90602001611b93565b600060208083528351808285015260005b81811015611cd057858101830151858201604001528201611cb4565b81811115611ce2576000604083870101525b50601f01601f1916929092016040019392505050565b6001600160a01b0381168114611d0d57600080fd5b50565b60008060408385031215611d2357600080fd5b8235611d2e81611cf8565b946020939093013593505050565b600060208284031215611d4e57600080fd5b813561154681611cf8565b600080600060608486031215611d6e57600080fd5b8335611d7981611cf8565b92506020840135611d8981611cf8565b929592945050506040919091013590565b600060208284031215611dac57600080fd5b5035919050565b60008060408385031215611dc657600080fd5b8235611dd181611cf8565b915060208301358015158114611de657600080fd5b809150509250929050565b60008060408385031215611e0457600080fd5b8235611e0f81611cf8565b91506020830135611de681611cf8565b634e487b7160e01b600052601160045260246000fd5b600082611e5257634e487b7160e01b600052601260045260246000fd5b500490565b600181811c90821680611e6b57607f821691505b60208210811415611e8c57634e487b7160e01b600052602260045260246000fd5b50919050565b6020808252818101527f4f776e61626c653a2063616c6c6572206973206e6f7420746865206f776e6572604082015260600190565b600060208284031215611ed957600080fd5b5051919050565b600060208284031215611ef257600080fd5b815161154681611cf8565b6000816000190483118215151615611f1757611f17611e1f565b500290565b6000600019821415611f3057611f30611e1f565b5060010190565b634e487b7160e01b600052603260045260246000fd5b60008219821115611f6057611f60611e1f565b500190565b600082821015611f7757611f77611e1f565b500390565b600080821280156001600160ff1b0384900385131615611f9e57611f9e611e1f565b600160ff1b8390038412811615611fb757611fb7611e1f565b50500190565b60008083128015600160ff1b850184121615611fdb57611fdb611e1f565b6001600160ff1b0384018313811615611ff657611ff6611e1f565b5050039056fe45524332303a206275726e20616d6f756e7420657863656564732062616c616e636545524332303a207472616e7366657220616d6f756e74206578636565647320616c6c6f77616e636545524332303a2064656372656173656420616c6c6f77616e63652062656c6f77207a65726fa2646970667358221220d17f3a18a1b9175707384b5c84b6c625c0ae3a2991576c56b82dbc7a230f468264736f6c634300080b0033",
  "linkReferences": {
    "contracts/libraries/IterableMapping.sol": {
      "IterableMapping": [
        {
          "length": 20,
          "start": 3049
        },
        {
          "length": 20,
          "start": 3251
        },
        {
          "length": 20,
          "start": 3441
        },
        {
          "length": 20,
          "start": 4393
        },
        {
          "length": 20,
          "start": 4523
        },
        {
          "length": 20,
          "start": 5271
        }
      ]
    }
  },
  "deployedLinkReferences": {
    "contracts/libraries/IterableMapping.sol": {
      "IterableMapping": [
        {
          "length": 20,
          "start": 2507
        },
        {
          "length": 20,
          "start": 2709
        },
        {
          "length": 20,
          "start": 2899
        },
        {
          "length": 20,
          "start": 3851
        },
        {
          "length": 20,
          "start": 3981
        },
        {
          "length": 20,
          "start": 4729
        }
      ]
    }
  }
}