{
  "_format": "hh-sol-artifact-1",
  "contractName": "OlpToken",
  "sourceName": "contracts/tokens/OlpToken.sol",
  "abi": [
    {
      "inputs": [],
      "stateMutability": "nonpayable",
      "type": "constructor"
    },
    {
      "anonymous": false,
      "inputs": [
        {
          "indexed": true,
          "internalType": "address",
          "name": "owner",
          "type": "address"
        },
        {
          "indexed": true,
          "internalType": "address",
          "name": "spender",
          "type": "address"
        },
        {
          "indexed": false,
          "internalType": "uint256",
          "name": "value",
          "type": "uint256"
        }
      ],
      "name": "Approval",
      "type": "event"
    },
    {
      "anonymous": false,
      "inputs": [
        {
          "indexed": true,
          "internalType": "address",
          "name": "oldPremiumUser",
          "type": "address"
        }
      ],
      "name": "DeletePremiumUserFromList",
      "type": "event"
    },
    {
      "anonymous": false,
      "inputs": [
        {
          "indexed": true,
          "internalType": "address",
          "name": "account",
          "type": "address"
        },
        {
          "indexed": false,
          "internalType": "bool",
          "name": "isExcluded",
          "type": "bool"
        }
      ],
      "name": "ExcludeFromFees",
      "type": "event"
    },
    {
      "anonymous": false,
      "inputs": [
        {
          "indexed": false,
          "internalType": "address[]",
          "name": "accounts",
          "type": "address[]"
        },
        {
          "indexed": false,
          "internalType": "bool",
          "name": "isExcluded",
          "type": "bool"
        }
      ],
      "name": "ExcludeMultipleAccountsFromFees",
      "type": "event"
    },
    {
      "anonymous": false,
      "inputs": [
        {
          "indexed": true,
          "internalType": "uint256",
          "name": "newValue",
          "type": "uint256"
        },
        {
          "indexed": true,
          "internalType": "uint256",
          "name": "oldValue",
          "type": "uint256"
        }
      ],
      "name": "GasForProcessingUpdated",
      "type": "event"
    },
    {
      "anonymous": false,
      "inputs": [
        {
          "indexed": true,
          "internalType": "address",
          "name": "newLiquidityWallet",
          "type": "address"
        },
        {
          "indexed": true,
          "internalType": "address",
          "name": "oldLiquidityWallet",
          "type": "address"
        }
      ],
      "name": "LiquidityWalletUpdated",
      "type": "event"
    },
    {
      "anonymous": false,
      "inputs": [
        {
          "indexed": true,
          "internalType": "address",
          "name": "previousOwner",
          "type": "address"
        },
        {
          "indexed": true,
          "internalType": "address",
          "name": "newOwner",
          "type": "address"
        }
      ],
      "name": "OwnershipTransferred",
      "type": "event"
    },
    {
      "anonymous": false,
      "inputs": [
        {
          "indexed": false,
          "internalType": "uint256",
          "name": "iterations",
          "type": "uint256"
        },
        {
          "indexed": false,
          "internalType": "uint256",
          "name": "claims",
          "type": "uint256"
        },
        {
          "indexed": false,
          "internalType": "uint256",
          "name": "lastProcessedIndex",
          "type": "uint256"
        },
        {
          "indexed": true,
          "internalType": "bool",
          "name": "automatic",
          "type": "bool"
        },
        {
          "indexed": false,
          "internalType": "uint256",
          "name": "gas",
          "type": "uint256"
        },
        {
          "indexed": true,
          "internalType": "address",
          "name": "processor",
          "type": "address"
        }
      ],
      "name": "ProcessedDividendTracker",
      "type": "event"
    },
    {
      "anonymous": false,
      "inputs": [
        {
          "indexed": false,
          "internalType": "uint256",
          "name": "tokensSwapped",
          "type": "uint256"
        },
        {
          "indexed": false,
          "internalType": "uint256",
          "name": "amount",
          "type": "uint256"
        }
      ],
      "name": "SendDividends",
      "type": "event"
    },
    {
      "anonymous": false,
      "inputs": [
        {
          "indexed": true,
          "internalType": "address",
          "name": "pair",
          "type": "address"
        },
        {
          "indexed": true,
          "internalType": "bool",
          "name": "value",
          "type": "bool"
        }
      ],
      "name": "SetAutomatedMarketMakerPair",
      "type": "event"
    },
    {
      "anonymous": false,
      "inputs": [
        {
          "indexed": false,
          "internalType": "uint256",
          "name": "tokensSwapped",
          "type": "uint256"
        },
        {
          "indexed": false,
          "internalType": "uint256",
          "name": "ethReceived",
          "type": "uint256"
        },
        {
          "indexed": false,
          "internalType": "uint256",
          "name": "tokensIntoLiqudity",
          "type": "uint256"
        }
      ],
      "name": "SwapAndLiquify",
      "type": "event"
    },
    {
      "anonymous": false,
      "inputs": [
        {
          "indexed": true,
          "internalType": "address",
          "name": "from",
          "type": "address"
        },
        {
          "indexed": true,
          "internalType": "address",
          "name": "to",
          "type": "address"
        },
        {
          "indexed": false,
          "internalType": "uint256",
          "name": "value",
          "type": "uint256"
        }
      ],
      "name": "Transfer",
      "type": "event"
    },
    {
      "anonymous": false,
      "inputs": [
        {
          "indexed": true,
          "internalType": "address",
          "name": "newAddress",
          "type": "address"
        },
        {
          "indexed": true,
          "internalType": "address",
          "name": "oldAddress",
          "type": "address"
        }
      ],
      "name": "UpdateDividendTracker",
      "type": "event"
    },
    {
      "anonymous": false,
      "inputs": [
        {
          "indexed": true,
          "internalType": "address",
          "name": "newAddress",
          "type": "address"
        },
        {
          "indexed": true,
          "internalType": "address",
          "name": "oldAddress",
          "type": "address"
        }
      ],
      "name": "UpdateUniswapV2Router",
      "type": "event"
    },
    {
      "inputs": [],
      "name": "BNBRewardsFee",
      "outputs": [
        {
          "internalType": "uint256",
          "name": "",
          "type": "uint256"
        }
      ],
      "stateMutability": "view",
      "type": "function"
    },
    {
      "inputs": [
        {
          "internalType": "address",
          "name": "",
          "type": "address"
        }
      ],
      "name": "_isBlacklisted",
      "outputs": [
        {
          "internalType": "bool",
          "name": "",
          "type": "bool"
        }
      ],
      "stateMutability": "view",
      "type": "function"
    },
    {
      "inputs": [],
      "name": "_marketingWalletAddress",
      "outputs": [
        {
          "internalType": "address",
          "name": "",
          "type": "address"
        }
      ],
      "stateMutability": "view",
      "type": "function"
    },
    {
      "inputs": [
        {
          "internalType": "address",
          "name": "owner",
          "type": "address"
        },
        {
          "internalType": "address",
          "name": "spender",
          "type": "address"
        }
      ],
      "name": "allowance",
      "outputs": [
        {
          "internalType": "uint256",
          "name": "",
          "type": "uint256"
        }
      ],
      "stateMutability": "view",
      "type": "function"
    },
    {
      "inputs": [
        {
          "internalType": "address",
          "name": "spender",
          "type": "address"
        },
        {
          "internalType": "uint256",
          "name": "amount",
          "type": "uint256"
        }
      ],
      "name": "approve",
      "outputs": [
        {
          "internalType": "bool",
          "name": "",
          "type": "bool"
        }
      ],
      "stateMutability": "nonpayable",
      "type": "function"
    },
    {
      "inputs": [
        {
          "internalType": "address",
          "name": "",
          "type": "address"
        }
      ],
      "name": "automatedMarketMakerPairs",
      "outputs": [
        {
          "internalType": "bool",
          "name": "",
          "type": "bool"
        }
      ],
      "stateMutability": "view",
      "type": "function"
    },
    {
      "inputs": [
        {
          "internalType": "address",
          "name": "account",
          "type": "address"
        }
      ],
      "name": "balanceOf",
      "outputs": [
        {
          "internalType": "uint256",
          "name": "",
          "type": "uint256"
        }
      ],
      "stateMutability": "view",
      "type": "function"
    },
    {
      "inputs": [
        {
          "internalType": "address",
          "name": "account",
          "type": "address"
        },
        {
          "internalType": "bool",
          "name": "value",
          "type": "bool"
        }
      ],
      "name": "blacklistAddress",
      "outputs": [],
      "stateMutability": "nonpayable",
      "type": "function"
    },
    {
      "inputs": [],
      "name": "claim",
      "outputs": [],
      "stateMutability": "nonpayable",
      "type": "function"
    },
    {
      "inputs": [],
      "name": "deadWallet",
      "outputs": [
        {
          "internalType": "address",
          "name": "",
          "type": "address"
        }
      ],
      "stateMutability": "view",
      "type": "function"
    },
    {
      "inputs": [],
      "name": "decimals",
      "outputs": [
        {
          "internalType": "uint8",
          "name": "",
          "type": "uint8"
        }
      ],
      "stateMutability": "view",
      "type": "function"
    },
    {
      "inputs": [
        {
          "internalType": "address",
          "name": "spender",
          "type": "address"
        },
        {
          "internalType": "uint256",
          "name": "subtractedValue",
          "type": "uint256"
        }
      ],
      "name": "decreaseAllowance",
      "outputs": [
        {
          "internalType": "bool",
          "name": "",
          "type": "bool"
        }
      ],
      "stateMutability": "nonpayable",
      "type": "function"
    },
    {
      "inputs": [
        {
          "internalType": "address",
          "name": "account",
          "type": "address"
        }
      ],
      "name": "deletePremiumUserByAddress",
      "outputs": [],
      "stateMutability": "nonpayable",
      "type": "function"
    },
    {
      "inputs": [
        {
          "internalType": "address",
          "name": "account",
          "type": "address"
        }
      ],
      "name": "dividendTokenBalanceOf",
      "outputs": [
        {
          "internalType": "uint256",
          "name": "",
          "type": "uint256"
        }
      ],
      "stateMutability": "view",
      "type": "function"
    },
    {
      "inputs": [],
      "name": "dividendTracker",
      "outputs": [
        {
          "internalType": "contract OLPDividendTracker",
          "name": "",
          "type": "address"
        }
      ],
      "stateMutability": "view",
      "type": "function"
    },
    {
      "inputs": [
        {
          "internalType": "address",
          "name": "account",
          "type": "address"
        }
      ],
      "name": "excludeFromDividends",
      "outputs": [],
      "stateMutability": "nonpayable",
      "type": "function"
    },
    {
      "inputs": [
        {
          "internalType": "address",
          "name": "account",
          "type": "address"
        },
        {
          "internalType": "bool",
          "name": "excluded",
          "type": "bool"
        }
      ],
      "name": "excludeFromFees",
      "outputs": [],
      "stateMutability": "nonpayable",
      "type": "function"
    },
    {
      "inputs": [
        {
          "internalType": "address[]",
          "name": "accounts",
          "type": "address[]"
        },
        {
          "internalType": "bool",
          "name": "excluded",
          "type": "bool"
        }
      ],
      "name": "excludeMultipleAccountsFromFees",
      "outputs": [],
      "stateMutability": "nonpayable",
      "type": "function"
    },
    {
      "inputs": [],
      "name": "gasForProcessing",
      "outputs": [
        {
          "internalType": "uint256",
          "name": "",
          "type": "uint256"
        }
      ],
      "stateMutability": "view",
      "type": "function"
    },
    {
      "inputs": [
        {
          "internalType": "address",
          "name": "account",
          "type": "address"
        }
      ],
      "name": "getAccountDividendsInfo",
      "outputs": [
        {
          "internalType": "address",
          "name": "",
          "type": "address"
        },
        {
          "internalType": "int256",
          "name": "",
          "type": "int256"
        },
        {
          "internalType": "int256",
          "name": "",
          "type": "int256"
        },
        {
          "internalType": "uint256",
          "name": "",
          "type": "uint256"
        },
        {
          "internalType": "uint256",
          "name": "",
          "type": "uint256"
        },
        {
          "internalType": "uint256",
          "name": "",
          "type": "uint256"
        },
        {
          "internalType": "uint256",
          "name": "",
          "type": "uint256"
        },
        {
          "internalType": "uint256",
          "name": "",
          "type": "uint256"
        }
      ],
      "stateMutability": "view",
      "type": "function"
    },
    {
      "inputs": [
        {
          "internalType": "uint256",
          "name": "index",
          "type": "uint256"
        }
      ],
      "name": "getAccountDividendsInfoAtIndex",
      "outputs": [
        {
          "internalType": "address",
          "name": "",
          "type": "address"
        },
        {
          "internalType": "int256",
          "name": "",
          "type": "int256"
        },
        {
          "internalType": "int256",
          "name": "",
          "type": "int256"
        },
        {
          "internalType": "uint256",
          "name": "",
          "type": "uint256"
        },
        {
          "internalType": "uint256",
          "name": "",
          "type": "uint256"
        },
        {
          "internalType": "uint256",
          "name": "",
          "type": "uint256"
        },
        {
          "internalType": "uint256",
          "name": "",
          "type": "uint256"
        },
        {
          "internalType": "uint256",
          "name": "",
          "type": "uint256"
        }
      ],
      "stateMutability": "view",
      "type": "function"
    },
    {
      "inputs": [],
      "name": "getClaimWait",
      "outputs": [
        {
          "internalType": "uint256",
          "name": "",
          "type": "uint256"
        }
      ],
      "stateMutability": "view",
      "type": "function"
    },
    {
      "inputs": [],
      "name": "getLastProcessedIndex",
      "outputs": [
        {
          "internalType": "uint256",
          "name": "",
          "type": "uint256"
        }
      ],
      "stateMutability": "view",
      "type": "function"
    },
    {
      "inputs": [],
      "name": "getNumberOfDividendTokenHolders",
      "outputs": [
        {
          "internalType": "uint256",
          "name": "",
          "type": "uint256"
        }
      ],
      "stateMutability": "view",
      "type": "function"
    },
    {
      "inputs": [],
      "name": "getPremiumList",
      "outputs": [
        {
          "internalType": "address[]",
          "name": "",
          "type": "address[]"
        }
      ],
      "stateMutability": "view",
      "type": "function"
    },
    {
      "inputs": [],
      "name": "getTotalDividendsDistributed",
      "outputs": [
        {
          "internalType": "uint256",
          "name": "",
          "type": "uint256"
        }
      ],
      "stateMutability": "view",
      "type": "function"
    },
    {
      "inputs": [
        {
          "internalType": "address",
          "name": "spender",
          "type": "address"
        },
        {
          "internalType": "uint256",
          "name": "addedValue",
          "type": "uint256"
        }
      ],
      "name": "increaseAllowance",
      "outputs": [
        {
          "internalType": "bool",
          "name": "",
          "type": "bool"
        }
      ],
      "stateMutability": "nonpayable",
      "type": "function"
    },
    {
      "inputs": [
        {
          "internalType": "address",
          "name": "",
          "type": "address"
        }
      ],
      "name": "isExcludedFromAntiWhale",
      "outputs": [
        {
          "internalType": "bool",
          "name": "",
          "type": "bool"
        }
      ],
      "stateMutability": "view",
      "type": "function"
    },
    {
      "inputs": [
        {
          "internalType": "address",
          "name": "account",
          "type": "address"
        }
      ],
      "name": "isExcludedFromFees",
      "outputs": [
        {
          "internalType": "bool",
          "name": "",
          "type": "bool"
        }
      ],
      "stateMutability": "view",
      "type": "function"
    },
    {
      "inputs": [
        {
          "internalType": "address",
          "name": "",
          "type": "address"
        }
      ],
      "name": "isExcludedFromTransactionlock",
      "outputs": [
        {
          "internalType": "bool",
          "name": "",
          "type": "bool"
        }
      ],
      "stateMutability": "view",
      "type": "function"
    },
    {
      "inputs": [
        {
          "internalType": "address",
          "name": "",
          "type": "address"
        }
      ],
      "name": "isPremium",
      "outputs": [
        {
          "internalType": "bool",
          "name": "premium",
          "type": "bool"
        },
        {
          "internalType": "uint256",
          "name": "balance",
          "type": "uint256"
        }
      ],
      "stateMutability": "view",
      "type": "function"
    },
    {
      "inputs": [
        {
          "internalType": "address",
          "name": "",
          "type": "address"
        }
      ],
      "name": "isTxLimitExempt",
      "outputs": [
        {
          "internalType": "bool",
          "name": "",
          "type": "bool"
        }
      ],
      "stateMutability": "view",
      "type": "function"
    },
    {
      "inputs": [],
      "name": "liquidityFee",
      "outputs": [
        {
          "internalType": "uint256",
          "name": "",
          "type": "uint256"
        }
      ],
      "stateMutability": "view",
      "type": "function"
    },
    {
      "inputs": [
        {
          "internalType": "uint256",
          "name": "",
          "type": "uint256"
        }
      ],
      "name": "listPremium",
      "outputs": [
        {
          "internalType": "address",
          "name": "",
          "type": "address"
        }
      ],
      "stateMutability": "view",
      "type": "function"
    },
    {
      "inputs": [],
      "name": "marketingFee",
      "outputs": [
        {
          "internalType": "uint256",
          "name": "",
          "type": "uint256"
        }
      ],
      "stateMutability": "view",
      "type": "function"
    },
    {
      "inputs": [],
      "name": "maxTokensPerAddress",
      "outputs": [
        {
          "internalType": "uint256",
          "name": "",
          "type": "uint256"
        }
      ],
      "stateMutability": "view",
      "type": "function"
    },
    {
      "inputs": [],
      "name": "maxTxAmount",
      "outputs": [
        {
          "internalType": "uint256",
          "name": "",
          "type": "uint256"
        }
      ],
      "stateMutability": "view",
      "type": "function"
    },
    {
      "inputs": [],
      "name": "name",
      "outputs": [
        {
          "internalType": "string",
          "name": "",
          "type": "string"
        }
      ],
      "stateMutability": "view",
      "type": "function"
    },
    {
      "inputs": [],
      "name": "owner",
      "outputs": [
        {
          "internalType": "address",
          "name": "",
          "type": "address"
        }
      ],
      "stateMutability": "view",
      "type": "function"
    },
    {
      "inputs": [
        {
          "internalType": "uint256",
          "name": "gas",
          "type": "uint256"
        }
      ],
      "name": "processDividendTracker",
      "outputs": [],
      "stateMutability": "nonpayable",
      "type": "function"
    },
    {
      "inputs": [],
      "name": "renounceOwnership",
      "outputs": [],
      "stateMutability": "nonpayable",
      "type": "function"
    },
    {
      "inputs": [
        {
          "internalType": "address",
          "name": "pair",
          "type": "address"
        },
        {
          "internalType": "bool",
          "name": "value",
          "type": "bool"
        }
      ],
      "name": "setAutomatedMarketMakerPair",
      "outputs": [],
      "stateMutability": "nonpayable",
      "type": "function"
    },
    {
      "inputs": [
        {
          "internalType": "uint256",
          "name": "value",
          "type": "uint256"
        }
      ],
      "name": "setBNBRewardsFee",
      "outputs": [],
      "stateMutability": "nonpayable",
      "type": "function"
    },
    {
      "inputs": [
        {
          "internalType": "uint256",
          "name": "reflectFee",
          "type": "uint256"
        },
        {
          "internalType": "uint256",
          "name": "marketFee",
          "type": "uint256"
        },
        {
          "internalType": "uint256",
          "name": "liquidFee",
          "type": "uint256"
        }
      ],
      "name": "setBuyFees",
      "outputs": [],
      "stateMutability": "nonpayable",
      "type": "function"
    },
    {
      "inputs": [
        {
          "internalType": "address",
          "name": "account",
          "type": "address"
        },
        {
          "internalType": "bool",
          "name": "excluded",
          "type": "bool"
        }
      ],
      "name": "setIsExcludedFromAntiWhale",
      "outputs": [],
      "stateMutability": "nonpayable",
      "type": "function"
    },
    {
      "inputs": [
        {
          "internalType": "address",
          "name": "account",
          "type": "address"
        },
        {
          "internalType": "bool",
          "name": "excluded",
          "type": "bool"
        }
      ],
      "name": "setIsExcludedFromTransactionCooldown",
      "outputs": [],
      "stateMutability": "nonpayable",
      "type": "function"
    },
    {
      "inputs": [
        {
          "internalType": "address",
          "name": "account",
          "type": "address"
        },
        {
          "internalType": "uint256",
          "name": "balance",
          "type": "uint256"
        }
      ],
      "name": "setIsPremium",
      "outputs": [],
      "stateMutability": "nonpayable",
      "type": "function"
    },
    {
      "inputs": [
        {
          "internalType": "address",
          "name": "holder",
          "type": "address"
        },
        {
          "internalType": "bool",
          "name": "exempt",
          "type": "bool"
        }
      ],
      "name": "setIsTxLimitExempt",
      "outputs": [],
      "stateMutability": "nonpayable",
      "type": "function"
    },
    {
      "inputs": [
        {
          "internalType": "uint256",
          "name": "value",
          "type": "uint256"
        }
      ],
      "name": "setLiquiditFee",
      "outputs": [],
      "stateMutability": "nonpayable",
      "type": "function"
    },
    {
      "inputs": [
        {
          "internalType": "uint256",
          "name": "value",
          "type": "uint256"
        }
      ],
      "name": "setMarketingFee",
      "outputs": [],
      "stateMutability": "nonpayable",
      "type": "function"
    },
    {
      "inputs": [
        {
          "internalType": "address payable",
          "name": "wallet",
          "type": "address"
        }
      ],
      "name": "setMarketingWallet",
      "outputs": [],
      "stateMutability": "nonpayable",
      "type": "function"
    },
    {
      "inputs": [
        {
          "internalType": "uint256",
          "name": "reflectFee",
          "type": "uint256"
        },
        {
          "internalType": "uint256",
          "name": "marketFee",
          "type": "uint256"
        },
        {
          "internalType": "uint256",
          "name": "liquidFee",
          "type": "uint256"
        }
      ],
      "name": "setSellFees",
      "outputs": [],
      "stateMutability": "nonpayable",
      "type": "function"
    },
    {
      "inputs": [
        {
          "internalType": "uint256",
          "name": "transactiontime",
          "type": "uint256"
        }
      ],
      "name": "setTransactionCooldownTime",
      "outputs": [],
      "stateMutability": "nonpayable",
      "type": "function"
    },
    {
      "inputs": [
        {
          "internalType": "uint256",
          "name": "_percentage",
          "type": "uint256"
        }
      ],
      "name": "setmaxTokensPerAddressPercentage",
      "outputs": [],
      "stateMutability": "nonpayable",
      "type": "function"
    },
    {
      "inputs": [
        {
          "internalType": "uint256",
          "name": "_percentage",
          "type": "uint256"
        }
      ],
      "name": "setmaxTransactionPercentage",
      "outputs": [],
      "stateMutability": "nonpayable",
      "type": "function"
    },
    {
      "inputs": [],
      "name": "swapTokensAtAmount",
      "outputs": [
        {
          "internalType": "uint256",
          "name": "",
          "type": "uint256"
        }
      ],
      "stateMutability": "view",
      "type": "function"
    },
    {
      "inputs": [],
      "name": "symbol",
      "outputs": [
        {
          "internalType": "string",
          "name": "",
          "type": "string"
        }
      ],
      "stateMutability": "view",
      "type": "function"
    },
    {
      "inputs": [],
      "name": "totalFees",
      "outputs": [
        {
          "internalType": "uint256",
          "name": "",
          "type": "uint256"
        }
      ],
      "stateMutability": "view",
      "type": "function"
    },
    {
      "inputs": [],
      "name": "totalSupply",
      "outputs": [
        {
          "internalType": "uint256",
          "name": "",
          "type": "uint256"
        }
      ],
      "stateMutability": "view",
      "type": "function"
    },
    {
      "inputs": [],
      "name": "transactionLockTime",
      "outputs": [
        {
          "internalType": "uint256",
          "name": "",
          "type": "uint256"
        }
      ],
      "stateMutability": "view",
      "type": "function"
    },
    {
      "inputs": [
        {
          "internalType": "address",
          "name": "recipient",
          "type": "address"
        },
        {
          "internalType": "uint256",
          "name": "amount",
          "type": "uint256"
        }
      ],
      "name": "transfer",
      "outputs": [
        {
          "internalType": "bool",
          "name": "",
          "type": "bool"
        }
      ],
      "stateMutability": "nonpayable",
      "type": "function"
    },
    {
      "inputs": [
        {
          "internalType": "address",
          "name": "sender",
          "type": "address"
        },
        {
          "internalType": "address",
          "name": "recipient",
          "type": "address"
        },
        {
          "internalType": "uint256",
          "name": "amount",
          "type": "uint256"
        }
      ],
      "name": "transferFrom",
      "outputs": [
        {
          "internalType": "bool",
          "name": "",
          "type": "bool"
        }
      ],
      "stateMutability": "nonpayable",
      "type": "function"
    },
    {
      "inputs": [
        {
          "internalType": "address",
          "name": "newOwner",
          "type": "address"
        }
      ],
      "name": "transferOwnership",
      "outputs": [],
      "stateMutability": "nonpayable",
      "type": "function"
    },
    {
      "inputs": [],
      "name": "uniswapV2Pair",
      "outputs": [
        {
          "internalType": "address",
          "name": "",
          "type": "address"
        }
      ],
      "stateMutability": "view",
      "type": "function"
    },
    {
      "inputs": [],
      "name": "uniswapV2Router",
      "outputs": [
        {
          "internalType": "contract IUniswapV2Router02",
          "name": "",
          "type": "address"
        }
      ],
      "stateMutability": "view",
      "type": "function"
    },
    {
      "inputs": [
        {
          "internalType": "uint256",
          "name": "claimWait",
          "type": "uint256"
        }
      ],
      "name": "updateClaimWait",
      "outputs": [],
      "stateMutability": "nonpayable",
      "type": "function"
    },
    {
      "inputs": [
        {
          "internalType": "address",
          "name": "newAddress",
          "type": "address"
        }
      ],
      "name": "updateDividendTracker",
      "outputs": [],
      "stateMutability": "nonpayable",
      "type": "function"
    },
    {
      "inputs": [
        {
          "internalType": "uint256",
          "name": "newValue",
          "type": "uint256"
        }
      ],
      "name": "updateGasForProcessing",
      "outputs": [],
      "stateMutability": "nonpayable",
      "type": "function"
    },
    {
      "inputs": [
        {
          "internalType": "address",
          "name": "newAddress",
          "type": "address"
        }
      ],
      "name": "updateUniswapV2Router",
      "outputs": [],
      "stateMutability": "nonpayable",
      "type": "function"
    },
    {
      "inputs": [
        {
          "internalType": "address",
          "name": "account",
          "type": "address"
        }
      ],
      "name": "withdrawableDividendOf",
      "outputs": [
        {
          "internalType": "uint256",
          "name": "",
          "type": "uint256"
        }
      ],
      "stateMutability": "view",
      "type": "function"
    },
    {
      "stateMutability": "payable",
      "type": "receive"
    }
  ],
  "bytecode": "0x60806040526011805461dead6001600160a01b03199091161790556a01a784379d99db4200000060125560036018819055600260198190556007601a819055620000719290916200005d919062000851602090811b620025f117901c565b6200085160201b620025f11790919060201c565b601b556c01431e0fae6d7217caa0000000601c55620000a36101f4601c54620008c160201b620026571790919060201c565b601d55620000de6103e8620000ca6006601c546200090b60201b620026991790919060201c565b620008c160201b620026571790919060201c565b601e55601f80546001600160a01b031916730a8b049ad6f89ce923365c74a2baa34532ef4d95179055620493e060205561012c6021553480156200012157600080fd5b50604080518082018252600a8152694f6c796d70696120563160b01b6020808301918252835180850190945260068452654f4c5020563160d01b908401528151919291620001729160039162000ea4565b5080516200018890600490602084019062000ea4565b50505060006200019d6200099260201b60201c565b600580546001600160a01b0319166001600160a01b038316908117909155604051919250906000907f8be0079c531659141344cd1fd0a4f28419497f9722a3daafe3b4186f6b6457e0908290a350604051620001f99062000f33565b604051809103906000f08015801562000216573d6000803e3d6000fd5b50601060006101000a8154816001600160a01b0302191690836001600160a01b031602179055506000739ac64cc6e4415144c455bd8e4837fea55603e5c390506000816001600160a01b031663c45a01556040518163ffffffff1660e01b8152600401602060405180830381865afa15801562000297573d6000803e3d6000fd5b505050506040513d601f19601f82011682018060405250810190620002bd919062000f58565b6001600160a01b031663c9c6539630846001600160a01b031663ad5c46486040518163ffffffff1660e01b8152600401602060405180830381865afa1580156200030b573d6000803e3d6000fd5b505050506040513d601f19601f8201168201806040525081019062000331919062000f58565b6040516001600160e01b031960e085901b1681526001600160a01b039283166004820152911660248201526044016020604051808303816000875af11580156200037f573d6000803e3d6000fd5b505050506040513d601f19601f82011682018060405250810190620003a5919062000f58565b600680546001600160a01b038086166001600160a01b03199283161790925560078054928416929091169190911790559050620003e481600162000996565b60105460405163031e79db60e41b81526001600160a01b0390911660048201819052906331e79db090602401600060405180830381600087803b1580156200042b57600080fd5b505af115801562000440573d6000803e3d6000fd5b505060105460405163031e79db60e41b81523060048201526001600160a01b0390911692506331e79db09150602401600060405180830381600087803b1580156200048a57600080fd5b505af11580156200049f573d6000803e3d6000fd5b50506010546001600160a01b031691506331e79db09050620004c96005546001600160a01b031690565b6040516001600160e01b031960e084901b1681526001600160a01b039091166004820152602401600060405180830381600087803b1580156200050b57600080fd5b505af115801562000520573d6000803e3d6000fd5b505060105460115460405163031e79db60e41b81526001600160a01b039182166004820152911692506331e79db09150602401600060405180830381600087803b1580156200056e57600080fd5b505af115801562000583573d6000803e3d6000fd5b505060105460405163031e79db60e41b81526001600160a01b03868116600483015290911692506331e79db09150602401600060405180830381600087803b158015620005cf57600080fd5b505af1158015620005e4573d6000803e3d6000fd5b5050506001600160a01b03821660009081526015602081905260408220805460ff19166001908117909155925090620006256005546001600160a01b031690565b6001600160a01b03908116825260208083019390935260409182016000908120805495151560ff1996871617905560115482168152601584528281208054861660019081179091553082528382208054871682179055601f5483168252838220805487168217905587831682528382208054871682179055918616815260169384905291822080549094168117909355620006c86005546001600160a01b031690565b6001600160a01b03908116825260208083019390935260409182016000908120805495151560ff199687161790553081526016909352818320805485166001908117909155601f80548316855283852080548716831790558783168552838520805487168317905554909116835290822080549093168117909255601490620007596005546001600160a01b031690565b6001600160a01b0316815260208082019290925260409081016000908120805494151560ff199586161790553081526014909252902080549091166001179055620007b8620007b06005546001600160a01b031690565b600062000af9565b6003600a8190556007600b556002600c819055600d919091556009600e55600f55620007f8620007f06005546001600160a01b031690565b600162000c39565b601f5462000811906001600160a01b0316600162000c39565b6200081e30600162000c39565b62000849620008356005546001600160a01b031690565b6c01431e0fae6d7217caa000000062000d6c565b50506200108e565b60008062000860838562000f99565b905083811015620008b85760405162461bcd60e51b815260206004820152601b60248201527f536166654d6174683a206164646974696f6e206f766572666c6f77000000000060448201526064015b60405180910390fd5b90505b92915050565b6000620008b883836040518060400160405280601a81526020017f536166654d6174683a206469766973696f6e206279207a65726f00000000000081525062000e6860201b60201c565b6000826200091c57506000620008bb565b60006200092a838562000fb4565b90508262000939858362000fd6565b14620008b85760405162461bcd60e51b815260206004820152602160248201527f536166654d6174683a206d756c7469706c69636174696f6e206f766572666c6f6044820152607760f81b6064820152608401620008af565b3390565b6001600160a01b03821660009081526024602052604090205460ff161515811515141562000a2d5760405162461bcd60e51b815260206004820152603d60248201527f4f4c503a204175746f6d61746564206d61726b6574206d616b6572207061697260448201527f20697320616c72656164792073657420746f20746861742076616c75650000006064820152608401620008af565b6001600160a01b0382166000908152602460205260409020805460ff1916821580159190911790915562000abd5760105460405163031e79db60e41b81526001600160a01b038481166004830152909116906331e79db090602401600060405180830381600087803b15801562000aa357600080fd5b505af115801562000ab8573d6000803e3d6000fd5b505050505b604051811515906001600160a01b038416907fffa9187bf1f18bf477bd0ea1bcbb64e93b6a98132473929edfce215cd9b16fab90600090a35050565b6005546001600160a01b0316331462000b445760405162461bcd60e51b815260206004820181905260248201526000805160206200709c8339815191526044820152606401620008af565b6001600160a01b03821660009081526017602052604090205460ff161562000bca5760405162461bcd60e51b815260206004820152603260248201527f55736572206d757374206e6f74206265207072656d69756d206265666f726520604482015271746f2061766f6964206475706c696361746560701b6064820152608401620008af565b6001600160a01b039091166000818152601760205260408120805460ff1916600190811782559081019390935560088054938401815590527ff3f7a9fe364faab93b216da50a3214154f22a0a2b415b23a84c8169e8b636ee390910180546001600160a01b0319169091179055565b6005546001600160a01b0316331462000c845760405162461bcd60e51b815260206004820181905260248201526000805160206200709c8339815191526044820152606401620008af565b6001600160a01b03821660009081526022602052604090205460ff161515811515141562000d0d5760405162461bcd60e51b815260206004820152602f60248201527f4f4c503a204163636f756e7420697320616c7265616479207468652076616c7560448201526e65206f6620276578636c756465642760881b6064820152608401620008af565b6001600160a01b038216600081815260226020908152604091829020805460ff191685151590811790915591519182527f9d8f7706ea1113d1a167b526eca956215946dd36cc7df39eb16180222d8b5df7910160405180910390a25050565b6001600160a01b03821662000dc45760405162461bcd60e51b815260206004820152601f60248201527f45524332303a206d696e7420746f20746865207a65726f2061646472657373006044820152606401620008af565b62000de0816002546200085160201b620025f11790919060201c565b6002556001600160a01b0382166000908152602081815260409091205462000e13918390620025f162000851821b17901c565b6001600160a01b038316600081815260208181526040808320949094559251848152919290917fddf252ad1be2c89b69c2b068fc378daa952ba7f163c4a11628f55a4df523b3ef910160405180910390a35050565b6000818362000e8c5760405162461bcd60e51b8152600401620008af919062000ff9565b50600062000e9b848662000fd6565b95945050505050565b82805462000eb29062001051565b90600052602060002090601f01602090048101928262000ed6576000855562000f21565b82601f1062000ef157805160ff191683800117855562000f21565b8280016001018555821562000f21579182015b8281111562000f2157825182559160200191906001019062000f04565b5062000f2f92915062000f41565b5090565b6122bf8062004ddd83390190565b5b8082111562000f2f576000815560010162000f42565b60006020828403121562000f6b57600080fd5b81516001600160a01b0381168114620008b857600080fd5b634e487b7160e01b600052601160045260246000fd5b6000821982111562000faf5762000faf62000f83565b500190565b600081600019048311821515161562000fd15762000fd162000f83565b500290565b60008262000ff457634e487b7160e01b600052601260045260246000fd5b500490565b600060208083528351808285015260005b8181101562001028578581018301518582016040015282016200100a565b818111156200103b576000604083870101525b50601f01601f1916929092016040019392505050565b600181811c908216806200106657607f821691505b602082108114156200108857634e487b7160e01b600052602260045260246000fd5b50919050565b613d3f806200109e6000396000f3fe6080604052600436106104095760003560e01c80636bcc014d11610213578063a457c2d711610123578063d01f5816116100ab578063e98030c71161007a578063e98030c714610cdd578063f27fd25414610cfd578063f2fde38b14610d1d578063f725101d14610d3d578063f84ba65d14610d5d57600080fd5b8063d01f581614610c56578063dd62ed3e14610c6c578063e2f4560514610cb2578063e7841ec014610cc857600080fd5b8063adefd90c116100f2578063adefd90c14610bb0578063aed8260614610bd0578063b62496f514610be6578063c024666814610c16578063c492f04614610c3657600080fd5b8063a457c2d714610aeb578063a8b9d24014610b0b578063a9059cbb14610b2b578063ad56c13c14610b4b57600080fd5b806388bdd9be116101a657806395d89b411161017557806395d89b4114610a7557806398118cb414610a8a5780639a7a23d614610aa05780639c1b8af514610ac0578063a26579ad14610ad657600080fd5b806388bdd9be146109f15780638b42507f14610a115780638c0b5e2214610a415780638da5cb5b14610a5757600080fd5b8063715018a6116101e2578063715018a61461094b578063742fe0d41461096057806385141a77146109b1578063871c128d146109d157600080fd5b80636bcc014d146108a55780636c4f9c6c146108d5578063700bb191146108f557806370a082311461091557600080fd5b806331e79db0116103195780635d098b38116102a157806365b8dbc01161027057806365b8dbc01461080f578063665278d71461082f5780636843cd841461084f5780636a9d90691461086f5780636b67c4df1461088f57600080fd5b80635d098b381461079a5780635d443783146107ba578063625e764c146107da57806364b0f653146107fa57600080fd5b8063455a4396116102e8578063455a4396146106ec57806347c4ff731461070c57806349bd5a5e1461072c5780634e71d92d1461074c5780634fbee1931461076157600080fd5b806331e79db01461066c578063395093511461068c5780634144d9e4146106ac57806341b62b4a146106cc57600080fd5b806318160ddd1161039c57806323b872dd1161036b57806323b872dd146105cb578063269f534c146105eb5780632c1f52161461061b57806330bb4cff1461063b578063313ce5671461065057600080fd5b806318160ddd146105505780631cdd3be3146105655780632178072f1461059557806323a1baaa146105b557600080fd5b80630e84044a116103d85780630e84044a146104b25780630f683e90146104d457806313114a9d146104f45780631694505e1461051857600080fd5b806306fdde0314610415578063091556f214610440578063095ea7b3146104625780630d075d9c1461049257600080fd5b3661041057005b600080fd5b34801561042157600080fd5b5061042a610d7d565b6040516104379190613625565b60405180910390f35b34801561044c57600080fd5b5061046061045b36600461367a565b610e0f565b005b34801561046e57600080fd5b5061048261047d3660046136b8565b610e69565b6040519015158152602001610437565b34801561049e57600080fd5b506104606104ad3660046136e4565b610e80565b3480156104be57600080fd5b506104c7610eb8565b6040516104379190613754565b3480156104e057600080fd5b506104606104ef3660046136e4565b610f19565b34801561050057600080fd5b5061050a601b5481565b604051908152602001610437565b34801561052457600080fd5b50600654610538906001600160a01b031681565b6040516001600160a01b039091168152602001610437565b34801561055c57600080fd5b5060025461050a565b34801561057157600080fd5b50610482610580366004613767565b60136020526000908152604090205460ff1681565b3480156105a157600080fd5b506104606105b036600461367a565b610f51565b3480156105c157600080fd5b5061050a601e5481565b3480156105d757600080fd5b506104826105e6366004613784565b610fa2565b3480156105f757600080fd5b50610482610606366004613767565b60156020526000908152604090205460ff1681565b34801561062757600080fd5b50601054610538906001600160a01b031681565b34801561064757600080fd5b5061050a61100b565b34801561065c57600080fd5b5060405160128152602001610437565b34801561067857600080fd5b50610460610687366004613767565b61107e565b34801561069857600080fd5b506104826106a73660046136b8565b61110b565b3480156106b857600080fd5b50601f54610538906001600160a01b031681565b3480156106d857600080fd5b506104606106e73660046137de565b611141565b3480156106f857600080fd5b506104606107073660046137de565b611196565b34801561071857600080fd5b5061046061072736600461367a565b6111eb565b34801561073857600080fd5b50600754610538906001600160a01b031681565b34801561075857600080fd5b50610460611236565b34801561076d57600080fd5b5061048261077c366004613767565b6001600160a01b031660009081526022602052604090205460ff1690565b3480156107a657600080fd5b506104606107b5366004613767565b6112ae565b3480156107c657600080fd5b506104606107d536600461367a565b6112fa565b3480156107e657600080fd5b506104606107f536600461367a565b611329565b34801561080657600080fd5b5061050a61136d565b34801561081b57600080fd5b5061046061082a366004613767565b6113b7565b34801561083b57600080fd5b5061046061084a366004613767565b611626565b34801561085b57600080fd5b5061050a61086a366004613767565b61172d565b34801561087b57600080fd5b5061046061088a3660046136b8565b61179d565b34801561089b57600080fd5b5061050a601a5481565b3480156108b157600080fd5b506104826108c0366004613767565b60166020526000908152604090205460ff1681565b3480156108e157600080fd5b506105386108f036600461367a565b6118ba565b34801561090157600080fd5b5061046061091036600461367a565b6118e4565b34801561092157600080fd5b5061050a610930366004613767565b6001600160a01b031660009081526020819052604090205490565b34801561095757600080fd5b506104606119b6565b34801561096c57600080fd5b5061099a61097b366004613767565b6017602052600090815260409020805460019091015460ff9091169082565b604080519215158352602083019190915201610437565b3480156109bd57600080fd5b50601154610538906001600160a01b031681565b3480156109dd57600080fd5b506104606109ec36600461367a565b611a2a565b3480156109fd57600080fd5b50610460610a0c366004613767565b611b7b565b348015610a1d57600080fd5b50610482610a2c366004613767565b60146020526000908152604090205460ff1681565b348015610a4d57600080fd5b5061050a601d5481565b348015610a6357600080fd5b506005546001600160a01b0316610538565b348015610a8157600080fd5b5061042a611f04565b348015610a9657600080fd5b5061050a60195481565b348015610aac57600080fd5b50610460610abb3660046137de565b611f13565b348015610acc57600080fd5b5061050a60205481565b348015610ae257600080fd5b5061050a611fde565b348015610af757600080fd5b50610482610b063660046136b8565b612028565b348015610b1757600080fd5b5061050a610b26366004613767565b612077565b348015610b3757600080fd5b50610482610b463660046136b8565b6120aa565b348015610b5757600080fd5b50610b6b610b66366004613767565b6120b7565b604080516001600160a01b0390991689526020890197909752958701949094526060860192909252608085015260a084015260c083015260e082015261010001610437565b348015610bbc57600080fd5b50610460610bcb36600461367a565b612152565b348015610bdc57600080fd5b5061050a60215481565b348015610bf257600080fd5b50610482610c01366004613767565b60246020526000908152604090205460ff1681565b348015610c2257600080fd5b50610460610c313660046137de565b612196565b348015610c4257600080fd5b50610460610c5136600461382d565b6122a6565b348015610c6257600080fd5b5061050a60185481565b348015610c7857600080fd5b5061050a610c87366004613904565b6001600160a01b03918216600090815260016020908152604080832093909416825291909152205490565b348015610cbe57600080fd5b5061050a60125481565b348015610cd457600080fd5b5061050a612375565b348015610ce957600080fd5b50610460610cf836600461367a565b6123bf565b348015610d0957600080fd5b50610b6b610d1836600461367a565b61241a565b348015610d2957600080fd5b50610460610d38366004613767565b61245c565b348015610d4957600080fd5b50610460610d583660046137de565b612547565b348015610d6957600080fd5b50610460610d783660046137de565b61259c565b606060038054610d8c90613932565b80601f0160208091040260200160405190810160405280929190818152602001828054610db890613932565b8015610e055780601f10610dda57610100808354040283529160200191610e05565b820191906000526020600020905b815481529060010190602001808311610de857829003601f168201915b5050505050905090565b6005546001600160a01b03163314610e425760405162461bcd60e51b8152600401610e399061396d565b60405180910390fd5b610e636103e8610e5d83601c5461269990919063ffffffff16565b90612657565b601d5550565b6000610e76338484612718565b5060015b92915050565b6005546001600160a01b03163314610eaa5760405162461bcd60e51b8152600401610e399061396d565b600a92909255600b55600c55565b60606008805480602002602001604051908101604052809291908181526020018280548015610e0557602002820191906000526020600020905b81546001600160a01b03168152600190910190602001808311610ef2575050505050905090565b6005546001600160a01b03163314610f435760405162461bcd60e51b8152600401610e399061396d565b600d92909255600e55600f55565b6005546001600160a01b03163314610f7b5760405162461bcd60e51b8152600401610e399061396d565b6018819055601a54601954610f9c9190610f969084906125f1565b906125f1565b601b5550565b6000610faf84848461283d565b6110018433610ffc85604051806060016040528060288152602001613cbd602891396001600160a01b038a1660009081526001602090815260408083203384529091529020549190612f11565b612718565b5060019392505050565b601054604080516342d359d760e11b815290516000926001600160a01b0316916385a6b3ae9160048083019260209291908290030181865afa158015611055573d6000803e3d6000fd5b505050506040513d601f19601f8201168201806040525081019061107991906139a2565b905090565b6005546001600160a01b031633146110a85760405162461bcd60e51b8152600401610e399061396d565b60105460405163031e79db60e41b81526001600160a01b038381166004830152909116906331e79db0906024015b600060405180830381600087803b1580156110f057600080fd5b505af1158015611104573d6000803e3d6000fd5b5050505050565b3360008181526001602090815260408083206001600160a01b03871684529091528120549091610e76918590610ffc90866125f1565b6005546001600160a01b0316331461116b5760405162461bcd60e51b8152600401610e399061396d565b6001600160a01b03919091166000908152601660205260409020805460ff1916911515919091179055565b6005546001600160a01b031633146111c05760405162461bcd60e51b8152600401610e399061396d565b6001600160a01b03919091166000908152601360205260409020805460ff1916911515919091179055565b6005546001600160a01b031633146112155760405162461bcd60e51b8152600401610e399061396d565b6112306103e8610e5d83601c5461269990919063ffffffff16565b601e5550565b60105460405163bc4c4b3760e01b8152336004820152600060248201526001600160a01b039091169063bc4c4b37906044016020604051808303816000875af1158015611287573d6000803e3d6000fd5b505050506040513d601f19601f820116820180604052508101906112ab91906139bb565b50565b6005546001600160a01b031633146112d85760405162461bcd60e51b8152600401610e399061396d565b601f80546001600160a01b0319166001600160a01b0392909216919091179055565b6005546001600160a01b031633146113245760405162461bcd60e51b8152600401610e399061396d565b602155565b6005546001600160a01b031633146113535760405162461bcd60e51b8152600401610e399061396d565b601a819055601954601854610f9c918391610f96916125f1565b601054604080516304ddf6ef60e11b815290516000926001600160a01b0316916309bbedde9160048083019260209291908290030181865afa158015611055573d6000803e3d6000fd5b6005546001600160a01b031633146113e15760405162461bcd60e51b8152600401610e399061396d565b6006546001600160a01b03828116911614156114505760405162461bcd60e51b815260206004820152602860248201527f4f4c503a2054686520726f7574657220616c7265616479206861732074686174604482015267206164647265737360c01b6064820152608401610e39565b6006546040516001600160a01b03918216918316907f8fc842bbd331dfa973645f4ed48b11683d501ebf1352708d77a5da2ab49a576e90600090a3600680546001600160a01b0319166001600160a01b0383169081179091556040805163c45a015560e01b815290516000929163c45a01559160048083019260209291908290030181865afa1580156114e7573d6000803e3d6000fd5b505050506040513d601f19601f8201168201806040525081019061150b91906139d8565b6001600160a01b031663c9c6539630600660009054906101000a90046001600160a01b03166001600160a01b031663ad5c46486040518163ffffffff1660e01b8152600401602060405180830381865afa15801561156d573d6000803e3d6000fd5b505050506040513d601f19601f8201168201806040525081019061159191906139d8565b6040516001600160e01b031960e085901b1681526001600160a01b039283166004820152911660248201526044016020604051808303816000875af11580156115de573d6000803e3d6000fd5b505050506040513d601f19601f8201168201806040525081019061160291906139d8565b600780546001600160a01b0319166001600160a01b03929092169190911790555050565b6005546001600160a01b031633146116505760405162461bcd60e51b8152600401610e399061396d565b60005b60085481101561172957816001600160a01b03166008828154811061167a5761167a6139f5565b6000918252602090912001546001600160a01b03161415611717576001600160a01b0382166000908152601760205260408120805460ff191681556001015560088054829081106116cd576116cd6139f5565b6000918252602082200180546001600160a01b03191690556040516001600160a01b038416917f812c7c9579338ae6e7302a14466ac5c2bce8cfd43a4c2fd7ee6c96c545b6b94091a25b8061172181613a21565b915050611653565b5050565b6010546040516370a0823160e01b81526001600160a01b03838116600483015260009216906370a08231906024015b602060405180830381865afa158015611779573d6000803e3d6000fd5b505050506040513d601f19601f82011682018060405250810190610e7a91906139a2565b6005546001600160a01b031633146117c75760405162461bcd60e51b8152600401610e399061396d565b6001600160a01b03821660009081526017602052604090205460ff161561184b5760405162461bcd60e51b815260206004820152603260248201527f55736572206d757374206e6f74206265207072656d69756d206265666f726520604482015271746f2061766f6964206475706c696361746560701b6064820152608401610e39565b6001600160a01b039091166000818152601760205260408120805460ff1916600190811782559081019390935560088054938401815590527ff3f7a9fe364faab93b216da50a3214154f22a0a2b415b23a84c8169e8b636ee390910180546001600160a01b0319169091179055565b600881815481106118ca57600080fd5b6000918252602090912001546001600160a01b0316905081565b6010546040516001624d3b8760e01b0319815260048101839052600091829182916001600160a01b03169063ffb2c479906024016060604051808303816000875af1158015611937573d6000803e3d6000fd5b505050506040513d601f19601f8201168201806040525081019061195b9190613a3c565b604080518481526020810184905290810182905260608101889052929550909350915032906000907fc864333d6121033635ab41b29ae52f10a22cf4438c3e4f1c4c68518feb2f8a989060800160405180910390a350505050565b6005546001600160a01b031633146119e05760405162461bcd60e51b8152600401610e399061396d565b6005546040516000916001600160a01b0316907f8be0079c531659141344cd1fd0a4f28419497f9722a3daafe3b4186f6b6457e0908390a3600580546001600160a01b0319169055565b6005546001600160a01b03163314611a545760405162461bcd60e51b8152600401610e399061396d565b62030d408110158015611a6a57506207a1208111155b611adc5760405162461bcd60e51b815260206004820152603960248201527f4f4c503a20676173466f7250726f63657373696e67206d75737420626520626560448201527f747765656e203230302c30303020616e64203530302c303030000000000000006064820152608401610e39565b602054811415611b485760405162461bcd60e51b815260206004820152603160248201527f4f4c503a2043616e6e6f742075706461746520676173466f7250726f63657373604482015270696e6720746f2073616d652076616c756560781b6064820152608401610e39565b60205460405182907f40d7e40e79af4e8e5a9b3c57030d8ea93f13d669c06d448c4d631d4ae7d23db790600090a3602055565b6005546001600160a01b03163314611ba55760405162461bcd60e51b8152600401610e399061396d565b6010546001600160a01b0382811691161415611c1e5760405162461bcd60e51b815260206004820152603260248201527f4f4c503a20546865206469766964656e6420747261636b657220616c7265616460448201527179206861732074686174206164647265737360701b6064820152608401610e39565b6000819050306001600160a01b0316816001600160a01b0316638da5cb5b6040518163ffffffff1660e01b8152600401602060405180830381865afa158015611c6b573d6000803e3d6000fd5b505050506040513d601f19601f82011682018060405250810190611c8f91906139d8565b6001600160a01b031614611d195760405162461bcd60e51b815260206004820152604560248201527f4f4c503a20546865206e6577206469766964656e6420747261636b6572206d7560448201527f7374206265206f776e656420627920746865204f4c5020746f6b656e20636f6e6064820152641d1c9858dd60da1b608482015260a401610e39565b60405163031e79db60e41b81526001600160a01b03821660048201819052906331e79db090602401600060405180830381600087803b158015611d5b57600080fd5b505af1158015611d6f573d6000803e3d6000fd5b505060405163031e79db60e41b81523060048201526001600160a01b03841692506331e79db09150602401600060405180830381600087803b158015611db457600080fd5b505af1158015611dc8573d6000803e3d6000fd5b50505050806001600160a01b03166331e79db0611ded6005546001600160a01b031690565b6040516001600160e01b031960e084901b1681526001600160a01b039091166004820152602401600060405180830381600087803b158015611e2e57600080fd5b505af1158015611e42573d6000803e3d6000fd5b505060065460405163031e79db60e41b81526001600160a01b03918216600482015290841692506331e79db09150602401600060405180830381600087803b158015611e8d57600080fd5b505af1158015611ea1573d6000803e3d6000fd5b50506010546040516001600160a01b03918216935090851691507f90c7d74461c613da5efa97d90740869367d74ab3aa5837aa4ae9a975f954b7a890600090a3601080546001600160a01b0319166001600160a01b039290921691909117905550565b606060048054610d8c90613932565b6005546001600160a01b03163314611f3d5760405162461bcd60e51b8152600401610e399061396d565b6007546001600160a01b0383811691161415611fd45760405162461bcd60e51b815260206004820152604a60248201527f4f4c503a205468652050616e63616b655377617020706169722063616e6e6f7460448201527f2062652072656d6f7665642066726f6d206175746f6d617465644d61726b65746064820152694d616b6572506169727360b01b608482015260a401610e39565b6117298282612f4b565b60105460408051631bc9e27b60e21b815290516000926001600160a01b031691636f2789ec9160048083019260209291908290030181865afa158015611055573d6000803e3d6000fd5b6000610e763384610ffc85604051806060016040528060258152602001613ce5602591393360009081526001602090815260408083206001600160a01b038d1684529091529020549190612f11565b6010546040516302a2e74960e61b81526001600160a01b038381166004830152600092169063a8b9d2409060240161175c565b6000610e7633848461283d565b60105460405163fbcbc0f160e01b81526001600160a01b038381166004830152600092839283928392839283928392839291169063fbcbc0f1906024015b61010060405180830381865afa158015612113573d6000803e3d6000fd5b505050506040513d601f19601f820116820180604052508101906121379190613a6a565b97509750975097509750975097509750919395975091939597565b6005546001600160a01b0316331461217c5760405162461bcd60e51b8152600401610e399061396d565b6019819055601a54601854610f9c9190610f9690846125f1565b6005546001600160a01b031633146121c05760405162461bcd60e51b8152600401610e399061396d565b6001600160a01b03821660009081526022602052604090205460ff16151581151514156122475760405162461bcd60e51b815260206004820152602f60248201527f4f4c503a204163636f756e7420697320616c7265616479207468652076616c7560448201526e65206f6620276578636c756465642760881b6064820152608401610e39565b6001600160a01b038216600081815260226020908152604091829020805460ff191685151590811790915591519182527f9d8f7706ea1113d1a167b526eca956215946dd36cc7df39eb16180222d8b5df7910160405180910390a25050565b6005546001600160a01b031633146122d05760405162461bcd60e51b8152600401610e399061396d565b60005b82518110156123375781602260008584815181106122f3576122f36139f5565b6020908102919091018101516001600160a01b03168252810191909152604001600020805460ff19169115159190911790558061232f81613a21565b9150506122d3565b507f7fdaf542373fa84f4ee8d662c642f44e4c2276a217d7d29e548b6eb29a233b358282604051612369929190613ad4565b60405180910390a15050565b6010546040805163039e107b60e61b815290516000926001600160a01b03169163e7841ec09160048083019260209291908290030181865afa158015611055573d6000803e3d6000fd5b6005546001600160a01b031633146123e95760405162461bcd60e51b8152600401610e399061396d565b60105460405163e98030c760e01b8152600481018390526001600160a01b039091169063e98030c7906024016110d6565b601054604051635183d6fd60e01b81526004810183905260009182918291829182918291829182916001600160a01b0390911690635183d6fd906024016120f5565b6005546001600160a01b031633146124865760405162461bcd60e51b8152600401610e399061396d565b6001600160a01b0381166124eb5760405162461bcd60e51b815260206004820152602660248201527f4f776e61626c653a206e6577206f776e657220697320746865207a65726f206160448201526564647265737360d01b6064820152608401610e39565b6005546040516001600160a01b038084169216907f8be0079c531659141344cd1fd0a4f28419497f9722a3daafe3b4186f6b6457e090600090a3600580546001600160a01b0319166001600160a01b0392909216919091179055565b6005546001600160a01b031633146125715760405162461bcd60e51b8152600401610e399061396d565b6001600160a01b03919091166000908152601560205260409020805460ff1916911515919091179055565b6005546001600160a01b031633146125c65760405162461bcd60e51b8152600401610e399061396d565b6001600160a01b03919091166000908152601460205260409020805460ff1916911515919091179055565b6000806125fe8385613af8565b9050838110156126505760405162461bcd60e51b815260206004820152601b60248201527f536166654d6174683a206164646974696f6e206f766572666c6f7700000000006044820152606401610e39565b9392505050565b600061265083836040518060400160405280601a81526020017f536166654d6174683a206469766973696f6e206279207a65726f0000000000008152506130a9565b6000826126a857506000610e7a565b60006126b48385613b10565b9050826126c18583613b2f565b146126505760405162461bcd60e51b815260206004820152602160248201527f536166654d6174683a206d756c7469706c69636174696f6e206f766572666c6f6044820152607760f81b6064820152608401610e39565b6001600160a01b03831661277a5760405162461bcd60e51b8152602060048201526024808201527f45524332303a20617070726f76652066726f6d20746865207a65726f206164646044820152637265737360e01b6064820152608401610e39565b6001600160a01b0382166127db5760405162461bcd60e51b815260206004820152602260248201527f45524332303a20617070726f766520746f20746865207a65726f206164647265604482015261737360f01b6064820152608401610e39565b6001600160a01b0383811660008181526001602090815260408083209487168084529482529182902085905590518481527f8c5be1e5ebec7d5bd14f71427d1e84f3dd0314c0f7b2291e5b200ac8c7c3b92591015b60405180910390a3505050565b6001600160a01b0383166128635760405162461bcd60e51b8152600401610e3990613b51565b6001600160a01b0382166128895760405162461bcd60e51b8152600401610e3990613b96565b601d54811115806128b257506001600160a01b03831660009081526014602052604090205460ff165b6128fe5760405162461bcd60e51b815260206004820152601e60248201527f5472616e7366657220616d6f756e74206c696d697420657863656564656400006044820152606401610e39565b6001600160a01b03831660009081526013602052604090205460ff1615801561294057506001600160a01b03821660009081526013602052604090205460ff16155b6129825760405162461bcd60e51b8152602060048201526013602482015272426c61636b6c6973746564206164647265737360681b6044820152606401610e39565b6001600160a01b03821660009081526015602052604090205460ff16806129d45750601e54816129c7846001600160a01b031660009081526020819052604090205490565b6129d19190613af8565b11155b612a465760405162461bcd60e51b815260206004820152603f60248201527f4d617820746f6b656e73206c696d697420666f722074686973206163636f756e60448201527f742065786365656465642e204f7220747279206c6f77657220616d6f756e74006064820152608401610e39565b6001600160a01b03831660009081526016602052604090205460ff1680612a9257506021546001600160a01b038416600090815260236020526040902054612a8e9190613af8565b4210155b612aae5760405162461bcd60e51b8152600401610e3990613bd9565b6001600160a01b03821660009081526016602052604090205460ff1680612afa57506021546001600160a01b038316600090815260236020526040902054612af69190613af8565b4210155b612b165760405162461bcd60e51b8152600401610e3990613bd9565b6001600160a01b038084166000908152602360205260408082204290819055928516825290205580612b5357612b4e838360006130d7565b505050565b3060009081526020819052604090205460125481108015908190612b7a575060095460ff16155b8015612b9f57506001600160a01b03851660009081526024602052604090205460ff16155b8015612bb957506005546001600160a01b03868116911614155b8015612bd357506005546001600160a01b03858116911614155b15612c57576009805460ff19166001179055601b54601a54600091612bfd91610e5d908690612699565b9050612c08816131e0565b6000612c25601b54610e5d6019548761269990919063ffffffff16565b9050612c3081613237565b30600090815260208190526040902054612c49816132be565b50506009805460ff19169055505b6009546001600160a01b03861660009081526022602052604090205460ff91821615911680612c9e57506001600160a01b03851660009081526022602052604090205460ff165b15612ca7575060005b8015612d19576001600160a01b03861660009081526024602052604090205460ff16612cda57612cd5613374565b612ce2565b612ce261339e565b6000612cfe6064610e5d601b548861269990919063ffffffff16565b9050612d0a85826133c3565b9450612d178730836130d7565b505b612d248686866130d7565b6010546001600160a01b031663e30443bc87612d55816001600160a01b031660009081526020819052604090205490565b6040516001600160e01b031960e085901b1681526001600160a01b0390921660048301526024820152604401600060405180830381600087803b158015612d9b57600080fd5b505af1925050508015612dac575060015b506010546001600160a01b031663e30443bc86612dde816001600160a01b031660009081526020819052604090205490565b6040516001600160e01b031960e085901b1681526001600160a01b0390921660048301526024820152604401600060405180830381600087803b158015612e2457600080fd5b505af1925050508015612e35575060015b5060095460ff16612f09576020546010546040516001624d3b8760e01b03198152600481018390526001600160a01b039091169063ffb2c479906024016060604051808303816000875af1925050508015612ead575060408051601f3d908101601f19168201909252612eaa91810190613a3c565b60015b612eb657612f07565b60408051848152602081018490529081018290526060810185905232906001907fc864333d6121033635ab41b29ae52f10a22cf4438c3e4f1c4c68518feb2f8a989060800160405180910390a35050505b505b505050505050565b60008184841115612f355760405162461bcd60e51b8152600401610e399190613625565b506000612f428486613c43565b95945050505050565b6001600160a01b03821660009081526024602052604090205460ff1615158115151415612fe05760405162461bcd60e51b815260206004820152603d60248201527f4f4c503a204175746f6d61746564206d61726b6574206d616b6572207061697260448201527f20697320616c72656164792073657420746f20746861742076616c75650000006064820152608401610e39565b6001600160a01b0382166000908152602460205260409020805460ff1916821580159190911790915561306d5760105460405163031e79db60e41b81526001600160a01b038481166004830152909116906331e79db090602401600060405180830381600087803b15801561305457600080fd5b505af1158015613068573d6000803e3d6000fd5b505050505b604051811515906001600160a01b038416907fffa9187bf1f18bf477bd0ea1bcbb64e93b6a98132473929edfce215cd9b16fab90600090a35050565b600081836130ca5760405162461bcd60e51b8152600401610e399190613625565b506000612f428486613b2f565b6001600160a01b0383166130fd5760405162461bcd60e51b8152600401610e3990613b51565b6001600160a01b0382166131235760405162461bcd60e51b8152600401610e3990613b96565b61316081604051806060016040528060268152602001613c97602691396001600160a01b0386166000908152602081905260409020549190612f11565b6001600160a01b03808516600090815260208190526040808220939093559084168152205461318f90826125f1565b6001600160a01b038381166000818152602081815260409182902094909455518481529092918616917fddf252ad1be2c89b69c2b068fc378daa952ba7f163c4a11628f55a4df523b3ef9101612830565b476131ea82613405565b60006131f647836133c3565b601f546040519192506001600160a01b03169082156108fc029083906000818181858888f19350505050158015613231573d6000803e3d6000fd5b50505050565b6000613244826002612657565b9050600061325283836133c3565b90504761325e83613405565b600061326a47836133c3565b90506132768382613557565b60408051858152602081018390529081018490527f17bbfb9a6069321b6ded73bd96327c9e6b7212a5cd51ff219cd61370acafb5619060600160405180910390a15050505050565b476132c882613405565b60006132d447836133c3565b6010546040519192506000916001600160a01b039091169083908381818185875af1925050503d8060008114613326576040519150601f19603f3d011682016040523d82523d6000602084013e61332b565b606091505b5050905080156132315760408051858152602081018490527f80195cc573b02cc48460cbca6e6e4cc85ddb91959d946e1c3025ea3d87942dc3910160405180910390a150505050565b600d546018819055600e54601a819055600f54601981905561339992610f96916125f1565b601b55565b600a546018819055600b54601a819055600c54601981905561339992610f96916125f1565b600061265083836040518060400160405280601e81526020017f536166654d6174683a207375627472616374696f6e206f766572666c6f770000815250612f11565b604080516002808252606082018352600092602083019080368337019050509050308160008151811061343a5761343a6139f5565b6001600160a01b03928316602091820292909201810191909152600654604080516315ab88c960e31b81529051919093169263ad5c46489260048083019391928290030181865afa158015613493573d6000803e3d6000fd5b505050506040513d601f19601f820116820180604052508101906134b791906139d8565b816001815181106134ca576134ca6139f5565b6001600160a01b0392831660209182029290920101526006546134f09130911684612718565b60065460405163791ac94760e01b81526001600160a01b039091169063791ac94790613529908590600090869030904290600401613c5a565b600060405180830381600087803b15801561354357600080fd5b505af1158015612f09573d6000803e3d6000fd5b60065461356f9030906001600160a01b031684612718565b6006546001600160a01b031663f305d7198230856000806135986005546001600160a01b031690565b60405160e088901b6001600160e01b03191681526001600160a01b03958616600482015260248101949094526044840192909252606483015290911660848201524260a482015260c40160606040518083038185885af1158015613600573d6000803e3d6000fd5b50505050506040513d601f19601f820116820180604052508101906111049190613a3c565b600060208083528351808285015260005b8181101561365257858101830151858201604001528201613636565b81811115613664576000604083870101525b50601f01601f1916929092016040019392505050565b60006020828403121561368c57600080fd5b5035919050565b6001600160a01b03811681146112ab57600080fd5b80356136b381613693565b919050565b600080604083850312156136cb57600080fd5b82356136d681613693565b946020939093013593505050565b6000806000606084860312156136f957600080fd5b505081359360208301359350604090920135919050565b600081518084526020808501945080840160005b838110156137495781516001600160a01b031687529582019590820190600101613724565b509495945050505050565b6020815260006126506020830184613710565b60006020828403121561377957600080fd5b813561265081613693565b60008060006060848603121561379957600080fd5b83356137a481613693565b925060208401356137b481613693565b929592945050506040919091013590565b80151581146112ab57600080fd5b80356136b3816137c5565b600080604083850312156137f157600080fd5b82356137fc81613693565b9150602083013561380c816137c5565b809150509250929050565b634e487b7160e01b600052604160045260246000fd5b6000806040838503121561384057600080fd5b823567ffffffffffffffff8082111561385857600080fd5b818501915085601f83011261386c57600080fd5b813560208282111561388057613880613817565b8160051b604051601f19603f830116810181811086821117156138a5576138a5613817565b6040529283528183019350848101820192898411156138c357600080fd5b948201945b838610156138e8576138d9866136a8565b855294820194938201936138c8565b96506138f790508782016137d3565b9450505050509250929050565b6000806040838503121561391757600080fd5b823561392281613693565b9150602083013561380c81613693565b600181811c9082168061394657607f821691505b6020821081141561396757634e487b7160e01b600052602260045260246000fd5b50919050565b6020808252818101527f4f776e61626c653a2063616c6c6572206973206e6f7420746865206f776e6572604082015260600190565b6000602082840312156139b457600080fd5b5051919050565b6000602082840312156139cd57600080fd5b8151612650816137c5565b6000602082840312156139ea57600080fd5b815161265081613693565b634e487b7160e01b600052603260045260246000fd5b634e487b7160e01b600052601160045260246000fd5b6000600019821415613a3557613a35613a0b565b5060010190565b600080600060608486031215613a5157600080fd5b8351925060208401519150604084015190509250925092565b600080600080600080600080610100898b031215613a8757600080fd5b8851613a9281613693565b809850506020890151965060408901519550606089015194506080890151935060a0890151925060c0890151915060e089015190509295985092959890939650565b604081526000613ae76040830185613710565b905082151560208301529392505050565b60008219821115613b0b57613b0b613a0b565b500190565b6000816000190483118215151615613b2a57613b2a613a0b565b500290565b600082613b4c57634e487b7160e01b600052601260045260246000fd5b500490565b60208082526025908201527f45524332303a207472616e736665722066726f6d20746865207a65726f206164604082015264647265737360d81b606082015260800190565b60208082526023908201527f45524332303a207472616e7366657220746f20746865207a65726f206164647260408201526265737360e81b606082015260800190565b60208082526044908201527f5761697420666f72207472616e73616374696f6e20636f6f6c646f776e20746960408201527f6d6520746f20656e64206265666f7265206d616b696e6720612074616e7361636060820152633a34b7b760e11b608082015260a00190565b600082821015613c5557613c55613a0b565b500390565b85815284602082015260a060408201526000613c7960a0830186613710565b6001600160a01b039490941660608301525060800152939250505056fe45524332303a207472616e7366657220616d6f756e7420657863656564732062616c616e636545524332303a207472616e7366657220616d6f756e74206578636565647320616c6c6f77616e636545524332303a2064656372656173656420616c6c6f77616e63652062656c6f77207a65726fa2646970667358221220f0a60cfb75175380679cf78f46cd42dee1563f8e07476d90c41d5e0e6a949d7f64736f6c634300080b003360806040523480156200001157600080fd5b506040518060400160405280601481526020017f4f4c505f4469766964656e645f547261636b65720000000000000000000000008152506040518060400160405280601481526020017f4f4c505f4469766964656e645f547261636b657200000000000000000000000081525081816000620000926200012760201b60201c565b600080546001600160a01b0319166001600160a01b0383169081178255604051929350917f8be0079c531659141344cd1fd0a4f28419497f9722a3daafe3b4186f6b6457e0908290a3508151620000f19060049060208501906200012b565b508051620001079060059060208401906200012b565b505061a8c060115550506a52b7d2dcc80cd2e4000000601255506200020e565b3390565b8280546200013990620001d1565b90600052602060002090601f0160209004810192826200015d5760008555620001a8565b82601f106200017857805160ff1916838001178555620001a8565b82800160010185558215620001a8579182015b82811115620001a85782518255916020019190600101906200018b565b50620001b6929150620001ba565b5090565b5b80821115620001b65760008155600101620001bb565b600181811c90821680620001e657607f821691505b602082108114156200020857634e487b7160e01b600052602260045260246000fd5b50919050565b6120a1806200021e6000396000f3fe6080604052600436106102135760003560e01c8063715018a611610118578063bc4c4b37116100a0578063e7841ec01161006f578063e7841ec01461066d578063e98030c714610682578063f2fde38b146106a2578063fbcbc0f1146106c2578063ffb2c479146106e257600080fd5b8063bc4c4b37146105d1578063be10b614146105f1578063dd62ed3e14610607578063e30443bc1461064d57600080fd5b806395d89b41116100e757806395d89b4114610526578063a457c2d71461053b578063a8b9d2401461055b578063a9059cbb1461057b578063aafd847a1461059b57600080fd5b8063715018a6146104b357806385a6b3ae146104c85780638da5cb5b146104de57806391b89fba1461050657600080fd5b8063313ce5671161019b5780635183d6fd1161016a5780635183d6fd146103cd5780635ebf4db9146104325780636a474002146104525780636f2789ec1461046757806370a082311461047d57600080fd5b8063313ce5671461034157806331e79db01461035d578063395093511461037d5780634e7b827f1461039d57600080fd5b806318160ddd116101e257806318160ddd146102a9578063226cfa3d146102be57806323b872dd146102eb57806327ce01471461030b5780633009a6091461032b57600080fd5b806303c833021461022757806306fdde031461022f578063095ea7b31461025a57806309bbedde1461028a57600080fd5b366102225761022061071d565b005b600080fd5b61022061071d565b34801561023b57600080fd5b506102446107b0565b6040516102519190611ca3565b60405180910390f35b34801561026657600080fd5b5061027a610275366004611d10565b610842565b6040519015158152602001610251565b34801561029657600080fd5b50600a545b604051908152602001610251565b3480156102b557600080fd5b5060035461029b565b3480156102ca57600080fd5b5061029b6102d9366004611d3c565b60106020526000908152604090205481565b3480156102f757600080fd5b5061027a610306366004611d59565b610859565b34801561031757600080fd5b5061029b610326366004611d3c565b6108c2565b34801561033757600080fd5b5061029b600e5481565b34801561034d57600080fd5b5060405160128152602001610251565b34801561036957600080fd5b50610220610378366004611d3c565b61091f565b34801561038957600080fd5b5061027a610398366004611d10565b610a4f565b3480156103a957600080fd5b5061027a6103b8366004611d3c565b600f6020526000908152604090205460ff1681565b3480156103d957600080fd5b506103ed6103e8366004611d9a565b610a85565b604080516001600160a01b0390991689526020890197909752958701949094526060860192909252608085015260a084015260c083015260e082015261010001610251565b34801561043e57600080fd5b5061022061044d366004611d9a565b610bd9565b34801561045e57600080fd5b50610220610c1b565b34801561047357600080fd5b5061029b60115481565b34801561048957600080fd5b5061029b610498366004611d3c565b6001600160a01b031660009081526001602052604090205490565b3480156104bf57600080fd5b50610220610cbb565b3480156104d457600080fd5b5061029b60095481565b3480156104ea57600080fd5b506000546040516001600160a01b039091168152602001610251565b34801561051257600080fd5b5061029b610521366004611d3c565b610d2f565b34801561053257600080fd5b50610244610d3a565b34801561054757600080fd5b5061027a610556366004611d10565b610d49565b34801561056757600080fd5b5061029b610576366004611d3c565b610d98565b34801561058757600080fd5b5061027a610596366004611d10565b610dc4565b3480156105a757600080fd5b5061029b6105b6366004611d3c565b6001600160a01b031660009081526008602052604090205490565b3480156105dd57600080fd5b5061027a6105ec366004611db3565b610dd1565b3480156105fd57600080fd5b5061029b60125481565b34801561061357600080fd5b5061029b610622366004611df1565b6001600160a01b03918216600090815260026020908152604080832093909416825291909152205490565b34801561065957600080fd5b50610220610668366004611d10565b610e7d565b34801561067957600080fd5b50600e5461029b565b34801561068e57600080fd5b5061022061069d366004611d9a565b610feb565b3480156106ae57600080fd5b506102206106bd366004611d3c565b611159565b3480156106ce57600080fd5b506103ed6106dd366004611d3c565b611243565b3480156106ee57600080fd5b506107026106fd366004611d9a565b6113ac565b60408051938452602084019290925290820152606001610251565b600061072860035490565b1161073257600080fd5b34156107ae5761076561074460035490565b61075234600160801b6114c7565b61075c9190611e35565b6006549061154d565b60065560405134815233907fa493a9229478c3fcd73f66d2cdeb7f94fd0f341da924d1054236d784541165119060200160405180910390a26009546107aa903461154d565b6009555b565b6060600480546107bf90611e57565b80601f01602080910402602001604051908101604052809291908181526020018280546107eb90611e57565b80156108385780601f1061080d57610100808354040283529160200191610838565b820191906000526020600020905b81548152906001019060200180831161081b57829003601f168201915b5050505050905090565b600061084f3384846115ac565b5060015b92915050565b60006108668484846116d0565b6108b884336108b38560405180606001604052806028815260200161201f602891396001600160a01b038a166000908152600260209081526040808320338452909152902054919061172b565b6115ac565b5060019392505050565b6001600160a01b0381166000908152600760209081526040808320546001909252822054600654600160801b92610915926109109261090a9161090591906114c7565b611765565b90611775565b6117b3565b6108539190611e35565b6000546001600160a01b031633146109525760405162461bcd60e51b815260040161094990611e92565b60405180910390fd5b6001600160a01b0381166000908152600f602052604090205460ff161561097857600080fd5b6001600160a01b0381166000908152600f60205260408120805460ff191660011790556109a69082906117c6565b60405163131836e760e21b8152600a60048201526001600160a01b038216602482015273__$ff63054a5fca904aa61f9270973a47c131$__90634c60db9c9060440160006040518083038186803b158015610a0057600080fd5b505af4158015610a14573d6000803e3d6000fd5b50506040516001600160a01b03841692507fa878b31040b2e6d0a9a3d3361209db3908ba62014b0dca52adbaee451d128b259150600090a250565b3360008181526002602090815260408083206001600160a01b0387168452909152812054909161084f9185906108b3908661154d565b600080600080600080600080600a73__$ff63054a5fca904aa61f9270973a47c131$__63deb3d89690916040518263ffffffff1660e01b8152600401610acd91815260200190565b602060405180830381865af4158015610aea573d6000803e3d6000fd5b505050506040513d601f19601f82011682018060405250810190610b0e9190611ec7565b8910610b33575060009650600019955085945086935083925082915081905080610bce565b6040516368d54f3f60e11b8152600a6004820152602481018a905260009073__$ff63054a5fca904aa61f9270973a47c131$__9063d1aa9e7e90604401602060405180830381865af4158015610b8d573d6000803e3d6000fd5b505050506040513d601f19601f82011682018060405250810190610bb19190611ee0565b9050610bbc81611243565b98509850985098509850985098509850505b919395975091939597565b6000546001600160a01b03163314610c035760405162461bcd60e51b815260040161094990611e92565b610c1581670de0b6b3a7640000611efd565b60125550565b60405162461bcd60e51b815260206004820152606360248201527f4f4c505f4469766964656e645f547261636b65723a207769746864726177446960448201527f766964656e642064697361626c65642e20557365207468652027636c61696d2760648201527f2066756e6374696f6e206f6e20746865206d61696e204f4c5020636f6e74726160848201526231ba1760e91b60a482015260c401610949565b6000546001600160a01b03163314610ce55760405162461bcd60e51b815260040161094990611e92565b600080546040516001600160a01b03909116907f8be0079c531659141344cd1fd0a4f28419497f9722a3daafe3b4186f6b6457e0908390a3600080546001600160a01b0319169055565b600061085382610d98565b6060600580546107bf90611e57565b600061084f33846108b385604051806060016040528060258152602001612047602591393360009081526002602090815260408083206001600160a01b038d168452909152902054919061172b565b6001600160a01b03811660009081526008602052604081205461085390610dbe846108c2565b90611825565b600061084f3384846116d0565b600080546001600160a01b03163314610dfc5760405162461bcd60e51b815260040161094990611e92565b6000610e0784611867565b90508015610e73576001600160a01b038416600081815260106020526040908190204290555184151591907fa2c38e2d2fb7e3e1912d937fd1ca11ed6d51864dee4cfa7a7bf02becd7acf09290610e619085815260200190565b60405180910390a36001915050610853565b5060009392505050565b6000546001600160a01b03163314610ea75760405162461bcd60e51b815260040161094990611e92565b6001600160a01b0382166000908152600f602052604090205460ff1615610ecc575050565b6012548110610f5d57610edf82826117c6565b604051632f0ad01760e21b8152600a60048201526001600160a01b03831660248201526044810182905273__$ff63054a5fca904aa61f9270973a47c131$__9063bc2b405c9060640160006040518083038186803b158015610f4057600080fd5b505af4158015610f54573d6000803e3d6000fd5b50505050610fdb565b610f688260006117c6565b60405163131836e760e21b8152600a60048201526001600160a01b038316602482015273__$ff63054a5fca904aa61f9270973a47c131$__90634c60db9c9060440160006040518083038186803b158015610fc257600080fd5b505af4158015610fd6573d6000803e3d6000fd5b505050505b610fe6826001610dd1565b505050565b6000546001600160a01b031633146110155760405162461bcd60e51b815260040161094990611e92565b610e10811015801561102a5750620151808111155b6110ae5760405162461bcd60e51b815260206004820152604960248201527f4f4c505f4469766964656e645f547261636b65723a20636c61696d576169742060448201527f6d757374206265207570646174656420746f206265747765656e203120616e6460648201526820323420686f75727360b81b608482015260a401610949565b6011548114156111265760405162461bcd60e51b815260206004820152603b60248201527f4f4c505f4469766964656e645f547261636b65723a2043616e6e6f742075706460448201527f61746520636c61696d5761697420746f2073616d652076616c756500000000006064820152608401610949565b60115460405182907f474ea64804364a1e29a4487ddb63c3342a2dd826ccd8acf48825e680a0e6f20f90600090a3601155565b6000546001600160a01b031633146111835760405162461bcd60e51b815260040161094990611e92565b6001600160a01b0381166111e85760405162461bcd60e51b815260206004820152602660248201527f4f776e61626c653a206e6577206f776e657220697320746865207a65726f206160448201526564647265737360d01b6064820152608401610949565b600080546040516001600160a01b03808516939216917f8be0079c531659141344cd1fd0a4f28419497f9722a3daafe3b4186f6b6457e091a3600080546001600160a01b0319166001600160a01b0392909216919091179055565b6040516317e142d160e01b8152600a60048201526001600160a01b0382166024820152819060009081908190819081908190819073__$ff63054a5fca904aa61f9270973a47c131$__906317e142d190604401602060405180830381865af41580156112b3573d6000803e3d6000fd5b505050506040513d601f19601f820116820180604052508101906112d79190611ec7565b965060001995506000871261133957600e5487111561130557600e546112fe9088906119ad565b9550611339565b600e54600a546000911061131a576000611329565b600e54600a5461132991611825565b90506113358882611775565b9650505b61134288610d98565b945061134d886108c2565b6001600160a01b038916600090815260106020526040902054909450925082611377576000611385565b60115461138590849061154d565b915042821161139557600061139f565b61139f8242611825565b9050919395975091939597565b600a5460009081908190806113cc575050600e54600092508291506114c0565b600e546000805a90506000805b89841080156113e757508582105b156114af57846113f681611f1c565b600a549096508610905061140957600094505b6000600a600001868154811061142157611421611f37565b60009182526020808320909101546001600160a01b03168083526010909152604090912054909150611452906119ea565b1561147557611462816001610dd1565b15611475578161147181611f1c565b9250505b8261147f81611f1c565b93505060005a9050808511156114a6576114a361149c8683611825565b879061154d565b95505b93506113d99050565b600e85905590975095509193505050505b9193909250565b6000826114d657506000610853565b60006114e28385611efd565b9050826114ef8583611e35565b146115465760405162461bcd60e51b815260206004820152602160248201527f536166654d6174683a206d756c7469706c69636174696f6e206f766572666c6f6044820152607760f81b6064820152608401610949565b9392505050565b60008061155a8385611f4d565b9050838110156115465760405162461bcd60e51b815260206004820152601b60248201527f536166654d6174683a206164646974696f6e206f766572666c6f7700000000006044820152606401610949565b6001600160a01b03831661160e5760405162461bcd60e51b8152602060048201526024808201527f45524332303a20617070726f76652066726f6d20746865207a65726f206164646044820152637265737360e01b6064820152608401610949565b6001600160a01b03821661166f5760405162461bcd60e51b815260206004820152602260248201527f45524332303a20617070726f766520746f20746865207a65726f206164647265604482015261737360f01b6064820152608401610949565b6001600160a01b0383811660008181526002602090815260408083209487168084529482529182902085905590518481527f8c5be1e5ebec7d5bd14f71427d1e84f3dd0314c0f7b2291e5b200ac8c7c3b925910160405180910390a3505050565b60405162461bcd60e51b815260206004820152602a60248201527f4f4c505f4469766964656e645f547261636b65723a204e6f207472616e7366656044820152691c9cc8185b1b1bddd95960b21b6064820152608401610949565b6000818484111561174f5760405162461bcd60e51b81526004016109499190611ca3565b50600061175c8486611f65565b95945050505050565b6000818181121561085357600080fd5b6000806117828385611f7c565b9050600083121580156117955750838112155b806117aa57506000831280156117aa57508381125b61154657600080fd5b6000808212156117c257600080fd5b5090565b6001600160a01b038216600090815260016020526040902054808211156118055760006117f38383611825565b90506117ff8482611a11565b50505050565b80821015610fe65760006118198284611825565b90506117ff8482611a75565b600061154683836040518060400160405280601e81526020017f536166654d6174683a207375627472616374696f6e206f766572666c6f77000081525061172b565b60008061187383610d98565b905080156119a4576001600160a01b03831660009081526008602052604090205461189e908261154d565b6001600160a01b038416600081815260086020526040908190209290925590517fee503bee2bb6a87e57bc57db795f98137327401a0e7b7ce42e37926cc1a9ca4d906118ed9084815260200190565b60405180910390a26000836001600160a01b031682610bb890604051600060405180830381858888f193505050503d8060008114611947576040519150601f19603f3d011682016040523d82523d6000602084013e61194c565b606091505b505090508061199d576001600160a01b0384166000908152600860205260409020546119789083611825565b6001600160a01b03909416600090815260086020526040812094909455509192915050565b5092915050565b50600092915050565b6000806119ba8385611fbd565b9050600083121580156119cd5750838113155b806117aa57506000831280156117aa575083811361154657600080fd5b6000428211156119fc57506000919050565b601154611a094284611825565b101592915050565b611a1b8282611ab9565b611a55611a36610905836006546114c790919063ffffffff16565b6001600160a01b038416600090815260076020526040902054906119ad565b6001600160a01b0390921660009081526007602052604090209190915550565b611a7f8282611b9f565b611a55611a9a610905836006546114c790919063ffffffff16565b6001600160a01b03841660009081526007602052604090205490611775565b6001600160a01b038216611b0f5760405162461bcd60e51b815260206004820152601f60248201527f45524332303a206d696e7420746f20746865207a65726f2061646472657373006044820152606401610949565b600354611b1c908261154d565b6003556001600160a01b038216600090815260016020526040902054611b42908261154d565b6001600160a01b0383166000818152600160205260408082209390935591519091907fddf252ad1be2c89b69c2b068fc378daa952ba7f163c4a11628f55a4df523b3ef90611b939085815260200190565b60405180910390a35050565b6001600160a01b038216611bff5760405162461bcd60e51b815260206004820152602160248201527f45524332303a206275726e2066726f6d20746865207a65726f206164647265736044820152607360f81b6064820152608401610949565b611c3c81604051806060016040528060228152602001611ffd602291396001600160a01b038516600090815260016020526040902054919061172b565b6001600160a01b038316600090815260016020526040902055600354611c629082611825565b6003556040518181526000906001600160a01b038416907fddf252ad1be2c89b69c2b068fc378daa952ba7f163c4a11628f55a4df523b3ef90602001611b93565b600060208083528351808285015260005b81811015611cd057858101830151858201604001528201611cb4565b81811115611ce2576000604083870101525b50601f01601f1916929092016040019392505050565b6001600160a01b0381168114611d0d57600080fd5b50565b60008060408385031215611d2357600080fd5b8235611d2e81611cf8565b946020939093013593505050565b600060208284031215611d4e57600080fd5b813561154681611cf8565b600080600060608486031215611d6e57600080fd5b8335611d7981611cf8565b92506020840135611d8981611cf8565b929592945050506040919091013590565b600060208284031215611dac57600080fd5b5035919050565b60008060408385031215611dc657600080fd5b8235611dd181611cf8565b915060208301358015158114611de657600080fd5b809150509250929050565b60008060408385031215611e0457600080fd5b8235611e0f81611cf8565b91506020830135611de681611cf8565b634e487b7160e01b600052601160045260246000fd5b600082611e5257634e487b7160e01b600052601260045260246000fd5b500490565b600181811c90821680611e6b57607f821691505b60208210811415611e8c57634e487b7160e01b600052602260045260246000fd5b50919050565b6020808252818101527f4f776e61626c653a2063616c6c6572206973206e6f7420746865206f776e6572604082015260600190565b600060208284031215611ed957600080fd5b5051919050565b600060208284031215611ef257600080fd5b815161154681611cf8565b6000816000190483118215151615611f1757611f17611e1f565b500290565b6000600019821415611f3057611f30611e1f565b5060010190565b634e487b7160e01b600052603260045260246000fd5b60008219821115611f6057611f60611e1f565b500190565b600082821015611f7757611f77611e1f565b500390565b600080821280156001600160ff1b0384900385131615611f9e57611f9e611e1f565b600160ff1b8390038412811615611fb757611fb7611e1f565b50500190565b60008083128015600160ff1b850184121615611fdb57611fdb611e1f565b6001600160ff1b0384018313811615611ff657611ff6611e1f565b5050039056fe45524332303a206275726e20616d6f756e7420657863656564732062616c616e636545524332303a207472616e7366657220616d6f756e74206578636565647320616c6c6f77616e636545524332303a2064656372656173656420616c6c6f77616e63652062656c6f77207a65726fa2646970667358221220d17f3a18a1b9175707384b5c84b6c625c0ae3a2991576c56b82dbc7a230f468264736f6c634300080b00334f776e61626c653a2063616c6c6572206973206e6f7420746865206f776e6572",
  "linkReferences": {
    "contracts/libraries/IterableMapping.sol": {
      "IterableMapping": [
        {
          "length": 20,
          "start": 22982
        },
        {
          "length": 20,
          "start": 23184
        },
        {
          "length": 20,
          "start": 23374
        },
        {
          "length": 20,
          "start": 24326
        },
        {
          "length": 20,
          "start": 24456
        },
        {
          "length": 20,
          "start": 25204
        }
      ]
    }
  },
  "deployedLinkReferences": {}
}