{
  "_format": "hh-sol-artifact-1",
  "contractName": "TokenClaimer",
  "sourceName": "contracts/migration/TokenClaimer.sol",
  "abi": [
    {
      "inputs": [
        {
          "internalType": "contract TokenHolderRegister",
          "name": "tokenHolderRegister",
          "type": "address"
        },
        {
          "internalType": "contract IERC20",
          "name": "v2Token",
          "type": "address"
        }
      ],
      "stateMutability": "nonpayable",
      "type": "constructor"
    },
    {
      "anonymous": false,
      "inputs": [
        {
          "indexed": true,
          "internalType": "address",
          "name": "previousOwner",
          "type": "address"
        },
        {
          "indexed": true,
          "internalType": "address",
          "name": "newOwner",
          "type": "address"
        }
      ],
      "name": "OwnershipTransferred",
      "type": "event"
    },
    {
      "inputs": [
        {
          "internalType": "address",
          "name": "holder",
          "type": "address"
        }
      ],
      "name": "claimV2Tokens",
      "outputs": [],
      "stateMutability": "nonpayable",
      "type": "function"
    },
    {
      "inputs": [],
      "name": "collectV2Tokens",
      "outputs": [],
      "stateMutability": "nonpayable",
      "type": "function"
    },
    {
      "inputs": [],
      "name": "owner",
      "outputs": [
        {
          "internalType": "address",
          "name": "",
          "type": "address"
        }
      ],
      "stateMutability": "view",
      "type": "function"
    },
    {
      "inputs": [],
      "name": "renounceOwnership",
      "outputs": [],
      "stateMutability": "nonpayable",
      "type": "function"
    },
    {
      "inputs": [
        {
          "internalType": "address",
          "name": "newOwner",
          "type": "address"
        }
      ],
      "name": "transferOwnership",
      "outputs": [],
      "stateMutability": "nonpayable",
      "type": "function"
    }
  ],
  "bytecode": "0x608060405234801561001057600080fd5b506040516106a43803806106a483398101604081905261002f916100d1565b61003833610069565b600180546001600160a01b039384166001600160a01b0319918216179091556002805492909316911617905561010b565b600080546001600160a01b038381166001600160a01b0319831681178455604051919092169283917f8be0079c531659141344cd1fd0a4f28419497f9722a3daafe3b4186f6b6457e09190a35050565b6001600160a01b03811681146100ce57600080fd5b50565b600080604083850312156100e457600080fd5b82516100ef816100b9565b6020840151909250610100816100b9565b809150509250929050565b61058a8061011a6000396000f3fe608060405234801561001057600080fd5b50600436106100575760003560e01c806337b7d20d1461005c578063715018a6146100665780638da5cb5b1461006e578063b506721b1461008d578063f2fde38b146100a0575b600080fd5b6100646100b3565b005b6100646101e7565b600054604080516001600160a01b039092168252519081900360200190f35b61006461009b3660046104b4565b61021d565b6100646100ae3660046104b4565b6103d0565b6000546001600160a01b031633146100e65760405162461bcd60e51b81526004016100dd906104e4565b60405180910390fd5b6002546001600160a01b031663a9059cbb6101096000546001600160a01b031690565b6002546040516370a0823160e01b81523060048201526001600160a01b03909116906370a0823190602401602060405180830381865afa158015610151573d6000803e3d6000fd5b505050506040513d601f19601f820116820180604052508101906101759190610519565b6040516001600160e01b031960e085901b1681526001600160a01b03909216600483015260248201526044016020604051808303816000875af11580156101c0573d6000803e3d6000fd5b505050506040513d601f19601f820116820180604052508101906101e49190610532565b50565b6000546001600160a01b031633146102115760405162461bcd60e51b81526004016100dd906104e4565b61021b6000610464565b565b60015460405163450efe2160e01b81526001600160a01b038381166004830152600092169063450efe2190602401602060405180830381865afa158015610268573d6000803e3d6000fd5b505050506040513d601f19601f8201168201806040525081019061028c9190610519565b9050600081116102f05760405162461bcd60e51b815260206004820152602960248201527f546f6b656e436c61696d65723a2053686f756c64207472616e7366657220736f6044820152686d6520746f6b656e7360b81b60648201526084016100dd565b60025460405163a9059cbb60e01b81526001600160a01b038481166004830152602482018490529091169063a9059cbb906044016020604051808303816000875af1158015610343573d6000803e3d6000fd5b505050506040513d601f19601f820116820180604052508101906103679190610532565b156103cc5760015460405163fc50baf560e01b81526001600160a01b0384811660048301529091169063fc50baf590602401600060405180830381600087803b1580156103b357600080fd5b505af11580156103c7573d6000803e3d6000fd5b505050505b5050565b6000546001600160a01b031633146103fa5760405162461bcd60e51b81526004016100dd906104e4565b6001600160a01b03811661045f5760405162461bcd60e51b815260206004820152602660248201527f4f776e61626c653a206e6577206f776e657220697320746865207a65726f206160448201526564647265737360d01b60648201526084016100dd565b6101e4815b600080546001600160a01b038381166001600160a01b0319831681178455604051919092169283917f8be0079c531659141344cd1fd0a4f28419497f9722a3daafe3b4186f6b6457e09190a35050565b6000602082840312156104c657600080fd5b81356001600160a01b03811681146104dd57600080fd5b9392505050565b6020808252818101527f4f776e61626c653a2063616c6c6572206973206e6f7420746865206f776e6572604082015260600190565b60006020828403121561052b57600080fd5b5051919050565b60006020828403121561054457600080fd5b815180151581146104dd57600080fdfea2646970667358221220c876e8355a299ffd57b4f4bd26e41b47fea36720a1b94473174c274fcedce5c264736f6c634300080b0033",
  "linkReferences": {},
  "deployedLinkReferences": {}
}